:020000040800F2
:100000002064002049010008B51B0008ED1A000813
:10001000B11B0008C1130008632F00080000000096
:10002000000000000000000000000000F5220008B1
:10003000A7140008000000003D1C0008CD2900089E
:100040006301000863010008630100086301000800
:10005000630100086301000821180008630100081B
:10006000630100086301000863010008C51300086C
:1000700063010008630100086301000863010008D0
:1000800063010008630100086301000863010008C0
:1000900063010008630100086301000845180008B7
:1000A00063010008630100086301000863010008A0
:1000B0006301000863010008630100086301000890
:1000C0006301000863010008630100086301000880
:1000D000630100085D2C0008952C000863010008EE
:1000E0006301000863010008630100086301000860
:1000F0006301000863010008630100086301000850
:10010000630100086301000863010008630100083F
:10011000630100086301000863010008630100082F
:10012000630100086301000863010008630100081F
:10013000DFF810D000F0A2FC00480047F1470008AB
:10014000AFF300802064002006488047064800473F
:10015000FEE7FEE7FEE7FEE7FEE7FEE7FEE7FEE777
:10016000FEE7FEE7D129000831010008F0B480EA7B
:100170000102D40F4200B2EB410F02D20246084600
:1001800011464A0042D0C30DDDB2C1F3C752AD1AC9
:10019000202D35DAC1F3160141F4000204B15242B8
:1001A000C5F1200602FA06F12A411044B3EBD05FF4
:1001B00023D0C4B1012DA0EBC35009DCF0BC4FF03B
:1001C000004202EAC352DBB200F5000000F09BBB24
:1001D000400000F1807000EBC350A0F1807040EA55
:1001E000D170490009E0490841EAC071A0EBC35051
:1001F00000F50000400800EBC350F0BC00F07ABBF3
:100200006142012202EB4101001BF6E7F0BC70479E
:1002100081F00041AAE780F00040A7E780EA0102F0
:1002200010B502F00043400022D04A001FD0010E5A
:1002300001EB1261C0F35600C2F3560240F4000015
:1002400042F40002A0FB022000047F39140400D015
:10025000401C50EA124001D44000491EC2B20C06B4
:1002600004EBD010401C4008802A02D003E000209C
:1002700010BD20F00100002900DA0020184310BD55
:1002800030B480EA010202F0004530F0004221F073
:10029000004013D090B1C30DD40DC2F31601C0F3CA
:1002A0001600E41A41F4000140F400027D3491424A
:1002B00001D3641C00E04900002C02DA30BC0020AD
:1002C00070474FF400000023914201D3891A034381
:1002D00040084FEA4101F7D151B1914202D14FF0AC
:1002E000004105E002D24FF0010101E06FF0010191
:1002F00003EBC450284430BC00F0FCBA2DE9FE4F9B
:10030000804681EA0300C00F0C46009021F00041B6
:1003100023F00045B8EB0200A94105D24046214632
:1003200090461C460B46024623F00040104347D03F
:10033000270DC7F30A00C3F30A510290401A019037
:1003400040286BDAC3F3130040F4801B00989246F8
:1003500020B10023D2EB030A63EB0B0B0198594643
:10036000C0F14002504600F094FA06460D46504651
:100370005946019A00F0ACFA10EB080061410024E4
:1003800087EA115284EAE7731A4340D0009A62B3B5
:10039000019A012A4FEA075215DC001B61EB0201AA
:1003A0004FF0004202EA0752CDE90042001C41F53D
:1003B000801132462B4600F0E3FA03B0BDE8F08F1F
:1003C00040462146F9E7001B61EB0201001C41F5A4
:1003D000801300185B412018A2F5001747EB0301BA
:1003E00040EAD570B6196D4111E06D084FEA360646
:1003F00045EAC0754FEA0752001B61EB0201001C81
:1004000041F5801149084FEA300000195141324648
:100410002B4603B0BDE8F04F00F0A3BA00980122CC
:1004200040000023D0EB020263EBE073009821460A
:100430004FEAE074B8EB000061EB0401E9E783F0F8
:1004400000435BE781F0004158E72DE9FE4F81EA68
:10045000030404F0004421F0004100944FF0000B2D
:1004600023F0004350EA01045ED052EA03045BD05B
:10047000C3F30A54C1F30A552C44A4F2F334019493
:10048000A0FB0254C1F3130141F48011C3F3130321
:1004900043F4801301FB024400FB034E840A970AD5
:1004A00044EA815447EA8357A4FB076802958D0A02
:1004B00005FB07854FEA932C04FB0C542705029D8E
:1004C0004FEA065847EA1637B5EB08056EEB070CFE
:1004D000870E920E47EA811742EA8312A7FB0201B8
:1004E000B6EB0B0164EB00042B0D43EA0C335E18F2
:1004F00044EB1C50DA465146E7FB0201C5F31304F6
:100500004FEA0B3343EA14534FEA0432019C43EAA7
:100510000603A4F10C040294009CCDE900B400F0A1
:100520002FFA03B0BDE8F08F00200146F9E72DE96E
:10053000F04D81EA030404F0004B21F0004514461D
:100540004FF0000A23F0004150EA050220D054EA9F
:1005500001021DD0C5F30A570246C5F31303C1F3C8
:100560001300C1F30A5640F4801543F48013A7EB3F
:100570000608101BD64608F2FD3873EB050002D3BF
:1005800008F1010801E092185B41B8F1000F03DAAD
:1005900000200146BDE8F08D00204FF48011064692
:1005A00084460EE0171B73EB050705D3121B63EBA4
:1005B000050306434CEA010C49084FEA3000921843
:1005C0005B4150EA0107EDD152EA030012D082EA02
:1005D000040083EA0501084305D0101BAB4106D295
:1005E0000122002306E000224FF0004302E06FF0FA
:1005F000010253101AEB06004CEB085110EB0A00F5
:1006000041EB0B01BDE8F04D00F0ABB996230022A1
:10061000114600F078B90EB5C10F80EAE0700844C9
:10062000CA07002140F233438DE80E000A460B460C
:1006300000F0A6F903B000BD0EB540F233410291BF
:100640000021CDE900110A460B4600F099F903B0EC
:1006500000BD00F0004220F00040C10DC0F31600C4
:1006600040F400007F2901DA00207047962903DC5E
:10067000C1F19601C84001E096398840002AF4D0C3
:100680004042704720F00040C10DC0F3160040F416
:1006900000007F2901DA00207047962903DCC1F1B0
:1006A0009601C840704796398840704770B5C1F3CD
:1006B0000A5201F000450024C1F3130140F2FF3358
:1006C00041F480119A4201DA002070BD40F23343B8
:1006D0009A42A2F2334203DC524200F0E9F800E011
:1006E00090402C43F1D0404270BDC1F30A5210B586
:1006F000C1F3130140F2FF3341F480119A4201DA51
:10070000002010BD40F233439A42A2F2334203DC90
:10071000524200F0CDF810BD904010BD00F00042F4
:1007200030F000400AD0C10D01F56071C0F3160031
:1007300042EA0151C20840071143704700200146B8
:100740007047000030B5041E71F1000404DB4FF067
:100750000044404264EB0101141E73F1000405DB08
:100760001C464FF00043524263EB04038B4208BF28
:10077000824230BD30B5041E71F1000404DB4FF03D
:100780000044404264EB0101141E73F1000405DBD8
:100790001C464FF00043524263EB0403994208BFEA
:1007A000904230BD01F0004330B421F0004150EAE6
:1007B000010206D00A0DA2F56072C1F31301002AEE
:1007C00002DC30BC00207047440F44EAC104C10081
:1007D000E01830BC00EBC25000F08CB8002801DB00
:1007E000C0F10040002901DBC1F1004181427047A6
:1007F000002801DBC0F10040002901DBC1F100410C
:100800008842704730B50B46014600202022012463
:1008100009E021FA02F59D4205D303FA02F5491BCE
:1008200004FA02F52844151EA2F10102F1DC30BDE4
:100830002DE9F05F0546002092469B468846064615
:10084000814640241BE0284641464746224600F0A8
:100850002FF853465A46C01A914110D311461846F4
:10086000224600F016F82D1A67EB01084F46224683
:100870000120002100F00DF817EB00094E41201E69
:10088000A4F10104DFDC484631462A464346BDE870
:10089000F09F202A04DB203A00FA02F10020704782
:1008A0009140C2F1200320FA03F3194390407047AE
:1008B000202A04DB203A21FA02F00021704721FAB5
:1008C00002F3D040C2F1200291400843194670471C
:1008D000202A06DBCB17203A41FA02F043EAE07304
:1008E00006E041FA02F3D040C2F1200291400843F1
:1008F000194670470029A8BF7047401C490008BF2F
:1009000020F00100704710B4B0FA80FC00FA0CF03F
:1009100050EA010404BF10BC704749B1CCF1200477
:1009200021FA04F411FA0CF118BF01212143084304
:10093000A3EB0C01CB1D4FEA00614FEA102042BF30
:10094000002010BC704700EBC35010440029A4BF26
:1009500010BC7047401C490008BF20F0010010BCCB
:10096000704710B5141E73F1000408DA401C41F101
:10097000000192185B411A4301D120F0010010BD23
:100980002DE9F04D92469B4611B1B1FA81F202E099
:10099000B0FA80F220329046FFF77BFF04460F4604
:1009A00040EA0A0041EA0B0153465A46084313D075
:1009B000114653EA010019D0C8F140025046FFF732
:1009C00077FF05460E46504659464246FFF761FFFF
:1009D000084305D0012004E020463946BDE8F08DEB
:1009E0000020054346EAE0762C4337430A98630526
:1009F000E40AA0EB08000022FD0A44EA47540A304A
:100A000002D500200146E9E7010510196941DDE939
:100A1000084500196941BDE8F04DA2E770B521F025
:100A2000004303430CD0C1F30A550024D5EB040561
:100A300064EB0403D617AD1AB34102DB0020014674
:100A400070BD201841EB025170BDC1F30A52C1F3D1
:100A5000130140F2FF3341F480119A4202DA002080
:100A60000146704740F233439A42A2F2334202DC1D
:100A70005242FFF71DBFFFF70CBF0000064C074DA9
:100A800006E0E06840F0010394E80700984710345E
:100A9000AC42F6D3FFF750FB304E0008504E000832
:100AA00010B504462146002000F0CCF810BD10B56A
:100AB0000446204600F0DCF821464FF4807000F038
:100AC000C1F8012000F0F0FC2046FFF7E9FF10BD5F
:100AD0007CB504460B46002000900190002105E003
:100AE000481C205C0DF80100481CC1B29942F7DB9C
:100AF0003AB90120314E30600020314EC6F8A801CD
:100B00000BE0012A07D101202E4E306000202E4E2E
:100B1000C6F8880101E000207CBD00213FE00025EF
:100B200039E0DAB91DF8010000F0800020B10120A1
:100B3000224E361D306003E00020204E361D30600E
:100B400000201E4E30601DF801004006000E0DF81A
:100B5000010001201A4EC6F8AC011AE01DF8010090
:100B600000F0800020B10120164E361D306003E0F9
:100B70000020144E361D30600020124E30601DF8EB
:100B800001004006000E0DF8010001200E4EC6F8CF
:100B90008C01681CC5B2082DC3DB481CC1B2994248
:100BA000BDDB22B90120054E361F306003E0012075
:100BB000044E361F30601846AEE70000AC012342F9
:100BC000000023428C012442000024422DE9FF470B
:100BD00004460F4690469946254626463846FFF776
:100BE0009DFD104A104BCDE90001FFF72EFCCDE929
:100BF0000201FFF77AFD8246CAF38D300543CAF33E
:100C00000D00064348F40050494600F01BF84946E1
:100C1000304600F017F84946284600F013F8BDE8C2
:100C2000FF8700003A8C30E28E79254070B504468B
:100C30000D46164633462A4621464FF48040FFF7BC
:100C4000C5FF70BD3CB504460D46084903C9CDE952
:100C50000001200A8DF80100E0B28DF802002A465A
:100C600002216846FFF734FF3CBD0000E84D000854
:100C700038B5044614B1012C25D112E001214020E1
:100C800001F0E8F84FF4E050ADF8000003208DF8D3
:100C9000020010208DF8030069460C4800F030FE79
:100CA00012E00121080201F0D5F81C20ADF8000087
:100CB00003208DF8020010208DF8030069460448D7
:100CC00000F01EFE00E000BF00BF38BD001801406C
:100CD000002001402DE9F05F0027B84600261AE009
:100CE00000202F4921F8160001212E4800F02CFB8E
:100CF00000BF02212B4800F015F90028F9D002218D
:100D0000284800F06CF8274800F008F9244921F839
:100D10001600701CC6B2642EE2DB00251EE0002423
:100D200016E01F4830F814100246601C32F810001C
:100D300081420BDD104630F814800146601C31F80A
:100D4000100021F81400601C21F81080601C84B28F
:100D5000C5F16400A042E4DC681C85B2642DDEDBD2
:100D60000A2505E00E4830F815000744681C85B2D6
:100D70005A2DF7DB5020B7FBF0F73846FFF746FC5B
:100D800083460949FFF74AFA82460849FFF778FA8D
:100D90008146FFF777FC06498880BDE8F09F000098
:100DA00024490020003C014000404E4500F07F45B2
:100DB0002421002010B50446204600F00FFA00BFA1
:100DC000204600F0B8F80028FAD1204600F0C7FA13
:100DD00000BF204600F098F80028FAD110BDCA43A1
:100DE0000260704721B1826842F00102826003E034
:100DF000826822F0010282607047000000B58DB069
:100E00000121084600F0F6FF1D4803901D4802909E
:100E1000001509908020079040000890002006905F
:100E20004FF400500B9000200C904FF48060059020
:100E30000020049020200A9002A9134800F015FB1E
:100E40000121114800F0E6FA012202210E4800F0CB
:100E500003FB4FF4A06000F0E7FE0B208DF80400C8
:100E600001208DF807008DF8050000208DF80600A0
:100E700001A800F0A1FE022000F0BEFA0DB000BDF6
:100E8000242900204C2401400800024021B182683E
:100E900042F48072826003E0826822F48072826091
:100EA000704721B1826842F48012826003E0826858
:100EB00022F480128260704708B50121042000F0FE
:100EC000C9FF0121102000F0C5FF0220ADF800008D
:100ED00000208DF8030003208DF8020069460848C1
:100EE00000F00EFD0C20ADF8000000208DF803008E
:100EF00003208DF802006946024800F001FD08BD9C
:100F00000008014000100140014600208A6802F0FC
:100F100004020AB1012000E0002070470146C86CBD
:100F200080B270470246002013680B400BB10120CD
:100F300000E000207047014600208A6802F00802A5
:100F40000AB1012000E000207047000030B50246E1
:100F50000020002350680F4C20400D790C6844EAB3
:100F600005242043506090680B4C2040D1E9025486
:100F70002C434D7944EA450420439060D06A20F424
:100F800070000C7C641EE4B2234340EA0350D0623C
:100F900030BD0000FFFEF0FFFDF7F1FF00B585B0AA
:100FA0000121480200F056FF4FF4004000F016FF08
:100FB00000208DF8050003904FF4002002900020DF
:100FC00000908DF8040001208DF810006946144847
:100FD000FFF7BCFF002301221146114800F072F810
:100FE00001210F48FFF752FF01210D48FFF7FAFEDC
:100FF0000B4800F0F3F800BF0948FFF79CFF0128F9
:10100000FAD0074800F0ABF900BF0548FFF77CFFB6
:101010000128FAD001210248FFF743FF05B000BDC7
:101020000024014010B586B00446002001908DF8E0
:1010300008008DF809004FF4602003900020049010
:1010400003208DF8140001A92046FFF77FFF06B0AA
:1010500010BD00002DE9F0474FF6FF750026002473
:1010600011E0144830F81400B04202DD114830F8A5
:101070001460104830F81400A84202DA0D4830F825
:101080001450601C84B2B4F5406FEADB701B87B269
:101090003846FFF7BBFA81460749FFF7BFF880469D
:1010A0000649FFF7EDF80649086008460068BDE804
:1010B000F08700002429002000404E4500F07F45C5
:1010C00018000020F0B504460D4600200021092D2F
:1010D00011DDE068A5F10A0606EB4607072606FAC9
:1010E00007F18843A5F10A0606EB460603FA06F166
:1010F0000843E0600CE0206905EB4507072606FA87
:1011000007F1884305EB450603FA06F10843206121
:10111000072A0FDA606B561E06EB86071F2606FAB3
:1011200007F18843561E06EB860605FA06F10843CA
:10113000606322E00D2A0FDA206BD61F06EB8607CC
:101140001F2606FA07F18843D61F06EB860605FA26
:1011500006F10843206310E0E06AA2F10D0606EBF9
:1011600086071F2606FA07F18843A2F10D0606EB53
:10117000860605FA06F10843E062F0BD10B50121CC
:101180004FF4044000F066FE4FF4004000F026FEED
:101190001048FFF747FF002301220C210D48FFF7FD
:1011A00091FF0D48FFF73EFF002301220D210A4861
:1011B000FFF788FF01210848FFF714FE0648FFF7F4
:1011C000F9FD01210348FFF70DFE0248FFF7F2FD8C
:1011D00010BD000000280140003C0140816841F042
:1011E00008018160704700002DE9F84F4FF48066D8
:1011F000002740F6FF780025002419E0002021494F
:1012000021F814000121204800F09EF800BF0221BF
:101210001D48FFF787FE0028F9D002211A48FFF782
:10122000DEFD1948FFF77AFE164921F81400641C08
:10123000701EA042E2DC002409E0124830F814508D
:10124000BD4200DD2F46454500DAA846641C701EED
:10125000A042F2DCA7EB080080B2ADF80200BDF8B6
:101260000200FFF7D3F983460849FEF7D7FF82460D
:101270000749FFF705F88146FFF704FA054948805A
:10128000BDE8F88F244100200028014000404E4571
:1012900000F07F45242100202DE9F84F002640F67C
:1012A000FF770025002419E00020224921F81400CE
:1012B0000121214800F048F800BF02211E48FFF735
:1012C00031FE0028F9D002211B48FFF788FD1A489B
:1012D000FFF724FE174921F81400641C40F2FF3088
:1012E0008442E1DB002409E0124830F81450B54292
:1012F00000DD2E46BD4200DA2F46641C40F2FF306E
:101300008442F1DBF01B80B2ADF80200BDF80200B0
:10131000FFF77CF982460949FEF780FF81460849BC
:10132000FEF7AEFF8046FFF7ADF906494880BDE8FD
:10133000F88F0000244100200028014000404E4565
:1013400000F07F452421002021B1826842F4A002F0
:10135000826003E0826822F4A002826070478168A4
:1013600041F00401816070473EB505460C460121FD
:10137000022000F04FFD114801F066FB684601F0C5
:10138000C5FB681E80B2ADF80400601E80B2ADF8E7
:10139000000000208DF80800ADF80600ADF802004E
:1013A0006946064801F060FB2021044801F052FB29
:1013B0000121024801F03CFB3EBD0000000400405A
:1013C00000BFFEE710B5022000F030F868B102203F
:1013D00000F012F80021054800F01CF80021044834
:1013E000FFF700FD01200349087010BD080002400E
:1013F000002401401C00002000F0805111B103497D
:10140000086001E00249486070470000040402409F
:101410000000024021B1026842F00102026004E0D3
:1014200002684FF6FE731A400260704701460020C2
:10143000002201F0805313B1054B1A6801E0054BFF
:101440001A6802EA01030BB1012000E00020704796
:1014500000040240000002401AB103680B4303601D
:1014600002E003688B430360704710B500220268F6
:1014700047F6F0739A430C6A8B6823430C69234345
:101480004C6923438C692343CC6923434C6A23432F
:101490008C6A23431A430260CB6843600B68836005
:1014A0004B68C36010BD704700B5034603E04FF4BE
:1014B0007A7000F005F8181EA3F10103F7D100BD02
:1014C00000EBC001C9004FF0E022516100219161A1
:1014D0000521116100BF4FF0E021096901F480315D
:1014E0000029F8D004214FF0E0221161704700007C
:1014F00070B500204749484A03C248494848494A0C
:10150000C2E9001000F09CFB47480068FFF7A1F813
:101510000546294645A001F003FB47480068FFF750
:1015200098F80546294645A001F0FAFA46480068B1
:1015300064384649096888423ED80021444A11600F
:1015400051600020434A106050600A20FFF7ACFF52
:1015500041480168414800683230814201D90B247A
:1015600021E03E48006832383B490968884201D989
:101570000E2418E03A492C480068FEF7F7FD0546AE
:101580002D4801682846FFF729F90CD83549264827
:101590000068FEF7EBFD0546274801682846FFF77F
:1015A00027F900D80C2430480168304800682830FA
:1015B00081422CD90D242AE023480068643823494D
:1015C0000968884223D92A4909688808FFF71EF864
:1015D0000546284801682846FFF700F907D826493C
:1015E00024480068FFF7FAF801D20A240FE02048E7
:1015F00000680B21B0FBF1F63046FFF707F805460F
:101600001C4801682846FFF7F3F800D20924204659
:1016100070BD000000C06240B8000020E17A14AE46
:1016200047E1DA3FC00000209C0000206E302E769B
:10163000616C3D2564000000A00000206E352E7610
:10164000616C3D256400000058000020F800002077
:10165000D0000020D800002064000020600000209E
:101660000000A0410000C842680000205C0000208B
:10167000700000200C0100200000FA442DE9FF5FFB
:1016800053480068FFF74AF804460D465048016881
:101690005048FEF7BDFD50490190FEF7BFFD83465F
:1016A000FFF73CF8064600224C4BFEF7CEFE2246E2
:1016B0002B46CDE90201FEF73AFF8046FFF715F809
:1016C000474908604021474800F0B9F9464800689A
:1016D000A0F5C87042490968884202D94FF0020A51
:1016E00072E03F4801684048006800F5167081428A
:1016F00042D93E480068FEF79FFF80463C4A3D4B7A
:10170000FEF715FF04460D463B480068FEF7A1FFB3
:101710008046FEF780FF064622462B46FFF712F86A
:1017200002D24FF0030A4FE030480068FEF784FF12
:101730000646324A324BFEF7FAFE804689462E486C
:101740000068FEF786FF0646FEF765FF0446424640
:101750004B46FFF70FF837D824490968A1F1640018
:10176000FEF754FF0446244801682046FFF740F87E
:101770002AD84FF0080A27E040211A4800F05DF906
:101780003220FFF791FEFFF7A5FA1E4880881E4918
:10179000086008460068FEF74FFF04461B4A1C4BD2
:1017A000FEF753FE0646FEF7A0FF174908600846FD
:1017B000006842F6A151884201D34FF0050A124851
:1017C000016814A001F0ACF9504604B0BDE8F09FE8
:1017D00010010020000040410000FA440000F03FEA
:1017E0000801002000100140780000207000002057
:1017F000A4703D0AD7A30A4014010020C3F5285C59
:101800008FC20940242100200001002048E17A1401
:10181000AE4712406E362E76616C3D2564000000A6
:1018200010B5012000F042F848B1012000F038F86E
:1018300000F05EF901200249087000F057FD10BD6C
:101840001D00002010B5202000F030F848B1202005
:1018500000F026F800F04CF901201049087000F063
:1018600045FD402000F022F848B1402000F018F873
:1018700000F03EF901200949087000F037FD802092
:1018800000F014F848B1802000F00AF800F030F9B8
:1018900001200249087000F029FD10BD1D00002044
:1018A000014908607047000014040140014600200F
:1018B0000022074B1B6803EA0102054B14331B6827
:1018C0000B4013B10AB1012000E000207047000076
:1018D0000004014008B50121082000F0BBFA702087
:1018E000ADF8000002208DF8020010208DF80300F2
:1018F0006946024800F004F808BD000000100140ED
:101900002DE9F04102460025002600200023002496
:10191000002791F803C00CF00F0591F803C00CF0FC
:10192000100CBCF1000F03D091F802C04CEA050581
:1019300091F800C0BCF1000F31D0146800202BE0FA
:101940004FF0010C0CFA00F3B1F800C00CEA0306EA
:101950009E4220D183004FF00F0C0CFA03F7BC43DA
:1019600005FA03FC4CEA040491F803C0BCF1280F0B
:1019700006D14FF0010C0CFA00FCC2F814C00AE0CA
:1019800091F803C0BCF1480F05D14FF0010C0CFADF
:1019900000FCC2F810C0401C0828D1D31460B1F874
:1019A00000C0BCF1FF0F34DD546800202EE000F1D0
:1019B000080C4FF0010808FA0CF3B1F800C00CEA6B
:1019C00003069E4221D183004FF00F0C0CFA03F75F
:1019D000BC4305FA03FC4CEA040491F803C0BCF1D3
:1019E000280F05D100F1080C08FA0CF8C2F8148091
:1019F00091F803C0BCF1480F07D100F1080C4FF07B
:101A0000010808FA0CF8C2F81080401C0828CED350
:101A10005460BDE8F0810246002093680B400BB192
:101A2000012000E00020704702460020D3680B40F0
:101A30000BB1012000E00020704741617047016157
:101A400070474FF6FF710180022181700421C1703F
:101A50007047000010B50446012C06D0022C13D0AC
:101A6000032C20D0042C3CD12CE001211E48FFF790
:101A7000DBFF20B901211C48FFF7E1FF03E0012152
:101A80001948FFF7DAFF2DE002211748FFF7CCFFD6
:101A900020B902211448FFF7D2FF03E002211248C7
:101AA000FFF7CBFF1EE020210F48FFF7BDFF20B955
:101AB00020210D48FFF7C3FF03E020210A48FFF76C
:101AC000BCFF0FE040210848FFF7AEFF20B94021DE
:101AD0000548FFF7B4FF03E040210348FFF7ADFFDF
:101AE00000E000BF00BF10BD0014014000BFFEE7D2
:101AF00010B500F013F8074908700748007840B1A6
:101B0000002005490870034909783039C8B2FFF749
:101B1000A1FF10BD1E0000201D0000207CB520A0EC
:101B2000006801901FA000680090002530E01E2191
:101B30001D48FFF784FF01A8415D1B48FFF77DFFAB
:101B4000002421E01DF804101748FFF764FFC8B90E
:101B50000A20FFF7A9FC1DF804101348FFF75BFFEC
:101B600080B900BF1DF804100F48FFF754FF00288C
:101B7000F8D01E210C48FFF760FF0C4800EB8500F1
:101B8000005D7CBD601CC4B2042CDBDB681CC5B2EC
:101B9000042DCCDB1E210448FFF74FFF0020F0E7A7
:101BA0000204081020408001001C0140D84D0008AC
:101BB00000BFFEE77047000070B5002100230F2230
:101BC000C47804B3154C246804F4E064C4F5E064FC
:101BD000210AC1F10403CA40447804FA03F184786D
:101BE0001440214309010E4C0678A155047804F0F5
:101BF0001F050124AC4005786D11AD0005F1E0250D
:101C0000C5F8004109E0047804F01F050124AC4048
:101C1000044D0678761145F8264070BD0CED00E0C5
:101C200000E400E080E100E002490143024A116063
:101C3000704700000000FA050CED00E0704700005E
:101C40002DE9FE4300200290019000900A20FFF74A
:101C50002BFC00231A4651494FF48040FEF7B6FF93
:101C600000204F49088002900DE0FFF715FB4D481A
:101C700040884B490988084449490880BDF8080054
:101C8000401C80B20290BDF808001428EDDB4448E7
:101C90000088142190FBF1F0414908800846008833
:101CA0004149086000231A4640494FF48040FEF73E
:101CB0008DFF00203A49088002900DE0FFF7ECFA12
:101CC0003848408836490988084435490880BDF8B5
:101CD0000800401C80B20290BDF808001428EDDB1B
:101CE0002F480088142190FBF1F02D490880084608
:101CF00000882F49086000231A464FF081414FF4B5
:101D00008040FEF763FF00202A490860072140F267
:101D1000EF20FFF729FB0020274908600121274811
:101D2000FFF778FB01212648FFF75CF800BF254844
:101D300000780028FBD000202249087001211F48AC
:101D4000FFF768FB01211E48FFF74CF800BF1D4854
:101D500000780028FBD0FFF77DF91B490860084692
:101D60000068FEF7DBFC06460022184BFEF76DFB11
:101D700004460022164BFEF7DAFB8046FEF712FD02
:101D800014490860084601681348FEF747FA1149EC
:101D9000086000200B490870BDE8FE8300401C4825
:101DA0004A00002024210020640000200000C843D5
:101DB0006800002018000020900000200800024069
:101DC000002401401C000020A80000200000F03F7B
:101DD00000F07E40A00000200080F7430146002074
:101DE000034A506820F440400843506070470000A8
:101DF0000010024029B1064A52690243044B5A615D
:101E000004E0034A52698243014B5A617047000063
:101E10000010024029B1064AD2690243044BDA613C
:101E200004E0034AD2698243014BDA617047000043
:101E30000010024029B1064A12690243044B1A619C
:101E400004E0034A12698243014B1A6170470000A3
:101E50000010024029B1064A92690243044B9A617C
:101E600004E0034A92698243014B9A617047000083
:101E70000010024029B1064AD2680243044BDA60DE
:101E800004E0034AD2688243014BDA6070470000E5
:101E90000010024030B500210022002400232D4D07
:101EA0006D6805F00C0121B1042905D0082923D162
:101EB00005E0294D056022E0274D05601FE0254D16
:101EC0006D6805F47012234D6D6805F480340225A9
:101ED00005EB92421CB9214D554305600BE01D4DA9
:101EE0006D6805F400351DB11C4D5543056002E0D9
:101EF000194D5543056002E0174D056000BF00BF56
:101F0000144D6D6805F0F0010909154D6B5C05680D
:101F1000DD4045600F4D6D6805F4E061090A104D24
:101F20006B5C4568DD4085600A4D6D6805F4605165
:101F3000C90A0B4D6B5C4568DD40C560054D6D6899
:101F400005F44041890B074D6B5CC568B5FBF3F5A3
:101F5000056130BD0010024000127A0000093D000A
:101F60001F0000202F0000202DE9F04F87B09E4871
:101F7000007801287ED19DA000F0F6FF02F0F6F86F
:101F800000F01EFE9D499E480068FEF731FC2DD8EA
:101F90009C480068FEF7C2FBCDE90401994801683E
:101FA0009948FEF735F981469849FEF737F980469A
:101FB000FEF7B4FB06460F4695480068FEF7AEFBF9
:101FC00080460022934BFEF740FA32463B46CDE96D
:101FD0000201FEF73AFA0446DDE90423FEF7A7FA08
:101FE0008246FEF782FB8C4908602CE08B48006833
:101FF000FEF794FB06460F46884801688248FEF7C4
:1020000007F981468649FEF709F98046FEF786FB07
:10201000CDE9020183480068FEF780FB804600227C
:102020007C4BFEF712FA8246DDE90223FEF70DFA39
:1020300032463B46CDE90401FEF779FA0446FEF745
:1020400054FB754908607848006840F6E4418842CE
:1020500003D34FF47A707049086074480088FEF723
:10206000EBFA8046894672480088FEF7E5FA0022BE
:10207000684B00E06AE0CDE90001FEF7E6F9824630
:1020800042464B46FEF753FA06460022614BFEF7E6
:10209000D6F904460022674BFEF7D7F94FF06632B7
:1020A000654BCDE90201FEF7D0F9CDE90401FEF759
:1020B0001CFB62490860534801685348FEF7A8F8C2
:1020C00081465B480088FEF7A1FA82464946FEF742
:1020D000D7F80446FEF722FB074600224D4BFEF7D9
:1020E000B4F90546FEF701FB55490860084600684B
:1020F000FEF7A2FA804602F009FB06460022514B89
:10210000FEF7A3F90446FEF7F0FA4D49086001F026
:10211000CDFC40214C48FFF792FC02F0A3FC3E4866
:102120004AA102684AA000F0FBFC44484CA10268A6
:1021300047A000F0F5FC42484AA1026844A000F024
:10214000EFFC49A000F010FF00F03AFD26480078AF
:10215000022824D148A000F007FF4BA000F0E0FCCB
:1021600010213948FFF769FC20213748FFF765FC4B
:102170000A20FFF799F94649002000F031F945A0FF
:1021800000F0F2FE4BA000F0CBFC01E000F018FDE7
:10219000154800780228F9D048A000F0E5FE124862
:1021A000007803281DD149A000F0DEFE102126484A
:1021B000FFF745FC20212448FFF73FFC0A20FFF7EA
:1021C00073F907E001F008FD0690069801F0A8FEFB
:1021D00000F0F6FC044800780328F3D03FA000F09C
:1021E000C3FE07B0BDE8F08F180100204D6F646595
:1021F0006C315F456E7472790D0A00000000164460
:102200009000002094000020000040410000FA44AB
:10221000AC0000200000F03F780000209800002073
:1022200000609F45B0000020700000204C0000209E
:102230004A00002000408F406666F23F7C0000208C
:1022400080000020000034400010014033000000F6
:102250007425732E7478743D2225752200000000C9
:1022600034000000360000004D6F64656C315F4F34
:102270007665720D0A0000004D6F64656C325F4533
:102280006E7472790D0A000074737720312C30005F
:1022900040420F0053776565705F66696E2E776107
:1022A0006974696E6720666F7220636F6E74726FF7
:1022B0006C0D0A0074737720312C31004D6F64650A
:1022C0006C325F4F7665720D0A0000004D6F6465D9
:1022D0006C335F456E7472790D0A00004D6F646552
:1022E0006C335F4F7665720D0A00000010B502F086
:1022F0008DFB10BD704710B500F002F810BD000056
:102300000CB50020019000903348006840F4803004
:102310003149086000BF3048006800F40030009088
:102320000198401C0190009818B90198B0F5A06F71
:10233000F1D12948006800F4003010B1012000906C
:1023400001E0002000900098012843D12348006854
:1023500040F01000214908600846006820F00300A2
:1023600008600846006840F0020008601A484068AB
:10237000194948600846406848600846406840F48B
:10238000806048600846406820F47C104860084639
:10239000406840F4E81048600846006840F08070EB
:1023A000086000BF0C48006800F000700028F9D0F9
:1023B0000948406820F00300074948600846406823
:1023C00040F00200486000BF0348406800F00C0085
:1023D0000828F9D10CBD0000001002400020024086
:1023E0002DE9F34F93B000BF00210C460D460020AD
:1023F0000646074688468946099008900790FEA041
:1024000000F0B2FD00200990D0E0BDF82400C828FB
:1024100006DCBDF824101398322202FB010006905E
:10242000BDF82400C82812DDBDF82400B0F5C37F34
:102430000DDCBDF82400C83880B20890BDF820003B
:1024400042F210714FF47A7202FB00100690BDF850
:102450002400B0F5C37F13DDBDF8240040F24E2107
:1024600088420DDCBDF82400A0F5C37080B208904E
:10247000BDF82000E4494FF47A6202FB0010069098
:102480000698FEF7C3F800231A46014605904FF45C
:102490008040FEF79BFBBDF82400142802DC64207A
:1024A000FFF702F8BDF82400142806DDBDF824006B
:1024B000C82802DC3220FEF7F7FFBDF82400C82848
:1024C00007DDBDF82400B0F5C37F02DC3220FEF743
:1024D000EBFFBDF82400B0F5C37F08DDBDF8240094
:1024E00040F24E21884202DC1E20FEF7DDFFFEF79F
:1024F0007BFEC6484088C649BDF8242021F812005A
:10250000BDF8242031F81200FEF796F80022C14BE6
:10251000CDE90001FDF799FF0022BF4BCDE9020193
:10252000FEF705F8CDE90401FEF7C0F880B20D9082
:10253000BAA00D9900F0F4FABBA00D9900F014FDBB
:10254000B349BDF8242031F81200FEF775F8424671
:102550004B46CDE90401FEF70DF922D2AC49BDF896
:10256000242031F81200FEF767F842464B46CDE9C9
:102570000201FDF764FF0022AC4BCDE90401FEF738
:10258000F9F80ED2A249BDF8242031F81200FEF766
:1025900053F880468946BDF82400FEF74DF8824680
:1025A0008B46BDF82400401C80B20990BDF8240081
:1025B000B0F5EC7F7FF729AF00231A469C494FF412
:1025C0008040FEF703FB42464B469A489A49FDF786
:1025D0003CFFCDE90A0199A000F0C6FC50465946DF
:1025E000FEF783F880B2099028E0BDF82410891E18
:1025F000874A32F81100FEF71FF8CDE90401DDE942
:102600000A23FEF7B7F814D28149BDF8242031F827
:102610001200FEF711F8CDE90401DDE90A23FEF707
:1026200091F806D8BDF82400FEF706F804460D46DA
:1026300009E0BDF82400401C80B20990BDF82400D8
:10264000B0F5EC7FD1DD00BF80A000F08DFC002054
:1026500009901EE082480078022800D024E06C49EE
:10266000BDF8242031F81200FDF7E6FFCDE90401A2
:10267000DDE90A23FEF766F806D8BDF82400FDF769
:10268000DBFF06460F460FE0BDF82400401C80B279
:102690000990BDF82400FDF7CFFF52465B46CDE917
:1026A0000401FEF74FF8D5D300BF00226D4B204642
:1026B0002946FEF747F80DD822462B4600206A49E6
:1026C000FDF7C3FE00221346CDE90401FDF716FE17
:1026D00004460D460022634B20462946FEF74AF881
:1026E0001AD20022614B20462946FEF72BF813D858
:1026F00000225C4B20462946FDF7A1FE00225C4BE0
:10270000CDE90201FDF7A1FE00225A4BCDE90401FB
:10271000FDF7F4FD04460D460022544B20462946A1
:10272000FEF728F81AD20022534B20462946FEF71E
:1027300009F813D800224D4B20462946FDF77FFEAD
:1027400000224E4BCDE90201FDF77FFE00224C4BEB
:10275000CDE90401FDF7D2FD04460D460022414BB0
:1027600030463946FDF7EEFF0DD832463B46002095
:102770003D49FDF76AFE00221346CDE90401FDF74D
:10278000BDFD06460F460022364B30463946FDF762
:10279000F1FF1AD20022354B30463946FDF7D2FF01
:1027A00013D800222F4B30463946FDF748FE002251
:1027B0002F4BCDE90201FDF748FE00222D4BCDE95C
:1027C0000401FDF79BFD06460F460022274B3046CD
:1027D0003946FDF7CFFF61D20022274B30463946FC
:1027E000FDF7B0FF5AD80022204B30463946FDF79E
:1027F00026FE0022214B45E03150726F63657373F2
:10280000696E673E0D0A000030E6020024210020B8
:10281000EC4900200000F03F000028406164642083
:1028200073302E69642C302C2564000000001440A5
:1028300000007A4439B4C876BE9FE63F3250726FCA
:1028400063657373696E673E3E0D0A003350726FA5
:1028500063657373696E673E3E3E0D0A00000000BB
:1028600018010020000069400000494000607840E5
:1028700000408F400088C340007082400040AF405D
:10288000006A0841CDE90201FDF7DFFD00223E4B61
:10289000CDE90401FDF732FD06460F4642464B46A0
:1028A00000203A49FDF7D1FD0022394BCDE9040162
:1028B000FDF73DFECDE910010022364BDDE91001A8
:1028C000FDF71CFDCDE90401FDF70FFF324908704B
:1028D00008460078FDF7B0FECDE9020101F016FFD1
:1028E00000222E4BCDE90401FDF7AFFDCDE90E012D
:1028F000DDE90E01FDF7DAFE2949086000231A46DA
:1029000028494FF48040FEF761F90022264B20460B
:102910002946FDF72FFF0FD222462B464FF0663097
:102920002249FDF792FD0022214BCDE90401FDF77C
:10293000FEFD04460D460DE022462B4600201D49B3
:10294000FDF783FD00221A4BCDE90401FDF7EFFDF1
:1029500004460D4622462B4617A000F0E1F8324609
:102960003B4600200949FDF770FD0022104BCDE9E0
:102970000401FDF7DCFD06460F46124830C0124A3E
:10298000C0C215B0BDE8F08F006A08410000F03FFA
:10299000000028400000244039000020000034409E
:1029A0003C00002000007A4400BDFF406666F23F14
:1029B00000408F400000F83F6E302E76616C3D2560
:1029C00064000000B8000020C00000207047000034
:1029D00010B51348006840F001001149086008462E
:1029E0004068104908400E494860084600680E4992
:1029F00008400B4908600846006820F48020086001
:102A00000846406820F4FE0048604FF41F008860CC
:102A1000FFF771FC4FF000600449086010BD000032
:102A2000001002400000FFF8FFFFF6FE08ED00E096
:102A300021B1028842F00102028004E002884FF6D0
:102A4000FE731A400280704701894FF6F8721140F8
:102A50000181704782884FF68F731A408280828886
:102A60000A43828070470000002202881D4B984272
:102A70000ED01D4B98420BD0B0F1804F08D01B4BAD
:102A8000984205D01A4B984202D01A4B984204D172
:102A90004FF68F731A404B881A43174B984207D052
:102AA000164B984204D04FF6FF431A40CB881A4386
:102AB00002808B8883850B8803850A4B98420BD054
:102AC000094B984208D00E4B984205D00D4B9842C6
:102AD00002D00D4B984201D10B7A038601238382E9
:102AE00070470000002C0140003401400004004009
:102AF00000080040000C004000100040001400409E
:102B00000040014000440140004801404FF6FF7181
:102B1000818000210180C1804180017270470000E6
:102B20000FB4F0B59BB0FF2721A80090652101A844
:102B3000009B209A00F028FA0446002000902646C8
:102B4000652C01DB642605E0002C03DA1BB0F0BC29
:102B50005DF814FB00250CE001A8415D174800F06A
:102B6000F0F900BF8021154800F01EF90028F9D0C7
:102B70006D1CB542F0DB3946104800F0E2F900BFA9
:102B800080210E4800F010F90028F9D039460B4892
:102B900000F0D7F900BF8021084800F005F90028AF
:102BA000F9D03946054800F0CCF900BF8021034830
:102BB00000F0FAF80028F9D000BFC7E70044004051
:102BC00000B543E001F0CCFA06283BDB002001F021
:102BD0002BFF5A2836D1012001F026FF712831D170
:102BE000032001F021FFFF282CD1042001F01CFF5D
:102BF000FF2827D1052001F017FFFF2822D102204E
:102C000001F012FF18B900201349087016E00220E5
:102C100001F00AFF012802D10F4908700EE00220DE
:102C200001F002FF022802D10B49087006E00220E1
:102C300001F0FAFE032801D107490870062001F0CF
:102C400047F903E0012001F043F903E001F088FABD
:102C50000628B7DA00BF00BD1801002010B540F209
:102C60002551094800F0ADF801280CD1064800F0C4
:102C700063F90649088001200549088040F2255182
:102C8000014800F028F810BD003801400000002085
:102C90000200002010B540F22551094800F091F8DB
:102CA00001280BD1064800F047F9C4B2204602F0D3
:102CB00075F840F22551024800F00DF810BD0000F3
:102CC0000044004001F40072B2F5007F00D100BF63
:102CD000CA430280704710B50022002340F66A14F0
:102CE000A14200D100BF0A1201249440A3B2DC43E8
:102CF000048010BD21B1828942F40052828104E037
:102D000082894DF6FF731A408281704710B50446E0
:102D10002048844209D101218803FFF7ABF8002144
:102D20004FF48040FFF7A6F832E01B48844209D1F7
:102D300001214804FFF77EF800214FF40030FFF72F
:102D400079F825E01548844209D101218804FFF76C
:102D500071F800214FF48020FFF76CF818E010485C
:102D6000844209D10121C804FFF764F800214FF41F
:102D70000020FFF75FF80BE00A48844208D10121E8
:102D80000805FFF757F800214FF48010FFF752F8BD
:102D900010BD0000003801400044004000480040E1
:102DA000004C00400050004002460020B1F5007F7A
:102DB00000D100BF13880B400BB1012000E00020C0
:102DC000704770B50246002400230025002040F61D
:102DD0006A16B14200D100BFC1F3421501F01F03D2
:102DE000012606FA03F3012D02D19689334006E04D
:102DF000022D02D1168A334001E0968A33400C122C
:102E0000012606FA04F41688344013B10CB10120EF
:102E100000E0002070BDF0B5034600240026002528
:102E2000002040F66A17B94200D100BF1846C1F32E
:102E3000421401F01F06012707FA06F5012C01D103
:102E40000C3004E0022C01D1103000E014301AB133
:102E500007682F43076002E00768AF430760F0BDD3
:102E60002DE9F04786B005460E460024A24600BF75
:102E7000A1460027B08900B100BF2F462C8A4CF62E
:102E8000FF700440F08804432C82AC894EF6F310A6
:102E90000440B08831890843718908430443AC81F8
:102EA000AC8A4FF6FF400440B0890443AC8201A8CD
:102EB000FEF7F0FF1F48874202D1DDF810A001E0C5
:102EC000DDF80CA0A88900F4004040B10AEBCA006C
:102ED00000EB0A1031684900B0FBF1F807E00AEB9B
:102EE000CA0000EB0A1031688900B0FBF1F86420D9
:102EF000B8FBF0F004012009642101FB1089A889C6
:102F000000F4004040B1322000EBC900B0FBF1F00A
:102F100000F00700044308E0322000EB09106421B0
:102F2000B0FBF1F000F00F0004432C8106B0BDE8C7
:102F3000F08700000038014001468888C0F308008F
:102F40007047C1F30802828070474FF41651016048
:102F500000218180C18001810C214181002181817A
:102F6000704700BFFEE700000FB4054B10B503A982
:102F7000044A029800F060F910BC5DF814FB0000F0
:102F80003D4100081C0100207CB50C001D46164682
:102F9000014601D0601E00E00020CDE90010064B84
:102FA0006A462946304600F047F9002C02D0009AC4
:102FB000002111707CBD00003F3900082DE9F0416F
:102FC0004F1E00EBC7010446D1E9000115461E461D
:102FD00037F006020DD02A463346FDF736FA7F1E3B
:102FE00004EBC703D3E90023FDF788F937F00602A5
:102FF000F1D1022F25D0042F13D0062F18BFBDE822
:10300000F0812A463346FDF720FAD4E90A23FDF77A
:1030100075F92A463346FDF718FAD4E90823FDF777
:103020006DF92A463346FDF710FAD4E90623FDF779
:1030300065F92A463346FDF708FAD4E90423FDF77B
:103040005DF92A463346FDF700FAD4E90223FDF77D
:1030500055F92A463346FDF7F8F9D4E90023BDE8CF
:10306000F041FDF74BB9000000221346104601491C
:10307000FDF75DBA0000F03F0122FDF7CFBC002252
:10308000134610461146FDF752BA02E008C8121F57
:1030900008C1002AFAD170477047002001E001C141
:1030A000121F002AFBD170470149086070470000D9
:1030B000200100202DE9FF5F82B00021DDE904300E
:1030C000020DDDF840B0034318D044F61050A2F2D0
:1030D000FF3242431514119801281FD0A5EB0B00B5
:1030E000401C5FEA000A4FF000064E4FDFF83891AF
:1030F000B046504615D5CAF1000413E011980124DA
:103100004AA3012801D16FEA0B010298119AC0E984
:103110000031C0E9024206B0BDE8F09FCBF10000EB
:10312000DFE704460021404A491842EB0450CDE94C
:10313000001012E0E00707D032463B4640464946C1
:10314000FDF783F98046894632463B4610461946CC
:10315000FDF77BF906460F466410002CEAD1DDE945
:103160000401DDE90023BAF1000F06DAFDF76DF97D
:1031700042464B46FDF769F905E0FDF7D8F94246AE
:103180004B46FDF7D4F904460E460022284BFDF7C6
:10319000F1FA03D84FF0FF30014607E00022254B3B
:1031A00020463146FDF7AAF8FDF74FFC102409E050
:1031B000002C0ADB0A220023FDF73AFB039B303286
:1031C0001A55641E50EA0102F2D1641C039AC4F13C
:1031D00011031444119A012A03D0012208430DD18E
:1031E0000AE0084304D000204FF0110B119072E761
:1031F000A3EB0B056D1E0DE05B4504DD4FF00002F7
:1032000005F1010504E003DA4FF00002A5F1010524
:10321000002AECD002981199C0E90231C0E90045BA
:1032200079E70000000014400000F03F300000008B
:103230000000F0430000E03F2DE9FF4F95B09A46B3
:10324000884606460025EEE1252877D1002427464A
:10325000F94A0121039400E0044316F8013F203BA2
:1032600001FA03F01042F7D130782A2811D06FF01C
:103270002F033078A0F13002092A16D8039A44F0BF
:10328000020402EB820203EB42021044761C03901C
:10329000EFE758F8042B0392002A03DA504244F473
:1032A0000054039044F00204761C30782E2816D186
:1032B00016F8010F44F004042A280DD06FF02F02F5
:1032C0003078A0F13003092B09D807EB870302EB14
:1032D0004303C718761CF3E758F8047B761C307854
:1032E0006C280FD006DC4C2817D068280DD06A282F
:1032F00014D104E0742810D07A280FD10DE044F4E2
:1033000000140AE044F4801401E044F4401472789C
:10331000824202D104F58014761C761C307866282F
:103320000BD013DC582877D009DC002875D045284D
:10333000F6D04628F4D047281AD193E118E0632844
:1033400035D0642879D0652812D18BE1702873D0EC
:1033500008DC6728F1D069286FD06E280DD06F285F
:1033600006D1ACE073282CD0752874D0782853D0BF
:103370005246179990476D1C54E1C4F3025002283D
:1033800009D003280DD0D8F8001004280DD00D6006
:1033900008F1040846E1D8F80010EA17C1E9005224
:1033A000F6E7D8F800100D80F2E70D70F0E718F896
:1033B000041B8DF8001000208DF80100EB46012061
:1033C00003E058F804BB4FF0FF3061074FF00001F5
:1033D00002D40DE009F101018946B9420FDA8145B5
:1033E000F8DB1BF809100029F4D108E009F101010C
:1033F00089468142FADB1BF809100029F6D10398AF
:103400005346A0EB090721463846179A00F080FA88
:10341000284400EB090507E044E008E10DE01BF853
:10342000010B524617999047B9F10109F7D253465B
:1034300021463846179AF2E039E00A21C4F30252D5
:103440004FF0000B0091022A06D058F8040BC11768
:10345000032A09D00AE023E008F1070020F0070260
:10346000F2E80201904605E000B2C117042A01D13A
:1034700040B2C117002906DA0A460021404261EB3A
:1034800002012D2202E0220504D52B228DF8042012
:10349000012203E0E20701D02022F7E7914657E03E
:1034A0000A2100E010214FF0000B00910BE01021E9
:1034B0004FF0000B44F004040827009103E00820BB
:1034C0004FF0000B0090C4F30252022A05D058F8C6
:1034D000040B0021032A08D008E008F1070020F0BF
:1034E0000702F2E80201904603E080B2042A00D10C
:1034F000C0B24FF0000922072AD53278702A07D0CF
:10350000DDF800C08CF0100C5CEA0B0C05D00EE06E
:1035100040228DF80420012208E050EA010306D081
:1035200030238DF804308DF8052002229146009B4F
:1035300083F0080353EA0B030AD150EA010201D1D8
:10354000620705D530228DF804204FF001097F1E57
:103550003278582A04D039A20C920CAA02920BE0BD
:103560003BA2F9E75B46009AFDF762F90C9B9B5C76
:10357000029A521E0292137050EA0102F2D102988E
:1035800004A9081A00F1200B600702D524F4803446
:1035900000E001275F4502DDA7EB0B0000E0002003
:1035A00000EB0B01009003984944401A0390E0039C
:1035B00006D453462146179A039800F0A9F905440A
:1035C000002706E001A85246C05D179990476D1C80
:1035D0007F1C4F45F6DBE0030CD553462146179A76
:1035E000039800F095F9054404E0302052461799FD
:1035F00090476D1C0099481E00900029F5DC08E0FA
:103600000298029952460078491C029117999047F6
:103610006D1CBBF10001ABF1010BF1DC5BE100F0D3
:1036200065F90544761C307800287FF40DAE19B09A
:103630002846BDE8F08F0000092801003031323300
:1036400034353637383961626364656600000000DE
:1036500030313233343536373839414243444546C8
:1036600000000000600700D4062708F1070020F0E2
:103670000700F0E80223804603F0004C5FEA0C00EC
:1036800001D097A009E0200501D596A005E0E0074C
:1036900001D095A001E0AFF24C001390307823F0F8
:1036A000004365280CD006DC452809D046281DD0EB
:1036B00047287FD13BE0662818D067287AD136E0CA
:1036C0000021112F01DB112000E0781CCDE9000161
:1036D00004A90CA8FFF7EEFCDDE90D010C9A4FF0F0
:1036E000000B07F10109109200914EE04FF00040ED
:1036F0000097CDE9011004A90CA8FFF7DBFCDDE978
:103700000D020C9B0F994FF0000B91461093009205
:1037100011B9791C00EB0109B7EB090003D4C0F122
:10372000FF3B07F10109A9EB0700019042E0012FDF
:1037300000DA01270021112F01DD112000E03846B9
:10374000CDE9000104A90CA8FFF7B4FCDDE90D01E7
:103750000C9A00914FF0000BB946109221070FD43C
:10376000009A4A4503DA914601E0A9F10109B9F14D
:10377000010F05DD109AA9F10101515C3029F4D047
:10378000B84202DA10F1040F03DA0121CDE9011089
:1037900010E0002803DC8344A9EB000102E0411C97
:1037A000494500DD8946A0EB0B00401C01904FF01D
:1037B00000400290200705D40198484502DB4FF0F5
:1037C000FF30019000208DF84B0002980DF14B075F
:1037D000B0F1004F25D002200C902B200D900298C4
:1037E00000280CDA404202902D200D9007E00A21BB
:1037F0000298FDF707F83031029007F8011D0C9987
:10380000481E0C900029F2DC02980028EFD1791EA6
:103810000D980870307800F0200040F0450007F85F
:10382000020D11A8C01BC01D02901398007800B1B2
:10383000012000EB0901019801EBE07102980144BD
:103840000398401A401E0390E00306D453462146D5
:10385000179A039800F05CF805441398007818B1A3
:103860005246179990476D1CE00323D553462146D5
:10387000179A039800F04CF805441BE0BBF1000FC9
:1038800007DB0098584504DD1098179910F80B00D5
:1038900001E0179930205246904701980BF1010B37
:1038A000401E05F10105019004D12E2052461799C2
:1038B00090476D1CB9F10001A9F10109DEDC05E0BA
:1038C00017F8010B5246179990476D1C0299481E34
:1038D00002900029F4DC53462146179A03989EE68D
:1038E0002D0000002B000000200000002DE9F04119
:1038F000044600251E461746880404D405E03946D0
:103900002020B0476D1C641EF9D52846BDE8F08123
:103910002DE9F041044600251E469046C80301D516
:10392000302700E02027880404D505E041463846CA
:10393000B0476D1C641EF9D52846BDE8F0814A6881
:10394000002A06D00A68531C0B6010704868401E9D
:103950004860704710B5434943480068FCF748FF8A
:1039600002D242484249086042493F480068FCF799
:103970003FFF08D83B493C480068FCF72FFF02D2C4
:103980003D483B4908603D4937480068FCF730FF37
:1039900008D8384934480068FCF720FF02D238487C
:1039A00033490860374930480068FCF721FF08D8E0
:1039B00032492D480068FCF711FF02D232482C49E9
:1039C0000860324928480068FCF712FF08D82D49E2
:1039D00025480068FCF702FF02D22D482449086000
:1039E0002A4921480068FCF7F9FE39D2002029490C
:1039F000086010212848FEF720F820212648FEF70D
:103A00001EF8C820FDF750FD01216420FDF7ACFC35
:103A100001212248FDF7FEFC01212148FDF7E2F9D2
:103A200000BF204800780028FBD000201D49087006
:103A300001211A48FDF7EEFC01211948FDF7D2F9E2
:103A400000BF184800780028FBD0FDF703FB1149A0
:103A500008600020134908704FF07E50124908603A
:103A600010BD000000404445900000206666263FDF
:103A7000AC0000200000FA449A99593F00007A44B3
:103A80007B146E3F00003E443333733F0000164406
:103A9000C3F5883F8C000020001001400800024060
:103AA000002401401C000020B00000202DE9F04758
:103AB0003F480088642879DA10213E48FDF7BFFFAF
:103AC00020213C48FDF7BBFF40213A48FDF7B7FFF6
:103AD0004FF49670FDF7E8FC00203749088037491D
:103AE00008800DE0FDF7D8FB354840883249098849
:103AF00008443149088031480088401C2F4908801B
:103B00002E4800881428EDDB2B480088142190FBF8
:103B1000F1F029490880084600882A4908600846CB
:103B20000068FCF789FD06460022274BFCF78DFC58
:103B300004460022254BFCF7FAFC8046FCF7D5FD35
:103B40002349086008460068FCF776FD804600F0CF
:103B5000DDFD064600221F4BFCF777FC0446FCF710
:103B6000C4FD1B49086010211248FDF768FF2021A1
:103B70001048FDF762FF1420FDF796FC144800681A
:103B8000012802D001201249086011480068FCF7A2
:103B900053FD804600F0BAFD064600220D4BFCF7AF
:103BA00054FC0446FCF7A1FD09490860BDE8F08714
:103BB0004A000020001001404E000020400000207C
:103BC00024210020840000200000F03F0000F83F86
:103BD000800000200000344010B500F007F80446D3
:103BE0000CB1204610BD0020FCE700002DE9F84F85
:103BF0004FF0000B00219048904AC2E90010904815
:103C00009049914A03C240219048FDF718FF1E20B9
:103C1000FDF74AFC00231A468D494FF48040FCF71B
:103C2000D5FF0520FDF740FC01216420FDF79CFB3A
:103C30000020009001218748FDF7ECFB0121864818
:103C4000FDF7D0F800BF854800780028FBD0FDF7CD
:103C500001FA0446FCF716FD80B2009000207F496F
:103C600008700098FCF7E8FC804600227C4BFCF7CB
:103C7000ECFB064600227B4BFCF759FC0446FCF7A4
:103C800091FD79490860084601687848FCF7C6FA52
:103C90007749086008460068764908600020764940
:103CA000086082460CE0FDF7F7FA744840887249D4
:103CB00009680844704908600AF1010000F0FF0A31
:103CC000BAF1140FEFDB6C4800681421B0FBF1F07F
:103CD00069490860084600680860634801686848E8
:103CE000FCF796FA054664480068FCF78FFC064628
:103CF0002946FCF7C5FA0446FCF7C4FC6149086094
:103D000000206149086082460CE0FCF7E3FF5B4855
:103D100080885D49096808445B4908600AF1010030
:103D200000F0FF0ABAF1140FEFDB574800681421C6
:103D3000B0FBF1F05449086008460068FCF77CFCD1
:103D40000646524A524BFCF780FB0446FCF7CDFC7A
:103D50004D490860084601684EA0FEF7E1FE46485E
:103D600001684FA0FEF7DCFE464801684FA0FEF751
:103D7000D7FE3F480068FCF76CFC044621464EA085
:103D8000FEF7CEFE40480068342802D84FF0070BFB
:103D90004FE04C48006864383B49096888420AD8BB
:103DA00039480168474800686430814203D8FDF70C
:103DB0009FFB83463DE03448006840F6E531884289
:103DC00009D34048006864382F490968884202D9FD
:103DD0004FF0040B2DE02C480068B0F52A5F08D99D
:103DE0002948006842F6A151884202D24FF0010BE7
:103DF0001FE02548006834280CD923480068FCF7E8
:103E00001BFC0446304A314BFCF79CFC02D84FF0B7
:103E1000060B0EE01C48006843F28911884208D85E
:103E20001948006842F6A151884202D3FDF726FCEA
:103E300083465846BDE8F88F00C06240B8000020B5
:103E4000E17A14AE47E1DA3FC000002000100140E3
:103E500000007A4408000240002401401C000020B9
:103E60000000F03F00F07E40100100200080F7438A
:103E70000C01002014010020F80000202421002063
:103E80000000404104010020FC00002048E17A14B9
:103E9000AE4712406E312E76616C3D256400000005
:103EA0006E332E76616C3D25640000006E342E76F4
:103EB000616C3D25640000006E322E76616C3D25FC
:103EC0006400000050000020B3C9269B6CD69C40C3
:103ED00010B5024611488088904202DC00F060FA7A
:103EE00010BD002315E00D48808810B900F058FA85
:103EF000F6E70A480088401C4FF4FA7190FBF1F491
:103F000001FB14000549088008468088401E88800F
:103F10005B1C9342E7DB00BFE2E70000225E00206B
:103F200010B504460F2C4FD2DFE804F04E080D12F6
:103F3000171C21262B30353A3F44490026A127A0E3
:103F4000FEF7EEFD45E024A12AA0FEF7E9FD40E0E2
:103F500021A12EA0FEF7E4FD3BE01FA131A0FEF75A
:103F6000DFFD36E01CA135A0FEF7DAFD31E01AA135
:103F700038A0FEF7D5FD2CE017A13CA0FEF7D0FD40
:103F800027E015A13FA0FEF7CBFD22E012A143A040
:103F9000FEF7C6FD1DE010A146A0FEF7C1FD18E02A
:103FA0000DA14AA0FEF7BCFD13E00BA14DA0FEF74A
:103FB000B7FD0EE008A151A0FEF7B2FD09E006A191
:103FC00054A0FEF7ADFD04E003A158A0FEF7A8FD44
:103FD00000BF00BF10BD0000330000007425732E29
:103FE0007478743D2252312069732073686F727443
:103FF000220000007425732E7478743D2252322002
:1040000069732073686F7274220000007425732E28
:104010007478743D225231206973206F70656E226E
:10402000000000007425732E7478743D22523220F3
:104030006973206F70656E22000000007425732E76
:104040007478743D2252332069732073686F7274E0
:10405000220000007425732E7478743D22523320A0
:104060006973206F70656E22000000007425732E46
:104070007478743D2252342069732073686F7274AF
:10408000220000007425732E7478743D225234206F
:104090006973206F70656E22000000007425732E16
:1040A0007478743D224331206973206F70656E22ED
:1040B000000000007425732E7478743D2243322072
:1040C0006973206F70656E22000000007425732EE6
:1040D0007478743D224333206973206F70656E22BB
:1040E000000000007425732E7478743D2243312043
:1040F000697320646F75626C652200007425732EED
:104100007478743D22433220697320646F75626C49
:10411000652200007425732E7478743D2243332089
:10412000697320646F75626C652200007425732EBC
:104130007478743D224F4B220000000070B5044695
:104140000D46E1B20548FEF7FCFE00BF80210348A2
:10415000FEF72AFE0028F9D0204670BD0038014045
:104160000148808870470000225E00202DE9F0475A
:1041700010217548FDF763FC20217348FDF75DFCB5
:104180004FF47A70FDF790F900231A466F494FF407
:104190008040FCF71BFD3220FDF786F901216420E9
:1041A000FDF7E2F800206A49086001216948FDF73F
:1041B00031F901216848FCF715FE00BF6748007817
:1041C0000028FBD000206549087001216148FDF7F7
:1041D00021F901216048FCF705FE00BF5F48007827
:1041E0000028FBD0FCF736FF5949086000205B49E6
:1041F0000870FFF7AFFB5A480068FCF78FFA80465B
:104200000022584BFCF721F906460022564BFCF7DA
:104210008EF90446FCF7C6FA544908604C48006819
:10422000FCF77CFA064600224E4BFCF70EF90446DA
:1042300000224D4BFCF77BF98046FCF7B3FA4C4962
:104240000860084601684B48FBF7E8FF0446FCF7A6
:1042500019FA4949086000204849088048490880FF
:104260000DE0FDF719F8474840884449098808449B
:104270004249088042480088401C41490880404823
:1042800000881428EDDB3D480088142190FBF1F0F4
:104290003A490880084600883B49086000203B49AD
:1042A0000860374908800DE0FCF714FD3548808828
:1042B0003649096808443549086031480088401C7F
:1042C0002F4908802E4800881428EDDB2F4800680D
:1042D0001421B0FBF1F02D49086008460068FCF796
:1042E000ABF906462A4A2B4BFCF7AFF80446FCF71D
:1042F000FCF92949086040211348FDF79EFB142072
:10430000FDF7D2F80020254908801D4908800DE0FE
:10431000FCF7C2FF1B4840882049098808441F4910
:10432000088017480088401C1549088014480088F8
:104330001428EDDB19480088142190FBF1F017498F
:104340000880BDE8F08700000010014000007A44BA
:104350009000002008000240002401401C000020C2
:104360008C0000200000F03F00F07E40980000200C
:10437000940000200080F743700000204A000020D5
:10438000400000202421002058000020540000207C
:1043900048E17A14AE471240500000204C00002043
:1043A000002002490880488088807047225E0020F3
:1043B0002DE9F04DC84A002490B0914205DA21F071
:1043C0000043934201D805D120B110B0BDE8F04DB3
:1043D000FEF752BEB1F5801F1BDA53EA000209D086
:1043E000002911DA0120FEF75FFE10B0BDE8F04DA4
:1043F000FEF745BE0220FEF757FEFEF735FE10B071
:1044000081F00041BDE8F08D6FF035043622FCF7F5
:1044100005FB04EB2152C1F31308B049A2F2FF33AC
:10442000414401F4801282F07F6103EB225281F05B
:104430004051009241EA08010022A94BFBF7FFFF1F
:10444000044608F10200A74EC0F313000D467E4457
:10445000032867D2D6E900232046FCF773F91ED162
:104460000098002802BFD6E9000110B0BDE8F08D29
:10447000FCF7D1F807460C469B4A9C4BFBF7E5FF3F
:1044800006460D469A4A9B4B38462146FBF7DDFF10
:1044900010B032462B46BDE8F04DFBF72FBF4FF072
:1044A0005532954B20462946FBF7CFFF0022934B10
:1044B000FBF7C8FF06460F4622462B461046194614
:1044C000FBF7C3FF32463B46FBF7BFFF06460098AB
:1044D0000F46F0B1FCF79FF880468A46824A834B2C
:1044E000FBF7B3FF32463B46FBF7ACFF22462B46B9
:1044F000FBF7A5FF05460C467D4A7E4B40465146DC
:10450000FBF7A3FF10B02A462346BDE8F04DFBF7AA
:1045100096BF0B4610B0324620462946BDE8F04D06
:10452000FBF78DBF00224FF080432046FBF7E6FEED
:1045300002460B4620462946FBF7F9FF06460F4682
:104540000098FCF768F8CDE9040132463B46104676
:104550003946FBF77AFF0C9069480C9A4044019069
:1045600009910B461046FBF770FF824602466548EC
:104570008B46C8F151080B4608F5D728032178442B
:10458000FEF71CFD52465B46FBF75FFF0A905E4854
:104590000D9152465B4604217844FEF70FFD099BBE
:1045A0000C9AFBF752FF844601980D9B40EA0808DD
:1045B00060460A9AFBF7A2FE83460891B8F1000F05
:1045C0004EDD4FF0FF3220462946FCF727FA2246FF
:1045D0002B46FBF73AFF804600988A4660B3DDE938
:1045E0000401414A414BFBF730FF099100905A46C4
:1045F00040465146089BFBF781FE32463B46FBF79F
:1046000024FF099B009AFBF779FE42465346FBF7CD
:1046100019FF22462B46FBF712FF04460D46DDE943
:104620000401334A334BFBF710FF10B022462B46F0
:10463000BDE8F04DFBF703BF5A464046089BFBF729
:104640005DFE32463B46FBF700FF42465346FBF712
:10465000F9FE10B022462B46BDE8F04DFBF7F2BE46
:10466000009840B3DDE904011F4A204BFBF7EDFE43
:1046700080468A465A4620462946089BFBF7DFFEBD
:1046800032463B46FBF7E1FE42465346FBF7D7FE78
:1046900022462B46FBF7D3FE04460D46DDE9040116
:1046A000134A144BFBF7D1FE10B022462B46BDE84F
:1046B000F04DFBF7C4BE0B465A4620462946FBF791
:1046C000BEFE32463B46FBF7C0FE10B022462B46EC
:1046D000BDE8F04DFBF7B6BE0000F07F645F090057
:1046E0000000F03FD6090000763C7935EF39EA3D0D
:1046F0000000E0FE422EE63F5555D53F0000E03F6A
:1047000086EBF9FF6E0800006C0800002DE9F0410F
:10471000044630480025814205DA21F000428242F9
:1047200001D805D124B12046BDE8F041FEF7A4BC74
:10473000B1F5801F1BDA52EA040008D000290FDA15
:104740000120FEF7B1FCBDE8F041FEF798BC022065
:10475000FEF7AAFCFEF788FC81F00041BDE8F0817D
:104760006FF0350536222046FCF758F9044605EB74
:104770002150A0F2FF32D00F40F2FF331B1A0D463A
:1047800063F31F551044FBF746FF06460F462946C4
:104790002046FFF70DFE104A104BFBF756FE04466D
:1047A0000D460F4A0F4B30463946FBF74EFE224668
:1047B0002B46FBF7A3FD05460C460B4A0B4B304638
:1047C0003946FBF742FE2A462346BDE8F041FBF797
:1047D00095BD00000000F07F0EE526157BCBDB3F8A
:1047E000362BF111F3FE593D00609F501344D33F27
:1047F0006420FCF759FE4FF4E13000F001FA26A0E6
:10480000FEF7B2FB4FF4165000F062FAFFF7C8FD56
:104810004FF4165126A0FEF7A7FB0020FCF747F93E
:104820000120FCF744F9002211462C48FCF7FEF960
:10483000012200212948FCF7F9F90022284B29A080
:10484000FEF792FBFCF738FBFCF798FCFCF7D6FA76
:10485000FCF7A4FB30A0FEF787FBFDF73BF800F068
:10486000F5F84FF480613348FDF7E7F832A0FEF722
:104870007BFB41A0FEF754F942A0FEF775FB4CA06C
:10488000FEF772FB56A0FEF76FFB03E0FEF798F908
:10489000FDF76AFBFAE7000053797374656D2042F7
:1048A0006F6F74696E672E2E2E204F4B0D0A00001D
:1048B000484D49205541525420496E697469616CD4
:1048C000697A656420285553415254322C20426144
:1048D00075643A20256C75290D0A000000007A44A1
:1048E00000408F40414439383333204D6F64756C3C
:1048F000657320496E697469616C697A65642E20FC
:1049000044656661756C7420467265713A20252E87
:10491000316620487A0D0A00414443204D6F64758A
:104920006C657320496E697469616C697A65642E7F
:104930000D0A0000000C0140416E616C6F6720534E
:10494000776974636820436F6E74726F6C20475090
:10495000494F7320496E697469616C697A65642E88
:104960002044656661756C7420737461746520738E
:1049700065742E0D0A00000070616765206D616925
:104980006E000000496E697469616C20484D4920D1
:104990007061676520636F6D6D616E642073656E15
:1049A000742028706167652030292E0D0A000000F0
:1049B000496E697469616C697A6174696F6E2043CC
:1049C0006F6D706C6574652E20456E746572696ECE
:1049D00067204D61696E204C6F6F702E0D0A0000CC
:1049E0002D2D2D2D2D2D2D2D2D2D2D2D2D2D2D2DF7
:1049F0002D2D2D2D2D2D2D2D2D2D2D2D2D2D2D2DE7
:104A00002D2D2D2D2D2D2D2D0D0A000010B502213F
:104A10004FF4B470FCF7A8FCFCF7F0F9FCF74CFA83
:104A2000FCF7BCFA10BD000010B50146064800882E
:104A300008444FF4FA7390FBF3F403FB140082B2C2
:104A40000148801D805C10BD225E002010B5102141
:104A50000348FCF7F4FF20210148FCF7EEFF10BDEE
:104A6000001001402DE9F04700231A4654494FF445
:104A70008040FCF7ABF8002052490880524908807A
:104A80000DE0FCF709FC514840884E49098808446C
:104A90004C4908804C480088401C4B4908804A48D3
:104AA00000881428EDDB47480088142190FBF1F0C2
:104AB00044490880084600884549086000231A4692
:104AC00044494FF48040FCF781F800203D490880BC
:104AD0003D4908800DE0FCF7DFFB3C484088394940
:104AE000098808443749088037480088401C3649FF
:104AF0000880354800881428EDDB324800881421EE
:104B000090FBF1F02F490880084600883249086080
:104B100000231A464FF081414FF48040FCF756F8CD
:104B200000202E490860012142F21070FCF71CFCA5
:104B30004FF4FA70FCF7B8FC002029490860012105
:104B40002848FCF767FC01212748FCF74BF900BF18
:104B5000264800780028FBD0002024490870012155
:104B60002048FCF757FC01211F48FCF73BF900BF28
:104B70001E4800780028FBD0FCF76CFA1849086042
:104B800008460068FBF7CAFD06460022184BFBF7F3
:104B90005CFC04460022174BFBF7C9FC8046FBF780
:104BA00001FE15490860084601681448FBF736FB0A
:104BB0001149086000200D490870BDE8F087000029
:104BC0000000C8434A0000204000002024210020AB
:104BD0005C00002000401C486000002018000020FD
:104BE000A400002008000240002401401C00002016
:104BF0000000F03F00F07E409C0000200080F74362
:104C000010B586B00446012144F20500FDF722F9F3
:104C100005A8FCF716FF4FF40070ADF8140018203B
:104C20008DF8170003208DF8160005A92648FCF71B
:104C300067FE05A8FCF705FF4FF48060ADF814008F
:104C400004208DF8170005A91F48FCF759FE012123
:104C50008803FDF7FFF81D48FEF758F801A8FEF796
:104C600074F901940020ADF80800ADF80A00ADF821
:104C70000C000C20ADF80E000020ADF8100001A9CA
:104C80001248FEF7EDF820211048FEF71BF810211E
:104C90000E48FEF717F8012240F225510B48FEF7A7
:104CA000BAF801210948FEF725F825208DF8000003
:104CB00001208DF801008DF802008DF80300684690
:104CC000FCF77AFF06B010BD000801400038014033
:104CD00010B586B0044601210520FDF7BBF805A8F4
:104CE000FCF7AFFE0420ADF8140018208DF8170073
:104CF00003208DF8160005A92648FCF701FE05A83B
:104D0000FCF79FFE0820ADF8140004208DF8170072
:104D100005A92048FCF7F4FD01214804FDF77AF8C5
:104D20001D48FDF7F3FF01A8FEF70FF901940020DD
:104D3000ADF80800ADF80A00ADF80C000C20ADF895
:104D40000E000020ADF8100001A91348FEF788F806
:104D500020211148FDF7B6FF10210F48FDF7B2FFE3
:104D6000012240F225510C48FEF755F801210A486E
:104D7000FDF7C0FF26208DF8000000208DF801000F
:104D800001208DF802008DF803006846FCF714FF3F
:104D900006B010BD00080140004400400D4989885C
:104DA000B1F5FA7F00DB70470A494A88891D8854AB
:104DB000891F4988491C4FF4FA7291FBF2F302FBF8
:104DC0001311044A518011468988491C918000BF03
:104DD000E9E70000225E00203132333435363738BF
:104DE00039304142434445460300000000000000C2
:104DF00004FA97999999D93FAF788E1DC571CC3F28
:104E00009FC678D0099AC33F935555555555E53FF0
:104E1000599322942449D23FDE03CB966446C73F80
:104E200044523EDF12F1C23F0000000000000000CB
:104E3000504E000800000020240100008A300008C5
:104E4000744F000824010020FC6200009A30000822
:104E50000000000000000000000000000000000052
:104E60000000000000000000000000000000000042
:104E700000000001020304010203040607080902FE
:104E80000406080000000000000000000000000010
:104E90000000000000000000000000000000000012
:104EA0000000000000000000000000000000000002
:104EB00000000000000000000000000000000000F2
:104EC00000000000000000000000000000000000E2
:104ED00000000000000000000000000000000000D2
:104EE00000000000000000000000000000000000C2
:104EF0000000000000000000000000000000803FF3
:104F00000000803F000000000000000000000000E2
:104F10000000000000000000000000000000000091
:104F20000000000000000000000000000000000081
:104F30000000000000000000000000000000000071
:104F40000000000000000000000000000000000061
:104F50000000000000000000000000000000000051
:104F60000000000000000000000000000000000041
:044F7000000000003D
:0400000508000131BD
:00000001FF
