:020000040800F2
:1000000020640020490100086D1C0008A51B0008A1
:10001000691C00080D140008EF2F00080000000004
:10002000000000000000000000000000B9230008EC
:10003000F314000800000000F51C0008592A00080D
:100040006301000863010008630100086301000800
:100050006301000863010008D91800086301000863
:10006000630100086301000863010008111400081F
:1000700063010008630100086301000863010008D0
:1000800063010008630100086301000863010008C0
:10009000630100086301000863010008FD180008FF
:1000A00063010008630100086301000863010008A0
:1000B0006301000863010008630100086301000890
:1000C0006301000863010008630100086301000880
:1000D00063010008E92C0008212D000863010008D5
:1000E0006301000863010008630100086301000860
:1000F0006301000863010008630100086301000850
:10010000630100086301000863010008630100083F
:10011000630100086301000863010008630100082F
:10012000630100086301000863010008630100081F
:10013000DFF810D000F0A2FC004800471D4800087E
:10014000AFF300802064002006488047064800473F
:10015000FEE7FEE7FEE7FEE7FEE7FEE7FEE7FEE777
:10016000FEE7FEE75D2A000831010008F0B480EAEE
:100170000102D40F4200B2EB410F02D20246084600
:1001800011464A0042D0C30DDDB2C1F3C752AD1AC9
:10019000202D35DAC1F3160141F4000204B15242B8
:1001A000C5F1200602FA06F12A411044B3EBD05FF4
:1001B00023D0C4B1012DA0EBC35009DCF0BC4FF03B
:1001C000004202EAC352DBB200F5000000F09BBB24
:1001D000400000F1807000EBC350A0F1807040EA55
:1001E000D170490009E0490841EAC071A0EBC35051
:1001F00000F50000400800EBC350F0BC00F07ABBF3
:100200006142012202EB4101001BF6E7F0BC70479E
:1002100081F00041AAE780F00040A7E780EA0102F0
:1002200010B502F00043400022D04A001FD0010E5A
:1002300001EB1261C0F35600C2F3560240F4000015
:1002400042F40002A0FB022000047F39140400D015
:10025000401C50EA124001D44000491EC2B20C06B4
:1002600004EBD010401C4008802A02D003E000209C
:1002700010BD20F00100002900DA0020184310BD55
:1002800030B480EA010202F0004530F0004221F073
:10029000004013D090B1C30DD40DC2F31601C0F3CA
:1002A0001600E41A41F4000140F400027D3491424A
:1002B00001D3641C00E04900002C02DA30BC0020AD
:1002C00070474FF400000023914201D3891A034381
:1002D00040084FEA4101F7D151B1914202D14FF0AC
:1002E000004105E002D24FF0010101E06FF0010191
:1002F00003EBC450284430BC00F0FCBA2DE9FE4F9B
:10030000804681EA0300C00F0C46009021F00041B6
:1003100023F00045B8EB0200A94105D24046214632
:1003200090461C460B46024623F00040104347D03F
:10033000270DC7F30A00C3F30A510290401A019037
:1003400040286BDAC3F3130040F4801B00989246F8
:1003500020B10023D2EB030A63EB0B0B0198594643
:10036000C0F14002504600F094FA06460D46504651
:100370005946019A00F0ACFA10EB080061410024E4
:1003800087EA115284EAE7731A4340D0009A62B3B5
:10039000019A012A4FEA075215DC001B61EB0201AA
:1003A0004FF0004202EA0752CDE90042001C41F53D
:1003B000801132462B4600F0E3FA03B0BDE8F08F1F
:1003C00040462146F9E7001B61EB0201001C41F5A4
:1003D000801300185B412018A2F5001747EB0301BA
:1003E00040EAD570B6196D4111E06D084FEA360646
:1003F00045EAC0754FEA0752001B61EB0201001C81
:1004000041F5801149084FEA300000195141324648
:100410002B4603B0BDE8F04F00F0A3BA00980122CC
:1004200040000023D0EB020263EBE073009821460A
:100430004FEAE074B8EB000061EB0401E9E783F0F8
:1004400000435BE781F0004158E72DE9FE4F81EA68
:10045000030404F0004421F0004100944FF0000B2D
:1004600023F0004350EA01045ED052EA03045BD05B
:10047000C3F30A54C1F30A552C44A4F2F334019493
:10048000A0FB0254C1F3130141F48011C3F3130321
:1004900043F4801301FB024400FB034E840A970AD5
:1004A00044EA815447EA8357A4FB076802958D0A02
:1004B00005FB07854FEA932C04FB0C542705029D8E
:1004C0004FEA065847EA1637B5EB08056EEB070CFE
:1004D000870E920E47EA811742EA8312A7FB0201B8
:1004E000B6EB0B0164EB00042B0D43EA0C335E18F2
:1004F00044EB1C50DA465146E7FB0201C5F31304F6
:100500004FEA0B3343EA14534FEA0432019C43EAA7
:100510000603A4F10C040294009CCDE900B400F0A1
:100520002FFA03B0BDE8F08F00200146F9E72DE96E
:10053000F04D81EA030404F0004B21F0004514461D
:100540004FF0000A23F0004150EA050220D054EA9F
:1005500001021DD0C5F30A570246C5F31303C1F3C8
:100560001300C1F30A5640F4801543F48013A7EB3F
:100570000608101BD64608F2FD3873EB050002D3BF
:1005800008F1010801E092185B41B8F1000F03DAAD
:1005900000200146BDE8F08D00204FF48011064692
:1005A00084460EE0171B73EB050705D3121B63EBA4
:1005B000050306434CEA010C49084FEA3000921843
:1005C0005B4150EA0107EDD152EA030012D082EA02
:1005D000040083EA0501084305D0101BAB4106D295
:1005E0000122002306E000224FF0004302E06FF0FA
:1005F000010253101AEB06004CEB085110EB0A00F5
:1006000041EB0B01BDE8F04D00F0ABB996230022A1
:10061000114600F078B90EB5C10F80EAE0700844C9
:10062000CA07002140F233438DE80E000A460B460C
:1006300000F0A6F903B000BD0EB540F233410291BF
:100640000021CDE900110A460B4600F099F903B0EC
:1006500000BD00F0004220F00040C10DC0F31600C4
:1006600040F400007F2901DA00207047962903DC5E
:10067000C1F19601C84001E096398840002AF4D0C3
:100680004042704720F00040C10DC0F3160040F416
:1006900000007F2901DA00207047962903DCC1F1B0
:1006A0009601C840704796398840704770B5C1F3CD
:1006B0000A5201F000450024C1F3130140F2FF3358
:1006C00041F480119A4201DA002070BD40F23343B8
:1006D0009A42A2F2334203DC524200F0E9F800E011
:1006E00090402C43F1D0404270BDC1F30A5210B586
:1006F000C1F3130140F2FF3341F480119A4201DA51
:10070000002010BD40F233439A42A2F2334203DC90
:10071000524200F0CDF810BD904010BD00F00042F4
:1007200030F000400AD0C10D01F56071C0F3160031
:1007300042EA0151C20840071143704700200146B8
:100740007047000030B5041E71F1000404DB4FF067
:100750000044404264EB0101141E73F1000405DB08
:100760001C464FF00043524263EB04038B4208BF28
:10077000824230BD30B5041E71F1000404DB4FF03D
:100780000044404264EB0101141E73F1000405DBD8
:100790001C464FF00043524263EB0403994208BFEA
:1007A000904230BD01F0004330B421F0004150EAE6
:1007B000010206D00A0DA2F56072C1F31301002AEE
:1007C00002DC30BC00207047440F44EAC104C10081
:1007D000E01830BC00EBC25000F08CB8002801DB00
:1007E000C0F10040002901DBC1F1004181427047A6
:1007F000002801DBC0F10040002901DBC1F100410C
:100800008842704730B50B46014600202022012463
:1008100009E021FA02F59D4205D303FA02F5491BCE
:1008200004FA02F52844151EA2F10102F1DC30BDE4
:100830002DE9F05F0546002092469B468846064615
:10084000814640241BE0284641464746224600F0A8
:100850002FF853465A46C01A914110D311461846F4
:10086000224600F016F82D1A67EB01084F46224683
:100870000120002100F00DF817EB00094E41201E69
:10088000A4F10104DFDC484631462A464346BDE870
:10089000F09F202A04DB203A00FA02F10020704782
:1008A0009140C2F1200320FA03F3194390407047AE
:1008B000202A04DB203A21FA02F00021704721FAB5
:1008C00002F3D040C2F1200291400843194670471C
:1008D000202A06DBCB17203A41FA02F043EAE07304
:1008E00006E041FA02F3D040C2F1200291400843F1
:1008F000194670470029A8BF7047401C490008BF2F
:1009000020F00100704710B4B0FA80FC00FA0CF03F
:1009100050EA010404BF10BC704749B1CCF1200477
:1009200021FA04F411FA0CF118BF01212143084304
:10093000A3EB0C01CB1D4FEA00614FEA102042BF30
:10094000002010BC704700EBC35010440029A4BF26
:1009500010BC7047401C490008BF20F0010010BCCB
:10096000704710B5141E73F1000408DA401C41F101
:10097000000192185B411A4301D120F0010010BD23
:100980002DE9F04D92469B4611B1B1FA81F202E099
:10099000B0FA80F220329046FFF77BFF04460F4604
:1009A00040EA0A0041EA0B0153465A46084313D075
:1009B000114653EA010019D0C8F140025046FFF732
:1009C00077FF05460E46504659464246FFF761FFFF
:1009D000084305D0012004E020463946BDE8F08DEB
:1009E0000020054346EAE0762C4337430A98630526
:1009F000E40AA0EB08000022FD0A44EA47540A304A
:100A000002D500200146E9E7010510196941DDE939
:100A1000084500196941BDE8F04DA2E770B521F025
:100A2000004303430CD0C1F30A550024D5EB040561
:100A300064EB0403D617AD1AB34102DB0020014674
:100A400070BD201841EB025170BDC1F30A52C1F3D1
:100A5000130140F2FF3341F480119A4202DA002080
:100A60000146704740F233439A42A2F2334202DC1D
:100A70005242FFF71DBFFFF70CBF0000064C074DA9
:100A800006E0E06840F0010394E80700984710345E
:100A9000AC42F6D3FFF750FBC84C0008E84C000806
:100AA00010B504462146002000F0CCF810BD10B56A
:100AB0000446204600F0DCF821464FF4807000F038
:100AC000C1F8012000F016FD2046FFF7E9FF10BD38
:100AD0007CB504460B46002000900190002105E003
:100AE000481C205C0DF80100481CC1B29942F7DB9C
:100AF0003AB90120314E30600020314EC6F8A801CD
:100B00000BE0012A07D101202E4E306000202E4E2E
:100B1000C6F8880101E000207CBD00213FE00025EF
:100B200039E0DAB91DF8010000F0800020B10120A1
:100B3000224E361D306003E00020204E361D30600E
:100B400000201E4E30601DF801004006000E0DF81A
:100B5000010001201A4EC6F8AC011AE01DF8010090
:100B600000F0800020B10120164E361D306003E0F9
:100B70000020144E361D30600020124E30601DF8EB
:100B800001004006000E0DF8010001200E4EC6F8CF
:100B90008C01681CC5B2082DC3DB481CC1B2994248
:100BA000BDDB22B90120054E361F306003E0012075
:100BB000044E361F30601846AEE70000AC012342F9
:100BC000000023428C012442000024422DE9FF470B
:100BD00004460F4690469946254626463846FFF776
:100BE0009DFD104A104BCDE90001FFF72EFCCDE929
:100BF0000201FFF77AFD8246CAF38D300543CAF33E
:100C00000D00064348F40050494600F01BF84946E1
:100C1000304600F017F84946284600F013F8BDE8C2
:100C2000FF8700003A8C30E28E79254070B504468B
:100C30000D46164633462A4621464FF48040FFF7BC
:100C4000C5FF70BD3CB504460D46084903C9CDE952
:100C50000001200A8DF80100E0B28DF802002A465A
:100C600002216846FFF734FF3CBD00007C4C0008C1
:100C700038B5044614B1012C25D112E001214020E1
:100C800001F054F94FF4E050ADF8000003208DF866
:100C9000020010208DF8030069460C4800F08CFE1D
:100CA00012E00121080201F041F91C20ADF800001A
:100CB00003208DF8020010208DF8030069460448D7
:100CC00000F07AFE00E000BF00BF38BD0018014010
:100CD000002001402DE9F05F0027B84600261AE009
:100CE00000202F4921F8160001212E4800F052FB68
:100CF00000BF02212B4800F015F90028F9D002218D
:100D0000284800F06CF8274800F008F9244921F839
:100D10001600701CC6B2642EE2DB00251EE0002423
:100D200016E01F4830F814100246601C32F810001C
:100D300081420BDD104630F814800146601C31F80A
:100D4000100021F81400601C21F81080601C84B28F
:100D5000C5F16400A042E4DC681C85B2642DDEDBD2
:100D60000A2505E00E4830F815000744681C85B2D6
:100D70005A2DF7DB5020B7FBF0F73846FFF746FC5B
:100D800083460949FFF74AFA82460849FFF778FA8D
:100D90008146FFF777FC06498880BDE8F09F000098
:100DA00024490020003C014000404E4500F07F45B2
:100DB0002421002010B50446204600F033FA00BF7D
:100DC000204600F0B8F80028FAD1204600F0EDFAED
:100DD00000BF204600F098F80028FAD110BDCA43A1
:100DE0000260704721B1826842F00102826003E034
:100DF000826822F0010282607047000000B58DB069
:100E00000121084601F062F81D4803901D48029038
:100E1000001509908020079040000890002006905F
:100E20004FF400500B9000200C904FF48060059020
:100E30000020049020200A9002A9134800F03BFBF8
:100E40000121114800F00CFB012202210E4800F0A4
:100E500029FB4FF4A06000F043FF0B208DF8040045
:100E600001208DF807008DF8050000208DF80600A0
:100E700001A800F0FDFE022000F0E4FA0DB000BD74
:100E8000242900204C2401400800024021B182683E
:100E900042F48072826003E0826822F48072826091
:100EA000704721B1826842F48012826003E0826858
:100EB00022F480128260704708B50121042001F0FD
:100EC00035F80121102001F031F80220ADF80000C2
:100ED00000208DF8030003208DF8020069460848C1
:100EE00000F06AFD0C20ADF8000000208DF8030032
:100EF00003208DF802006946024800F05DFD08BD40
:100F00000008014000100140014600208A6802F0FC
:100F100004020AB1012000E0002070470146C86CBD
:100F200080B270470246002013680B400BB10120CD
:100F300000E000207047014600208A6802F00802A5
:100F40000AB1012000E000207047000030B50246E1
:100F50000020002350680F4C20400D790C6844EAB3
:100F600005242043506090680B4C2040D1E9025486
:100F70002C434D7944EA450420439060D06A20F424
:100F800070000C7C641EE4B2234340EA0350D0623C
:100F900030BD0000FFFEF0FFFDF7F1FF00B585B0AA
:100FA0000121480200F0C2FF4FF4004000F082FF30
:100FB00000208DF8050003904FF4002002900020DF
:100FC00000908DF8040001208DF810006946144847
:100FD000FFF7BCFF002301221146114800F096F8EC
:100FE00001210F48FFF752FF01210D48FFF7FAFEDC
:100FF0000B4800F017F900BF0948FFF79CFF0128D4
:10100000FAD0074800F0D1F900BF0548FFF77CFF90
:101010000128FAD001210248FFF743FF05B000BDC7
:101020000024014010B586B00446002001908DF8E0
:1010300008008DF809004FF4602003900020049010
:1010400003208DF8140001A92046FFF77FFF06B0AA
:1010500010BD00002DE9F84F4FF6FF750026002463
:1010600016E0264830F81400B04202DD234830F87C
:101070001460224830F814001E2807DD1F4830F89D
:101080001400A84202DA1D4830F81450601C84B2E3
:10109000B4F5406FE5DB3046FFF7B8FA1849009029
:1010A000FFF7BCF883461749FFF7EAF88246FFF7D7
:1010B000E9FA1FFA80F82846FFF7A8FA10490090CD
:1010C000FFF7ACF883460F49FFF7DAF88246FFF7DF
:1010D000D9FA1FFA80F9701B87B23846FFF796FAE3
:1010E00083460749FFF79AF882460649FFF7C8F892
:1010F0000549086008460068BDE8F88F24290020EB
:1011000000404E4500F07F4518000020F0B5044631
:101110000D4600200021092D11DDE068A5F10A0629
:1011200006EB4607072606FA07F18843A5F10A06EB
:1011300006EB460603FA06F10843E0600CE020697E
:1011400005EB4507072606FA07F1884305EB450638
:1011500003FA06F108432061072A0FDA606B561E76
:1011600006EB86071F2606FA07F18843561E06EB94
:10117000860605FA06F10843606322E00D2A0FDABD
:10118000206BD61F06EB86071F2606FA07F1884359
:10119000D61F06EB860605FA06F10843206310E029
:1011A000E06AA2F10D0606EB86071F2606FA07F194
:1011B0008843A2F10D0606EB860605FA06F1084300
:1011C000E062F0BD10B501214FF4044000F0AEFE26
:1011D0004FF4004000F06EFE1048FFF723FF00239D
:1011E00001220C210D48FFF791FF0D48FFF71AFF70
:1011F000002301220D210A48FFF788FF012108483A
:10120000FFF7F0FD0648FFF7D5FD01210348FFF782
:10121000E9FD0248FFF7CEFD10BD000000280140A7
:10122000003C0140816841F0080181607047000086
:101230002DE9F84F4FF48066002740F6FF7800252F
:10124000002419E00020214921F814000121204840
:1012500000F0A0F800BF02211D48FFF763FE002840
:10126000F9D002211A48FFF7BAFD1948FFF756FED8
:10127000164921F81400641C701EA042E2DC002410
:1012800009E0124830F81450BD4200DD2F464545B4
:1012900000DAA846641C701EA042F2DCA7EB08002E
:1012A00080B2ADF80200BDF80200FFF7AFF9834647
:1012B0000849FEF7B3FF82460749FEF7E1FF814682
:1012C000FFF7E0F905494880BDE8F88F2441002088
:1012D0000028014000404E4500F07F4524210020B9
:1012E0002DE9F84F002640F6FF770025002419E08D
:1012F0000020234921F814000121224800F04AF877
:1013000000BF02211F48FFF70DFE0028F9D002217F
:101310001C48FFF764FD1B48FFF700FE184921F841
:101320001400641C40F2FF308442E1DB00240BE037
:10133000134830F81450B54200DD2E46012D02DD71
:10134000BD4200DA2F46641C40F2FF308442EFDBDE
:10135000F01B80B2ADF80200BDF80200FFF756F9AD
:1013600082460949FEF75AFF81460849FEF788FF81
:101370008046FFF787F906494880BDE8F88F0000EE
:10138000244100200028014000404E4500F07F45E8
:101390002421002021B1826842F4A002826003E08F
:1013A000826822F4A00282607047816841F00401E3
:1013B000816070473EB505460C460121022000F0D1
:1013C00095FD114801F086FB684601F0E5FB681EBB
:1013D00080B2ADF80400601E80B2ADF800000020BD
:1013E0008DF80800ADF80600ADF802006946064821
:1013F00001F080FB2021044801F072FB012102482A
:1014000001F05CFB3EBD00000004004000BFFEE7B1
:1014100010B5022000F030F868B1022000F012F898
:101420000021054800F01CF800210448FFF7DAFC11
:1014300001200349087010BD08000240002401404B
:101440001C00002000F0805111B10349086001E048
:101450000249486070470000040402400000024056
:1014600021B1026842F00102026004E002684FF616
:10147000FE731A400260704701460020002201F00E
:10148000805313B1054B1A6801E0054B1A6802EA54
:1014900001030BB1012000E000207047000402406E
:1014A000000002401AB103680B43036002E00368C6
:1014B0008B430360704710B50022026847F6F07353
:1014C0009A430C6A8B6823430C6923434C6923437A
:1014D0008C692343CC6923434C6A23438C6A23439E
:1014E0001A430260CB6843600B6883604B68C3603B
:1014F00010BD704700B5034603E04FF47A7000F06A
:1015000005F8181EA3F10103F7D100BD00EBC001DF
:10151000C9004FF0E0225161002191610521116164
:1015200000BF4FF0E021096901F480310029F8D0B3
:1015300004214FF0E02211617047000070B50021D6
:101540005148524AC2E9001051485249524A03C216
:1015500000F0D2FB51480068FFF77BF805462946AA
:101560004FA001F023FB51480068FFF772F80546D1
:1015700029464FA001F01AFB5048006864385049D2
:101580000968884252D800214E4A116051600020FB
:101590004D4A106050600A20FFF7ACFF43480068D6
:1015A000FFF7BCF805462A460B4648A001F022FD8D
:1015B0003A480068FFF7B2F805462A460B4647A0AE
:1015C00001F018FD494801684948006832308142FD
:1015D00001D90B2421E046480068323843490968A4
:1015E000884201D90E2418E042492C480068FEF7D1
:1015F0000FFE05462D4801682846FFF7EFF80CD886
:101600003D4926480068FEF7B1FD054627480168B8
:101610002846FFF7EDF800D80C2438480168384810
:101620000068283081422CD90D242AE02348006824
:10163000643823490968884223D9324909688808EF
:10164000FEF7E4FF0546304801682846FFF7C6F874
:1016500007D82E492C480068FFF7C0F801D20A24A9
:101660000FE0284800680B21B0FBF1F63046FEF78A
:10167000CDFF0546244801682846FFF7B9F800D297
:101680000924204670BD000000C06240B800002060
:10169000E17A14AE47E1DA3FC00000209C00002050
:1016A0006E302E76616C3D2564000000A0000020A5
:1016B0006E352E76616C3D256400000058000020D8
:1016C000F8000020D0000020D800002052535F46D0
:1016D0004C31203D2025660D0A00000052535F72F8
:1016E000656631203D2025660D0A0000640000205B
:1016F00060000020000048420000C842680000204E
:101700005C000020700000200C0100200000FA4462
:101710002DE9F04786B05B480068FEF7FFFF804682
:10172000894658480068FEF7F9FF0022564BCDE97C
:101730000001FEF787FE06460022544BFEF785FEA9
:1017400004460022524BFEF780FE42464B46CDE94E
:101750000201FEF7ECFECDE90401FEF7C6FF4D499C
:10176000086040214C4800F0C6F94C480068323807
:1017700048490968884202D94FF0020A7DE045488D
:1017800001684648006800F5167081424DD944480A
:101790000068FEF751FF434A434BCDE90401FEF7D1
:1017A000C6FE80460022414BFEF749FE04460D4628
:1017B0003F480068FEF74DFF8046FEF72CFF0646C7
:1017C00022462B46FEF7BEFF02D24FF0030A54E03A
:1017D00033480068FEF730FF8046364A364BFEF746
:1017E000A6FE06460022314BFEF729FECDE9040194
:1017F0002F480068FEF72DFF0646FEF70CFF044653
:10180000DDE90423FEF7B6FF37D825490968A1F1C1
:101810006400FEF7FBFE0446254801682046FEF7FB
:10182000E7FF2AD84FF0080A27E040211A4800F0C5
:1018300060F93220FFF75EFEFFF74CFA1F48808800
:101840001F49086008460068FEF7F6FE04461D4A78
:101850001D4BFEF7FAFD0646FEF747FF18490860E4
:101860000846006842F62441884201D34FF0050A39
:101870001348016815A001F099F9504606B0BDE87B
:10188000F0870000100100200000264000409F402B
:101890000000F03F08010020001001407800002007
:1018A00070000020A4703D0AD7A30A4000C0624027
:1018B00014010020C3F5285C8FC2094024210020B8
:1018C0000001002048E17A14AE4712406E362E76B1
:1018D000616C3D256400000010B5012000F042F865
:1018E00048B1012000F038F800F05EF9012002490B
:1018F000087000F05DFD10BD1D00002010B5202017
:1019000000F030F848B1202000F026F800F04CF943
:1019100001201049087000F04BFD402000F022F833
:1019200048B1402000F018F800F03EF901200949C4
:10193000087000F03DFD802000F014F848B18020D0
:1019400000F00AF800F030F901200249087000F0B8
:101950002FFD10BD1D0000200149086070470000E8
:1019600014040140014600200022074B1B6803EAD3
:101970000102054B14331B680B4013B10AB101205F
:1019800000E00020704700000004014008B501217C
:10199000082000F0CBFA7020ADF8000002208DF88E
:1019A000020010208DF803006946024800F004F898
:1019B00008BD0000001001402DE9F041024600255D
:1019C0000026002000230024002791F803C00CF01B
:1019D0000F0591F803C00CF0100CBCF1000F03D000
:1019E00091F802C04CEA050591F800C0BCF1000F67
:1019F00031D0146800202BE04FF0010C0CFA00F3FA
:101A0000B1F800C00CEA03069E4220D183004FF0DB
:101A10000F0C0CFA03F7BC4305FA03FC4CEA040470
:101A200091F803C0BCF1280F06D14FF0010C0CFA5D
:101A300000FCC2F814C00AE091F803C0BCF1480FE2
:101A400005D14FF0010C0CFA00FCC2F810C0401C8C
:101A50000828D1D31460B1F800C0BCF1FF0F34DD09
:101A6000546800202EE000F1080C4FF0010808FA3D
:101A70000CF3B1F800C00CEA03069E4221D18300AA
:101A80004FF00F0C0CFA03F7BC4305FA03FC4CEAC9
:101A9000040491F803C0BCF1280F05D100F1080C33
:101AA00008FA0CF8C2F8148091F803C0BCF1480F92
:101AB00007D100F1080C4FF0010808FA0CF8C2F841
:101AC0001080401C0828CED35460BDE8F081024647
:101AD000002093680B400BB1012000E0002070470C
:101AE00002460020D3680B400BB1012000E000202B
:101AF000704741617047016170474FF6FF71018087
:101B0000022181700421C1707047000010B50446A5
:101B1000012C06D0022C13D0032C20D0042C3CD155
:101B20002CE001211E48FFF7DBFF20B901211C48F2
:101B3000FFF7E1FF03E001211948FFF7DAFF2DE08D
:101B400002211748FFF7CCFF20B902211448FFF704
:101B5000D2FF03E002211248FFF7CBFF1EE0202155
:101B60000F48FFF7BDFF20B920210D48FFF7C3FF45
:101B700003E020210A48FFF7BCFF0FE0402108489E
:101B8000FFF7AEFF20B940210548FFF7B4FF03E09F
:101B900040210348FFF7ADFF00E000BF00BF10BDCC
:101BA0000014014000BFFEE710B500F013F807492C
:101BB00008700748007840B10020054908700349C3
:101BC00009783039C8B2FFF7A1FF10BD1E00002010
:101BD0001D0000207CB520A0006801901FA00068B7
:101BE0000090002530E01E211D48FFF784FF01A86A
:101BF000415D1B48FFF77DFF002421E01DF8041024
:101C00001748FFF764FFC8B90A20FFF773FC1DF8F7
:101C100004101348FFF75BFF80B900BF1DF80410E4
:101C20000F48FFF754FF0028F8D01E210C48FFF79B
:101C300060FF0C4800EB8500005D7CBD601CC4B2F9
:101C4000042CDBDB681CC5B2042DCCDB1E21044850
:101C5000FFF74FFF0020F0E702040810204080014A
:101C6000001C01406C4C000800BFFEE770470000FC
:101C700070B5002100230F22C47804B3154C2468EA
:101C800004F4E064C4F5E064210AC1F10403CA402D
:101C9000447804FA03F184781440214309010E4C7E
:101CA0000678A155047804F01F050124AC4005789E
:101CB0006D11AD0005F1E025C5F8004109E004789B
:101CC00004F01F050124AC40044D0678761145F858
:101CD000264070BD0CED00E000E400E080E100E093
:101CE00002490143024A1160704700000000FA05F2
:101CF0000CED00E0704700002DE9FE43002002904B
:101D0000019000900A20FFF7F5FB00231A4659497D
:101D10004FF48040FEF75AFF002057490880029098
:101D20000DE0FFF7DDFA554840885349098808441B
:101D300051490880BDF80800401C80B20290BDF8EF
:101D400008001428EDDB4C480088142190FBF1F0CA
:101D500049490880084600884949086000231A4616
:101D600048494FF48040FEF731FF00204249088087
:101D700002900DE0FFF7B4FA404840883E490988D8
:101D800008443D490880BDF80800401C80B202901C
:101D9000BDF808001428EDDB37480088142190FBBB
:101DA000F1F035490880084600883749086000236B
:101DB0001A464FF081414FF48040FEF707FF0020A4
:101DC00032490860072140F2EF20FFF7F3FA0020C4
:101DD0002F49086001212F48FFF742FB01212E48BF
:101DE000FFF700F800BF2D4800780028FBD0002046
:101DF0002A49087001212748FFF732FB01212648B4
:101E0000FEF7F0FF00BF254800780028FBD0002037
:101E10002249087001211F48FFF722FB01211E48BB
:101E2000FEF7E0FF00BF1D4800780028FBD0FFF759
:101E300011F91B49086008460068FEF76FFC06466A
:101E40000022184BFEF701FB04460022164BFEF75A
:101E50006EFB8046FEF7A6FC144908600846016840
:101E60001348FEF7DBF91149086000200B490870A0
:101E7000BDE8FE8300401C484A00002024210020C9
:101E8000640000200000C843680000201800002003
:101E90009000002008000240002401401C000020A7
:101EA000A80000200000F03F00F07E40A0000020CD
:101EB0000080F74301460020034A506820F4404068
:101EC00008435060704700000010024029B1064AE4
:101ED00052690243044B5A6104E0034A5269824347
:101EE000014B5A61704700000010024029B1064AB8
:101EF000D2690243044BDA6104E0034AD2698243A7
:101F0000014BDA61704700000010024029B1064A17
:101F100012690243044B1A6104E0034A12698243C6
:101F2000014B1A61704700000010024029B1064AB7
:101F300092690243044B9A6104E0034A9269824326
:101F4000014B9A61704700000010024029B1064A17
:101F5000D2680243044BDA6004E0034AD268824349
:101F6000014BDA60704700000010024030B50021DC
:101F70000022002400232D4D6D6805F00C0121B1D5
:101F8000042905D0082923D105E0294D056022E068
:101F9000274D05601FE0254D6D6805F47012234D37
:101FA0006D6805F48034022505EB92421CB9214D81
:101FB000554305600BE01D4D6D6805F400351DB1FE
:101FC0001C4D5543056002E0194D5543056002E084
:101FD000174D056000BF00BF144D6D6805F0F0019E
:101FE0000909154D6B5C0568DD4045600F4D6D6856
:101FF00005F4E061090A104D6B5C4568DD408560C1
:102000000A4D6D6805F46051C90A0B4D6B5C45685B
:10201000DD40C560054D6D6805F44041890B074DF5
:102020006B5CC568B5FBF3F5056130BD001002407F
:1020300000127A0000093D001F0000202F00002040
:102040002DE9F04F89B0B548007830B900231A4621
:10205000B3494FF48040FEF7B9FDB048007801283D
:102060007ED102F095F800F0F1FDAE49AE4800686F
:10207000FEF7BEFB30D8AD480068FEF74FFBCDE958
:102080000401AA480068FEF749FB07460022A84B56
:10209000FEF7D8F905460022A64BFEF7D6F9CDE9A2
:1020A0000001A5480068FEF739FB05460022A34B56
:1020B000FEF7CBF98246DDE90023FEF7C6F9CDE94C
:1020C0000201DDE90423FEF732FACDE90601FEF74D
:1020D0000CFB9B49086030E09A480068FEF71EFB45
:1020E000CDE9040197480068FEF718FB0746002277
:1020F0008F4BFEF7A7F905460022934BFEF7A5F993
:10210000CDE9000191480068FEF708FB05464FF055
:1021100066328F4BFEF799F98246DDE90023FEF720
:1021200094F9CDE90201DDE90423FEF700FACDE9D7
:102130000601FEF7DAFA824908608648006840F630
:10214000E441884203D34FF47A707D4908608248A5
:102150000088FEF771FA05460E468048008800E0C8
:102160009CE0FEF769FA82460022744BFEF76DF997
:1021700007462A463346FEF7DAF900226F4BCDE9CF
:102180000001FEF75CF90022754BCDE90201FEF774
:102190005CF90022694BCDE90401FEF756F9CDE95F
:1021A0000601FEF7A2FA6F49086060480068FEF772
:1021B000B5FA824600225E4BFEF744F9CDE90601EE
:1021C00066480088FEF738FACDE90401DDE9062308
:1021D000FEF7ADF905460022584BFEF736F90746E3
:1021E000FEF783FA6049086001F094FC40215F48E3
:1021F000FFF781FC02F080FB5148008800F2D240DA
:102200001FFA80F949F6404081450CDB4846FEF74D
:1022100013FA0746564A574BFEF717F90546FEF7DD
:1022200064FA1FFA80F94F480088A0F2145084B273
:10223000B4F5E16F05DBB4F5FA6F02DC04F164007C
:1022400084B240F21450844205DBB4F5E16F02DC45
:10225000A4F1640084B2B4F57A7F06DB40F2145036
:10226000844202DCA4F1C80084B23F4800680A2816
:1022700002D801203C4908604A463FA13FA000F037
:1022800095FC224641A13DA000F090FC3648016833
:102290003FA000F08BFC00F0D9FC00BF1F48007885
:1022A00002281BD13DA000F081FC10212F48FFF730
:1022B00020FC20212D48FFF71CFC0A20FFF71AF90B
:1022C0003849002000F0EEF837A000F06FFC01E084
:1022D00000F0BCFC114800780228F9D00F480078C3
:1022E000032817D110212148FFF705FC20211F48A2
:1022F000FFF7FFFB0A20FFF7FDF807E001F0A0FC65
:102300000890089801F042FE00F0A0FC0348007815
:102310000328F3D009B0BDE8F08F000018010020B9
:1023200000007A4400001644900000209400002031
:102330000000264000409F40AC0000200000F03F1D
:10234000780000209800002000ECB340B00000208E
:102350006666EE3F700000204C0000204A0000201E
:1023600000408F407C0000208000002000100140D1
:102370009A9999999999E93F330000007425732E31
:102380007478743D2225752200000000340000009E
:102390006E302E76616C3D257500000074737720D9
:1023A000312C300040420F0074737720312C310003
:1023B00010B502F075FA10BD704710B500F002F8C4
:1023C00010BD00000CB5002001900090334800685B
:1023D00040F480303149086000BF3048006800F4A4
:1023E000003000900198401C0190009818B90198A5
:1023F000B0F5A06FF1D12948006800F4003010B1A9
:102400000120009001E0002000900098012843D1B5
:102410002348006840F01000214908600846006821
:1024200020F0030008600846006840F002000860E1
:102430001A4840681949486008464068486008469C
:10244000406840F4806048600846406820F47C1092
:1024500048600846406840F4E81048600846006854
:1024600040F08070086000BF0C48006800F0007009
:102470000028F9D00948406820F003000749486067
:102480000846406840F00200486000BF03484068CA
:1024900000F00C000828F9D10CBD0000001002402B
:1024A000002002402DE9F34F93B000BF0020044606
:1024B000054600210E460F46884689460990089039
:1024C00007900990CEE0BDF82400C82806DCBDF8CE
:1024D00024101398322202FB01000690BDF824005C
:1024E000C82812DDBDF82400B0F5C37F0DDCBDF8AF
:1024F0002400C83880B20890BDF8200042F2107164
:102500004FF47A7202FB00100690BDF82400B0F57B
:10251000C37F13DDBDF8240040F24E2188420DDC5C
:10252000BDF82400A0F5C37080B20890BDF820006B
:10253000FE494FF47A6202FB001006900698FEF7FF
:1025400065F800231A46014605904FF48040FEF7D7
:102550003DFBBDF82400142802DC6420FEF7CAFF0E
:10256000BDF82400142806DDBDF82400C82802DCCC
:102570003220FEF7BFFFBDF82400C82807DDBDF8F4
:102580002400B0F5C37F02DC3220FEF7B3FFBDF8B4
:102590002400B0F5C37F08DDBDF8240040F24E21D1
:1025A000884202DC1E20FEF7A5FFFEF741FEE04850
:1025B0004088E049BDF8242021F81200BDF824200D
:1025C00031F81200FEF738F80022DB4BCDE90001AC
:1025D000FDF73BFF0022D94BCDE90201FDF7A7FF34
:1025E000CDE90401FEF762F880B20D900D9800EB82
:1025F0004001D3A000F0DAFACE49BDF8242031F82A
:102600001200FEF719F842464B46CDE90401FEF7E9
:10261000B1F822D2C749BDF8242031F81200FEF7E4
:102620000BF842464B46CDE90201FDF708FF0022B8
:10263000C74BCDE90401FEF79DF80ED2BD49BDF8A8
:10264000242031F81200FDF7F7FF80468946BDF8D7
:102650002400FDF7F1FF82468B46BDF82400401CA4
:1026600080B20990BDF82400B0F5EC7F7FF72BAF66
:1026700000231A46B7494FF48040FEF7A7FA4246B6
:102680004B46B548B549FDF7E0FECDE90A01504695
:102690005946FEF72AF880B2099028E0BDF82410C8
:1026A000891EA44A32F81100FDF7C6FFCDE90401E6
:1026B000DDE90A23FEF75EF814D29E49BDF8242016
:1026C00031F81200FDF7B8FFCDE90401DDE90A2376
:1026D000FEF738F806D8BDF82400FDF7ADFF044634
:1026E0000D4609E0BDF82400401C80B20990BDF8F9
:1026F0002400B0F5EC7FD1DD00BF002009901EE082
:1027000097480078022800D024E08A49BDF82420A8
:1027100031F81200FDF790FFCDE90401DDE90A234D
:10272000FEF710F806D8BDF82400FDF785FF064631
:102730000F460FE0BDF82400401C80B20990BDF8A0
:102740002400FDF779FF52465B46CDE90401FDF711
:10275000F9FFD5D300BF0022824B20462946FDF762
:10276000F1FF0DD822462B4600207F49FDF76DFE74
:1027700000221346CDE90401FDF7C0FD04460D46D5
:102780000022784B20462946FDF7F4FF1AD200229A
:10279000764B20462946FDF7D5FF13D80022714B12
:1027A00020462946FDF74BFE0022714BCDE9020180
:1027B000FDF74BFE00226F4BCDE90401FDF79EFDB6
:1027C00004460D460022694B20462946FDF7D2FFFC
:1027D0001AD20022684B20462946FDF7B3FF13D8D2
:1027E0000022624B20462946FDF729FE0022634B5A
:1027F000CDE90201FDF729FE0022614BCDE904017C
:10280000FDF77CFD04460D460022564B3046394606
:10281000FDF798FF0DD832463B4600205249FDF7A0
:1028200014FE00221346CDE90401FDF767FD0646BC
:102830000F4600224B4B30463946FDF79BFF1AD21C
:1028400000224A4B30463946FDF77CFF13D8002260
:10285000444B30463946FDF7F2FD0022444BCDE9AA
:102860000201FDF7F2FD0022424BCDE90401FDF724
:1028700045FD06460F4600223C4B30463946FDF7E3
:1028800079FF1AD200223C4B30463946FDF75AFFF9
:1028900013D80022354B30463946FDF7D0FD0022D3
:1028A000364BCDE90201FDF7D0FD0022344BCDE9D6
:1028B0000401FDF723FD06460F4642464B46002025
:1028C0001D49FDF7C2FD00222E4BCDE90401FDF7A5
:1028D0002EFECDE9100100222B4BDDE91001FDF7A2
:1028E0000DFDCDE90401FDF700FF284908700846F9
:1028F0000078FDF7A1FECDE9020101F01DFF0022E5
:10290000234BCDE90401FDF7A0FDCDE90E01DDE982
:102910000E01FDF7CBFE1F49086000231A460D4942
:102920004FF48040FEF752F9002235E030E6020015
:1029300024210020EC4900200000F03F0000264048
:102940006164642073302E69642C302C256400008F
:102950000000144000007A4439B4C876BE9FE63FB8
:1029600018010020000069400000494000607840E4
:1029700000408F400088C340007082400040AF405C
:10298000006A08410000284000002440390000206F
:10299000000034403C000020244B20462946FDF72F
:1029A000E9FE0FD222462B464FF066302049FDF754
:1029B0004CFD00221F4BCDE90401FDF7B8FD044694
:1029C0000D460DE022462B4600201B49FDF73DFD3C
:1029D0000022184BCDE90401FDF7A9FD04460D4680
:1029E0000022164B20462946FDF729FD04460D46D8
:1029F00020462946FDF75AFE0146059010A000F03A
:102A0000D5F832463B4600201049FDF71EFD002256
:102A1000084BCDE90401FDF78AFD06460F460C4A36
:102A200030C20C4AC0C215B0BDE8F08F00BDFF40F7
:102A30006666F23F00408F400000F83F00006940AA
:102A40006E302E76616C3D25640000000000F03F82
:102A5000B8000020C00000207047000010B51348E7
:102A6000006840F0010011490860084640681049BC
:102A700008400E494860084600680E4908400B4966
:102A800008600846006820F4802008600846406816
:102A900020F4FE0048604FF41F008860FFF78DFCB3
:102AA0004FF000600449086010BD000000100240B3
:102AB0000000FFF8FFFFF6FE08ED00E021B10288FC
:102AC00042F00102028004E002884FF6FE731A40D1
:102AD0000280704701894FF6F872114001817047FA
:102AE00082884FF68F731A40828082880A438280E0
:102AF00070470000002202881D4B98420ED01D4BEB
:102B000098420BD0B0F1804F08D01B4B984205D0B3
:102B10001A4B984202D01A4B984204D14FF68F7349
:102B20001A404B881A43174B984207D0164B9842CD
:102B300004D04FF6FF431A40CB881A4302808B889B
:102B400083850B8803850A4B98420BD0094B98422A
:102B500008D00E4B984205D00D4B984202D00D4B39
:102B6000984201D10B7A03860123838270470000CB
:102B7000002C0140003401400004004000080040E7
:102B8000000C0040001000400014004000400140D4
:102B900000440140004801404FF6FF718180002150
:102BA0000180C18041800172704700000FB4F0B510
:102BB0009BB0FF2721A80090652101A8009B209AC7
:102BC00000F028FA0446002000902646652C01DB20
:102BD000642605E0002C03DA1BB0F0BC5DF814FBA2
:102BE00000250CE001A8415D174800F0F0F900BF96
:102BF0008021154800F01EF90028F9D06D1CB5425F
:102C0000F0DB3946104800F0E2F900BF80210E48A1
:102C100000F010F90028F9D039460B4800F0D7F938
:102C200000BF8021084800F005F90028F9D0394696
:102C3000054800F0CCF900BF8021034800F0FAF805
:102C40000028F9D000BFC7E70044004000B543E0CA
:102C500001F098FA06283BDB002001F02FFE5A28ED
:102C600036D1012001F02AFE712831D1032001F074
:102C700025FEFF282CD1042001F020FEFF2827D1BB
:102C8000052001F01BFEFF2822D1022001F016FED4
:102C900018B900201349087016E0022001F00EFE5A
:102CA000012802D10F4908700EE0022001F006FE53
:102CB000022802D10B49087006E0022001F0FEFD57
:102CC000032801D107490870062001F037F903E015
:102CD000012001F033F903E001F054FA0628B7DAD5
:102CE00000BF00BD1801002010B540F22551094871
:102CF00000F0ADF801280CD1064800F063F9064950
:102D0000088001200549088040F22551014800F063
:102D100028F810BD0038014000000020020000200B
:102D200010B540F22551094800F091F801280BD167
:102D3000064800F047F9C4B2204601F079FF40F29E
:102D40002551024800F00DF810BD0000004400407D
:102D500001F40072B2F5007F00D100BFCA430280C7
:102D6000704710B50022002340F66A14A14200D13A
:102D700000BF0A1201249440A3B2DC43048010BDBA
:102D800021B1828942F40052828104E082894DF6A9
:102D9000FF731A408281704710B504462048844270
:102DA00009D101218803FFF7D1F800214FF48040B9
:102DB000FFF7CCF832E01B48844209D101214804D6
:102DC000FFF7A4F800214FF40030FFF79FF825E04B
:102DD0001548844209D101218804FFF797F80021A2
:102DE0004FF48020FFF792F818E01048844209D190
:102DF0000121C804FFF78AF800214FF40020FFF7F3
:102E000085F80BE00A48844208D101210805FFF744
:102E10007DF800214FF48010FFF778F810BD000016
:102E2000003801400044004000480040004C004091
:102E30000050004002460020B1F5007F00D100BFE5
:102E400013880B400BB1012000E00020704770B5E3
:102E50000246002400230025002040F66A16B142F5
:102E600000D100BFC1F3421501F01F03012606FA8D
:102E700003F3012D02D19689334006E0022D02D1E1
:102E8000168A334001E0968A33400C12012606FA76
:102E900004F41688344013B10CB1012000E0002086
:102EA00070BDF0B50346002400260025002040F642
:102EB0006A17B94200D100BF1846C1F3421401F0AD
:102EC0001F06012707FA06F5012C01D10C3004E09A
:102ED000022C01D1103000E014301AB107682F43E2
:102EE000076002E00768AF430760F0BD2DE9F047D7
:102EF00086B005460E460024A24600BFA146002724
:102F0000B08900B100BF2F462C8A4CF6FF700440F8
:102F1000F08804432C82AC894EF6F3100440B0884C
:102F200031890843718908430443AC81AC8A4FF668
:102F3000FF400440B0890443AC8201A8FFF716F8B3
:102F40001F48874202D1DDF810A001E0DDF80CA097
:102F5000A88900F4004040B10AEBCA0000EB0A1057
:102F600031684900B0FBF1F807E00AEBCA0000EB5A
:102F70000A1031688900B0FBF1F86420B8FBF0F06A
:102F800004012009642101FB1089A88900F4004094
:102F900040B1322000EBC900B0FBF1F000F00700B7
:102FA000044308E0322000EB09106421B0FBF1F08B
:102FB00000F00F0004432C8106B0BDE8F08700004C
:102FC0000038014001468888C0F308007047C1F30B
:102FD0000802828070474FF4165101600021818001
:102FE000C18001810C21418100218181704700BF96
:102FF000FEE700000FB4054B10B503A9044A029880
:1030000000F060F910BC5DF814FB0000614100089D
:103010001C0100207CB50C001D461646014601D05F
:10302000601E00E00020CDE90010064B6A462946EC
:10303000304600F047F9002C02D0009A00211170B0
:103040007CBD0000CB3900082DE9F0414F1E00EB9C
:10305000C7010446D1E9000115461E4637F00602B5
:103060000DD02A463346FDF7F0F97F1E04EBC70367
:10307000D3E90023FDF742F937F00602F1D1022F20
:1030800025D0042F13D0062F18BFBDE8F0812A46A3
:103090003346FDF7DAF9D4E90A23FDF72FF92A467A
:1030A0003346FDF7D2F9D4E90823FDF727F92A467C
:1030B0003346FDF7CAF9D4E90623FDF71FF92A467E
:1030C0003346FDF7C2F9D4E90423FDF717F92A4680
:1030D0003346FDF7BAF9D4E90223FDF70FF92A4682
:1030E0003346FDF7B2F9D4E90023BDE8F041FDF71E
:1030F00005B900000022134610460149FDF717BA32
:103100000000F03F0122FDF789BC00221346104663
:103110001146FDF70CBA02E008C8121F08C1002AC8
:10312000FAD170477047002001E001C1121F002A48
:10313000FBD1704701490860704700002001002062
:103140002DE9FF5F82B00021DDE90430020DDDF8DA
:1031500040B0034318D044F61050A2F2FF3242436D
:103160001514119801281FD0A5EB0B00401C5FEA35
:10317000000A4FF000064E4FDFF83891B046504637
:1031800015D5CAF1000413E0119801244AA30128BF
:1031900001D16FEA0B010298119AC0E90031C0E930
:1031A000024206B0BDE8F09FCBF10000DFE7044625
:1031B0000021404A491842EB0450CDE9001012E0CA
:1031C000E00707D032463B4640464946FDF73DF909
:1031D0008046894632463B4610461946FDF735F98A
:1031E00006460F466410002CEAD1DDE90401DDE952
:1031F0000023BAF1000F06DAFDF727F942464B46E5
:10320000FDF723F905E0FDF792F942464B46FDF73D
:103210008EF904460E460022284BFDF7ABFA03D880
:103220004FF0FF30014607E00022254B2046314693
:10323000FDF764F8FDF709FC102409E0002C0ADB17
:103240000A220023FDF7F4FA039B30321A55641E5C
:1032500050EA0102F2D1641C039AC4F11103144430
:10326000119A012A03D0012208430DD10AE0084334
:1032700004D000204FF0110B119072E7A3EB0B0567
:103280006D1E0DE05B4504DD4FF0000205F1010508
:1032900004E003DA4FF00002A5F10105002AECD0AA
:1032A00002981199C0E90231C0E9004579E70000B0
:1032B000000014400000F03F300000000000F04328
:1032C0000000E03F2DE9FF4F95B09A46884606463C
:1032D0000025EEE1252877D100242746F94A01216F
:1032E000039400E0044316F8013F203B01FA03F089
:1032F0001042F7D130782A2811D06FF02F033078A0
:10330000A0F13002092A16D8039A44F0020402EB15
:10331000820203EB42021044761C0390EFE758F858
:10332000042B0392002A03DA504244F40054039021
:1033300044F00204761C30782E2816D116F8010FBE
:1033400044F004042A280DD06FF02F023078A0F149
:103350003003092B09D807EB870302EB4303C71897
:10336000761CF3E758F8047B761C30786C280FD075
:1033700006DC4C2817D068280DD06A2814D104E048
:10338000742810D07A280FD10DE044F400140AE01C
:1033900044F4801401E044F440147278824202D173
:1033A00004F58014761C761C307866280BD013DC6C
:1033B000582877D009DC002875D04528F6D0462853
:1033C000F4D047281AD193E118E0632835D0642857
:1033D00079D0652812D18BE1702873D008DC67287A
:1033E000F1D069286FD06E280DD06F2806D1ACE0DF
:1033F00073282CD0752874D0782853D0524617994A
:1034000090476D1C54E1C4F30250022809D00328F0
:103410000DD0D8F8001004280DD00D6008F1040874
:1034200046E1D8F80010EA17C1E90052F6E7D8F8EB
:1034300000100D80F2E70D70F0E718F8041B8DF80E
:10344000001000208DF80100EB46012003E058F841
:1034500004BB4FF0FF3061074FF0000102D40DE0D4
:1034600009F101018946B9420FDA8145F8DB1BF801
:1034700009100029F4D108E009F1010189468142CF
:10348000FADB1BF809100029F6D103985346A0EB8C
:10349000090721463846179A00F080FA284400EBC5
:1034A000090507E044E008E10DE01BF8010B524676
:1034B00017999047B9F10109F7D25346214638468A
:1034C000179AF2E039E00A21C4F302524FF0000BE0
:1034D0000091022A06D058F8040BC117032A09D01C
:1034E0000AE023E008F1070020F00702F2E80201F9
:1034F000904605E000B2C117042A01D140B2C117BD
:10350000002906DA0A460021404261EB02012D2221
:1035100002E0220504D52B228DF80420012203E0CD
:10352000E20701D02022F7E7914657E00A2100E0A8
:1035300010214FF0000B00910BE010214FF0000B19
:1035400044F004040827009103E008204FF0000B2A
:103550000090C4F30252022A05D058F8040B00214F
:10356000032A08D008E008F1070020F00702F2E87B
:103570000201904603E080B2042A00D1C0B24FF0AD
:10358000000922072AD53278702A07D0DDF800C05A
:103590008CF0100C5CEA0B0C05D00EE040228DF88C
:1035A0000420012208E050EA010306D030238DF800
:1035B00004308DF8052002229146009B83F0080319
:1035C00053EA0B030AD150EA010201D1620705D583
:1035D00030228DF804204FF001097F1E3278582ADE
:1035E00004D039A20C920CAA02920BE03BA2F9E79C
:1035F0005B46009AFDF71CF90C9B9B5C029A521EDD
:103600000292137050EA0102F2D1029804A9081A3A
:1036100000F1200B600702D524F4803400E001277C
:103620005F4502DDA7EB0B0000E0002000EB0B0183
:10363000009003984944401A0390E00306D453468F
:103640002146179A039800F0A9F90544002706E0DF
:1036500001A85246C05D179990476D1C7F1C4F45CD
:10366000F6DBE0030CD553462146179A039800F089
:1036700095F9054404E030205246179990476D1C97
:103680000099481E00900029F5DC08E00298029994
:1036900052460078491C0291179990476D1CBBF166
:1036A0000001ABF1010BF1DC5BE100F065F90544D1
:1036B000761C307800287FF40DAE19B02846BDE89E
:1036C000F08F0000092801003031323334353637AD
:1036D000383961626364656600000000303132335E
:1036E00034353637383941424344454600000000FE
:1036F000600700D4062708F1070020F00700F0E873
:103700000223804603F0004C5FEA0C0001D097A032
:1037100009E0200501D596A005E0E00701D095A0BD
:1037200001E0AFF24C001390307823F0004365289D
:103730000CD006DC452809D046281DD047287FD16B
:103740003BE0662818D067287AD136E00021112F97
:1037500001DB112000E0781CCDE9000104A90CA8D0
:10376000FFF7EEFCDDE90D010C9A4FF0000B07F1BD
:103770000109109200914EE04FF000400097CDE912
:10378000011004A90CA8FFF7DBFCDDE90D020C9B7E
:103790000F994FF0000B91461093009211B9791CCC
:1037A00000EB0109B7EB090003D4C0F1FF3B07F1BF
:1037B0000109A9EB0700019042E0012F00DA01277F
:1037C0000021112F01DD112000E03846CDE9000174
:1037D00004A90CA8FFF7B4FCDDE90D010C9A0091D7
:1037E0004FF0000BB946109221070FD4009A4A45BA
:1037F00003DA914601E0A9F10109B9F1010F05DDF4
:10380000109AA9F10101515C3029F4D0B84202DAD2
:1038100010F1040F03DA0121CDE9011010E00028B6
:1038200003DC8344A9EB000102E0411C494500DDB3
:103830008946A0EB0B00401C01904FF00040029025
:10384000200705D40198484502DB4FF0FF30019076
:1038500000208DF84B0002980DF14B07B0F1004F9E
:1038600025D002200C902B200D90029800280CDA15
:10387000404202902D200D9007E00A210298FCF7AB
:10388000C1FF3031029007F8011D0C99481E0C90C1
:103890000029F2DC02980028EFD1791E0D980870FB
:1038A000307800F0200040F0450007F8020D11A824
:1038B000C01BC01D02901398007800B1012000EBDE
:1038C0000901019801EBE071029801440398401A44
:1038D000401E0390E00306D453462146179A0398EE
:1038E00000F05CF805441398007818B15246179917
:1038F00090476D1CE00323D553462146179A039841
:1039000000F04CF805441BE0BBF1000F07DB00980A
:10391000584504DD1098179910F80B0001E017992D
:1039200030205246904701980BF1010B401E05F1E3
:103930000105019004D12E205246179990476D1C25
:10394000B9F10001A9F10109DEDC05E017F8010B6E
:103950005246179990476D1C0299481E0290002903
:10396000F4DC53462146179A03989EE62D0000008A
:103970002B000000200000002DE9F0410446002546
:103980001E461746880404D405E039462020B04777
:103990006D1C641EF9D52846BDE8F0812DE9F04183
:1039A000044600251E469046C80301D5302700E096
:1039B0002027880404D505E041463846B0476D1CF1
:1039C000641EF9D52846BDE8F0814A68002A06D071
:1039D0000A68531C0B6010704868401E48607047AE
:1039E00010B53B493B480068FCF702FF02D23A4859
:1039F0003A4908603A4937480068FCF7F9FE08D8A8
:103A0000334934480068FCF7E9FE02D235483349AF
:103A1000086035492F480068FCF7EAFE08D83049AD
:103A20002C480068FCF7DAFE02D230482B490860C7
:103A30002F4928480068FCF7DBFE08D82A492548AA
:103A40000068FCF7CBFE02D22A48244908602849C6
:103A500020480068FCF7C2FE38D2002026490860E2
:103A600010212648FEF745F820212448FEF743F8A8
:103A7000C820FDF73FFD01216420FDF79BFC0121DB
:103A80001F48FDF7EDFC01211E48FDF7ABF900BF13
:103A90001D4800780028FBD000201B490870012138
:103AA0001748FDF7DDFC01211648FDF79BF900BF23
:103AB000154800780028FBD0FDF7CCFA0E490860C5
:103AC00000201149087011481149086010BD00001C
:103AD00000404445900000206666263FAC00002070
:103AE0000000FA449A99593F00007A447B146E3FD3
:103AF000000061443333733F8C000020001001400C
:103B000008000240002401401C0000203333B33F72
:103B1000B00000202DE9F0473F480088642879DA9A
:103B200010213E48FDF7E7FF20213C48FDF7E3FF69
:103B300040213A48FDF7DFFF4FF49670FDF7DAFCBD
:103B4000002037490880374908800DE0FDF7C8FBA1
:103B5000354840883249098808443149088031484D
:103B60000088401C2F4908802E4800881428EDDB6F
:103B70002B480088142190FBF1F029490880084661
:103B800000882A49086008460068FCF755FD06468B
:103B90000022274BFCF759FC04460022254BFCF77A
:103BA000C6FC8046FCF7A1FD234908600846006872
:103BB000FCF742FD804600F0BFFD064600221F4B89
:103BC000FCF743FC0446FCF790FD1B4908601021FC
:103BD0001248FDF790FF20211048FDF78AFF1420BE
:103BE000FDF788FC14480068012802D00120124922
:103BF000086011480068FCF71FFD804600F09CFD3E
:103C0000064600220D4BFCF720FC0446FCF76DFD38
:103C100009490860BDE8F0874A0000200010014013
:103C20004E000020400000202421002084000020BD
:103C30000000F03F0000F83F80000020000034400A
:103C400010B500F007F804460CB1204610BD002066
:103C5000FCE700002DE9F84F4FF0000B00219148E0
:103C6000914AC2E9001091499148924AC2E9001074
:103C700040219148FDF73FFF1E20FDF73BFC00234C
:103C80001A468E494FF48040FCF7A0FF0520FDF74F
:103C900031FC01216420FDF78DFB00200090012103
:103CA0008748FDF7DDFB01218648FDF79BF800BF43
:103CB000854800780028FBD0FDF7CCF90446FCF7D6
:103CC000E1FC80B2009000207F4908700098FCF76A
:103CD000B3FC804600227D4BFCF7B7FB0646002272
:103CE0007B4BFCF724FC0446FCF75CFD794908603B
:103CF000084601687848FCF791FA78490860084658
:103D000000687749086000207649086082460CE028
:103D1000FDF7E6FA74484088724909680844714919
:103D200008600AF1010000F0FF0ABAF1280FEFDB8A
:103D30006C4800682821B0FBF1F06A490860084629
:103D400000680860634801686848FCF761FA054646
:103D500064480068FCF75AFC06462946FCF790FACE
:103D60000446FCF78FFC6249086000206149086046
:103D700082460CE0FCF7AEFF5B4880885D4909682D
:103D800008445C4908600AF1010000F0FF0ABAF13A
:103D9000280FEFDB574800682821B0FBF1F05549A8
:103DA000086008460068FCF747FC0646524A534B39
:103DB000FCF74BFB0446FCF798FC4E4908600846AC
:103DC00001684FA0FEF7F2FE44480068FCF741FC92
:103DD000044621464DA0FEF7E9FE424801684EA088
:103DE000FEF7E4FE424801684EA0FEF7DFFE4148C0
:103DF0000068342802D84FF0070B50E04C480068A8
:103E000064383C49096888420AD83A4801684848F9
:103E100000686430814203D8FDF790FB83463EE0A2
:103E20003448006840F68631884209D3404800682B
:103E3000643830490968884202D94FF0040B2EE0FB
:103E40002C48006842F60411884208D329480068CB
:103E500042F62441884202D24FF0010B1FE0254870
:103E6000006833280CD923480068FCF7E5FB0446BA
:103E7000304A314BFCF766FC02D84FF0060B0EE0DF
:103E80001C48006843F20C01884208D819480068B1
:103E900042F62441884202D3FDF73AFC8346584655
:103EA000BDE8F88F00C06240B8000020E17A14AE8F
:103EB00047E1DA3FC00000200010014000007A44D2
:103EC00008000240002401401C0000200000F03FD8
:103ED00000F07E40100100200080F7430C0100201C
:103EE00014010020F800002024210020000040419F
:103EF00004010020FC00002048E17A14AE47124083
:103F00006E312E76616C3D25640000006E322E7697
:103F1000616C3D25640000006E332E76616C3D259A
:103F2000640000006E342E76616C3D256400000054
:103F300050000020103EF8E083EF9B4010B5024691
:103F400011488088904202DC00F040FA10BD002346
:103F500015E00D48808810B900F038FAF6E70A48F5
:103F60000088401C4FF4FA7190FBF1F401FB14003F
:103F70000549088008468088401E88805B1C934263
:103F8000E7DB00BFE2E70000225E002010B5044638
:103F90000F2C4FD2DFE804F04E080D12171C21261B
:103FA0002B30353A3F44490026A127A0FEF7FEFDFD
:103FB00045E024A12AA0FEF7F9FD40E021A12EA0B2
:103FC000FEF7F4FD3BE01FA131A0FEF7EFFD36E068
:103FD0001CA135A0FEF7EAFD31E01AA136A0FEF7DC
:103FE000E5FD2CE017A13AA0FEF7E0FD27E015A1C2
:103FF0002DA0FEF7DBFD22E012A13BA0FEF7D6FDCF
:104000001DE010A13EA0FEF7D1FD18E00DA142A0D9
:10401000FEF7CCFD13E00BA145A0FEF7C7FD0EE0B7
:1040200008A121A0FEF7C2FD09E006A146A0FEF707
:10403000BDFD04E003A11CA0FEF7B8FD00BF00BF5A
:1040400010BD0000330000007425732E7478743D99
:104050002252312069732073686F7274220000004D
:104060007425732E7478743D225232206973207344
:10407000686F7274220000007425732E7478743D8A
:10408000225231206973206F70656E22000000009B
:104090007425732E7478743D225232206973206F18
:1040A00070656E22000000007425732E7478743DD4
:1040B000224F4B22000000007425732E7478743D4B
:1040C000225233206973206F70656E220000000059
:1040D0007425732E7478743D2252342069732073D2
:1040E000686F7274220000007425732E7478743D1A
:1040F000224331206973206F70656E22000000003A
:104100007425732E7478743D224332206973206FB6
:1041100070656E22000000007425732E7478743D63
:10412000224333206973206F70656E220000000007
:104130007425732E7478743D224331206973206492
:104140006F75626C652200007425732E7478743D5F
:1041500022433320697320646F75626C652200000E
:1041600070B504460D46E1B20548FEF730FF00BFCA
:1041700080210348FEF75EFE0028F9D0204670BD7E
:10418000003801400148808870470000225E00200E
:104190002DE9F04710217748FDF7ADFC2021754847
:1041A000FDF7A7FC4FF47A70FDF7A4F900231A4637
:1041B00071494FF48040FCF709FD4620FDF79AF95C
:1041C00001214FF43470FDF7F5F800206B490860C9
:1041D00001216B48FDF744F901216A48FCF702FE12
:1041E00000BF694800780028FBD0002066490870AD
:1041F00001216348FDF734F901216248FCF7F2FD23
:1042000000BF614800780028FBD0FCF723FF5B4922
:10421000086000205C490870FFF7E2FB5B4800681B
:10422000FCF77CFA80460022594BFCF70EF9064653
:104230000022584BFCF77BF90446FCF7B3FA5649C9
:1042400008604E480068FCF769FA06460022504BA9
:10425000FCF7FBF8044600224E4BFCF768F9804659
:10426000FCF7A0FA4D490860084601684C48FBF786
:10427000D5FF0446FCF706FA4A49086000204A497F
:1042800008804A4908800DE0FDF72AF84848408830
:104290004549098808444449088044480088401C2E
:1042A00042490880414800882828EDDB3E480088C4
:1042B000282190FBF1F03C490880084600883D49E0
:1042C000086000203C490860384908800DE0FCF790
:1042D00001FD374880883849096808443649086034
:1042E00032480088401C314908803048008828281E
:1042F000EDDB314800682821B0FBF1F02E49086061
:1043000008460068FCF798F906462C4A2C4BFCF747
:104310009CF80446FCF7E9F92A4908604021154851
:10432000FDF7E7FB1420FDF7E5F80020264908809B
:104330001E4908800DE0FCF7D3FF1D484088224944
:10434000098808442049088018480088401C1749FB
:104350000880164800882828EDDB1B4800882821A3
:1043600090FBF1F0184908800846008864380880FE
:10437000BDE8F0870010014000007A449000002062
:1043800008000240002401401C0000208C00002096
:104390000000F03F00F07E409800002094000020D4
:1043A0000080F743700000204A00002040000020F9
:1043B00024210020580000205400002048E17A14F5
:1043C000AE471240500000204C000020002002495F
:1043D0000880488088807047225E00202DE9F04DDB
:1043E000C84A002490B0914205DA21F0004393427C
:1043F00001D805D120B110B0BDE8F04DFEF782BE66
:10440000B1F5801F1BDA53EA000209D0002911DA46
:104410000120FEF78FFE10B0BDE8F04DFEF775BE2F
:104420000220FEF787FEFEF765FE10B081F0004126
:10443000BDE8F08D6FF035043622FCF7EFFA04EB9F
:104440002152C1F31308B049A2F2FF33414401F4F1
:10445000801282F07F6103EB225281F04051009282
:1044600041EA08010022A94BFBF7E9FF044608F1E5
:104470000200A74EC0F313000D467E44032867D206
:10448000D6E900232046FCF75DF91ED100980028EC
:1044900002BFD6E9000110B0BDE8F08DFCF7BBF813
:1044A00007460C469B4A9C4BFBF7CFFF06460D4642
:1044B0009A4A9B4B38462146FBF7C7FF10B032465D
:1044C0002B46BDE8F04DFBF719BF4FF05532954B29
:1044D00020462946FBF7B9FF0022934BFBF7B2FFBA
:1044E00006460F4622462B4610461946FBF7ADFFFF
:1044F00032463B46FBF7A9FF064600980F46F0B14F
:10450000FCF789F880468A46824A834BFBF79DFF79
:1045100032463B46FBF796FF22462B46FBF78FFFC2
:1045200005460C467D4A7E4B40465146FBF78DFFC3
:1045300010B02A462346BDE8F04DFBF780BF0B467E
:1045400010B0324620462946BDE8F04DFBF777BF54
:1045500000224FF080432046FBF7D0FE02460B4678
:1045600020462946FBF7E3FF06460F460098FCF776
:1045700052F8CDE9040132463B4610463946FBF776
:1045800064FF0C9069480C9A4044019009910B46D5
:104590001046FBF75AFF8246024665488B46C8F133
:1045A00051080B4608F5D72803217844FEF74CFD47
:1045B00052465B46FBF749FF0A905E480D91524612
:1045C0005B4604217844FEF73FFD099B0C9AFBF7FC
:1045D0003CFF844601980D9B40EA080860460A9A11
:1045E000FBF78CFE83460891B8F1000F4EDD4FF0CB
:1045F000FF3220462946FCF711FA22462B46FBF7EC
:1046000024FF804600988A4660B3DDE90401414AF0
:10461000414BFBF71AFF099100905A46404651461C
:10462000089BFBF76BFE32463B46FBF70EFF099BF0
:10463000009AFBF763FE42465346FBF703FF224610
:104640002B46FBF7FCFE04460D46DDE90401334A28
:10465000334BFBF7FAFE10B022462B46BDE8F04D77
:10466000FBF7EDBE5A464046089BFBF747FE324635
:104670003B46FBF7EAFE42465346FBF7E3FE10B02B
:1046800022462B46BDE8F04DFBF7DCBE009840B358
:10469000DDE904011F4A204BFBF7D7FE80468A461E
:1046A0005A4620462946089BFBF7C9FE32463B4640
:1046B000FBF7CBFE42465346FBF7C1FE22462B4694
:1046C000FBF7BDFE04460D46DDE90401134A144B19
:1046D000FBF7BBFE10B022462B46BDE8F04DFBF7C2
:1046E000AEBE0B465A4620462946FBF7A8FE324688
:1046F0003B46FBF7AAFE10B022462B46BDE8F04D24
:10470000FBF7A0BE0000F07F645F09000000F03FEF
:1047100042080000763C7935EF39EA3D0000E0FEC2
:10472000422EE63F5555D53F0000E03F86EBF9FFAE
:10473000DA060000D80600002DE9F04104463048B2
:104740000025814205DA21F00042824201D805D1DC
:1047500024B12046BDE8F041FEF7D4BCB1F5801F7E
:104760001BDA52EA040008D000290FDA0120FEF714
:10477000E1FCBDE8F041FEF7C8BC0220FEF7DAFC20
:10478000FEF7B8FC81F00041BDE8F0816FF035051F
:1047900036222046FCF742F9044605EB2150A0F2F0
:1047A000FF32D00F40F2FF331B1A0D4663F31F5543
:1047B0001044FBF730FF06460F4629462046FFF718
:1047C0000DFE104A104BFBF740FE04460D460F4A03
:1047D0000F4B30463946FBF738FE22462B46FBF797
:1047E0008DFD05460C460B4A0B4B30463946FBF710
:1047F0002CFE2A462346BDE8F041FBF77FBD0000B2
:104800000000F07F0EE526157BCBDB3F362BF11148
:10481000F3FE593D00609F501344D33F6420FCF7E2
:1048200069FE4FF4E13000F035F94FF4165000F016
:1048300099F9FFF7CBFD0020FCF739F90120FCF7CF
:1048400036F9002211461148FCF7F0F90122002147
:104850000E48FCF7EBF9FCF72FFBFCF7B3FCFCF779
:10486000CDFAFCF79BFBFDF791F800F039F84FF417
:1048700080610748FDF73DF906A0FEF797F903E0D0
:10488000FEF7E4F9FDF7DCFBFAE7000000007A44EC
:10489000000C014070616765206D61696E00000069
:1048A00010B502214FF4B470FCF784FDFCF7A6FAB2
:1048B000FCF702FBFCF772FB10BD000010B50146CF
:1048C0000648008808444FF4FA7390FBF3F403FBA6
:1048D000140082B20148801D805C10BD225E002061
:1048E00010B510210348FDF706F920210148FDF716
:1048F00000F910BD001001402DE9F04700231A46D1
:1049000054494FF48040FCF761F900205249088077
:10491000524908800DE0FCF7E3FC514840884E49BD
:10492000098808444C4908804C480088401C4B4981
:1049300008804A4800881428EDDB47480088142185
:1049400090FBF1F04449088008460088454908601A
:1049500000231A4644494FF48040FCF737F9002001
:104960003D4908803D4908800DE0FCF7B9FC3C4812
:104970004088394909880844374908803748008801
:10498000401C36490880354800881428EDDB324841
:104990000088142190FBF1F02F4908800846008818
:1049A0003249086000231A464FF081414FF480409D
:1049B000FCF70CF900202E490860012142F210702A
:1049C000FCF7F8FC4FF4FA70FCF794FD002029493D
:1049D000086001212848FCF743FD01212748FCF726
:1049E00001FA00BF264800780028FBD000202449A7
:1049F000087001212048FCF733FD01211F48FCF716
:104A0000F1F900BF1E4800780028FBD0FCF722FB1C
:104A10001849086008460068FBF780FE0646002239
:104A2000184BFBF712FD04460022174BFBF77FFDE6
:104A30008046FBF7B7FE1549086008460168144830
:104A4000FBF7ECFB1149086000200D490870BDE838
:104A5000F08700000000C8434A000020400000200A
:104A6000242100205C00002000401C486000002041
:104A700018000020A400002008000240002401408B
:104A80001C0000200000F03F00F07E409C00002051
:104A90000080F74310B586B00446012144F20500BA
:104AA000FDF744FA05A8FDF728F84FF40070ADF8BB
:104AB000140018208DF8170003208DF8160005A9A2
:104AC0002648FCF779FF05A8FDF717F84FF480603A
:104AD000ADF8140004208DF8170005A91F48FCF755
:104AE0006BFF01218803FDF721FA1D48FEF754F9F9
:104AF00001A8FEF770FA01940020ADF80800ADF8A7
:104B00000A00ADF80C000C20ADF80E000020ADF846
:104B1000100001A91248FEF7E9F920211048FEF71C
:104B200017F910210E48FEF713F9012240F2255122
:104B30000B48FEF7B6F901210948FEF721F92520B7
:104B40008DF8000001208DF801008DF802008DF82D
:104B500003006846FDF78CF806B010BD0008014060
:104B60000038014010B586B0044601210520FDF74C
:104B7000DDF905A8FCF7C1FF0420ADF814001820EA
:104B80008DF8170003208DF8160005A92648FCF7BC
:104B900013FF05A8FCF7B1FF0820ADF814000420AE
:104BA0008DF8170005A92048FCF706FF01214804ED
:104BB000FDF79CF91D48FEF7EFF801A8FEF70BFA88
:104BC00001940020ADF80800ADF80A00ADF80C0023
:104BD0000C20ADF80E000020ADF8100001A913481C
:104BE000FEF784F920211148FEF7B2F810210F4892
:104BF000FEF7AEF8012240F225510C48FEF751F9BC
:104C000001210A48FEF7BCF826208DF8000000209C
:104C10008DF8010001208DF802008DF80300684630
:104C2000FDF726F806B010BD000801400044004022
:104C30000D498988B1F5FA7F00DB70470A494A8837
:104C4000891D8854891F4988491C4FF4FA7291FBC9
:104C5000F2F302FB1311044A518011468988491C62
:104C6000918000BFE9E70000225E0020313233343A
:104C70003536373839304142434445460300000059
:104C8000000000000000000004FA97999999D93FAC
:104C9000AF788E1DC571CC3F9FC678D0099AC33FAF
:104CA000935555555555E53F599322942449D23F84
:104CB000DE03CB966446C73F44523EDF12F1C23F4B
:104CC0000000000000000000E84C00080000002088
:104CD00024010000163100080C4E000824010020B9
:104CE000FC62000026310008000000000000000007
:104CF00000000000000000000000000000000000B4
:104D00000000000000000000000000010203040198
:104D10000203040607080902040608000000000058
:104D20000000000000000000000000000000000083
:104D30000000000000000000000000000000000073
:104D40000000000000000000000000000000000063
:104D50000000000000000000000000000000000053
:104D60000000000000000000010000000000000042
:104D70000000000000000000000000000000000033
:104D80000000000000000000000000000000000023
:104D9000000000000000803F0000803F0000000095
:104DA0000000000000000000000000000000000003
:104DB00000000000000000000000000000000000F3
:104DC00000000000000000000000000000000000E3
:104DD00000000000000000000000000000000000D3
:104DE00000000000000000000000000000000000C3
:104DF00000000000000000000000000000000000B3
:0C4E0000000000000000000000000000A6
:0400000508000131BD
:00000001FF
