:020000040800F2
:1000000070630020490100080D1C0008451B000812
:10001000091C0008151400082F2F0008000000001C
:10002000000000000000000000000000792200082D
:10003000FB14000800000000951C00083D29000882
:100040006301000863010008630100086301000800
:1000500063010008630100087918000863010008C3
:100060006301000863010008630100081914000817
:1000700063010008630100086301000863010008D0
:1000800063010008630100086301000863010008C0
:100090006301000863010008630100089D1800085F
:1000A00063010008630100086301000863010008A0
:1000B0006301000863010008630100086301000890
:1000C0006301000863010008630100086301000880
:1000D00063010008292C0008612C00086301000856
:1000E0006301000863010008630100086301000860
:1000F0006301000863010008630100086301000850
:10010000630100086301000863010008630100083F
:10011000630100086301000863010008630100082F
:10012000630100086301000863010008630100081F
:10013000DFF810D000F0AAFC00480047A1480008F2
:10014000AFF30080706300200648804706480047F0
:10015000FEE7FEE7FEE7FEE7FEE7FEE7FEE7FEE777
:10016000FEE7FEE74129000831010008F0B480EA0B
:100170000102D40F4200B2EB410F02D20246084600
:1001800011464A0042D0C30DDDB2C1F3C752AD1AC9
:10019000202D35DAC1F3160141F4000204B15242B8
:1001A000C5F1200602FA06F12A411044B3EBD05FF4
:1001B00023D0C4B1012DA0EBC35009DCF0BC4FF03B
:1001C000004202EAC352DBB200F5000000F0A3BB1C
:1001D000400000F1807000EBC350A0F1807040EA55
:1001E000D170490009E0490841EAC071A0EBC35051
:1001F00000F50000400800EBC350F0BC00F082BBEB
:100200006142012202EB4101001BF6E7F0BC70479E
:1002100081F00041AAE780F00040A7E780EA0102F0
:1002200010B502F00043400022D04A001FD0010E5A
:1002300001EB1261C0F35600C2F3560240F4000015
:1002400042F40002A0FB022000047F39140400D015
:10025000401C50EA124001D44000491EC2B20C06B4
:1002600004EBD010401C4008802A02D003E000209C
:1002700010BD20F00100002900DA0020184310BD55
:1002800030B480EA010202F0004530F0004221F073
:10029000004013D090B1C30DD40DC2F31601C0F3CA
:1002A0001600E41A41F4000140F400027D3491424A
:1002B00001D3641C00E04900002C02DA30BC0020AD
:1002C00070474FF400000023914201D3891A034381
:1002D00040084FEA4101F7D151B1914202D14FF0AC
:1002E000004105E002D24FF0010101E06FF0010191
:1002F00003EBC450284430BC00F004BB2DE9FE4F92
:10030000804681EA0300C00F0C46009021F00041B6
:1003100023F00045B8EB0200A94105D24046214632
:1003200090461C460B46024623F00040104347D03F
:10033000270DC7F30A00C3F30A510290401A019037
:1003400040286BDAC3F3130040F4801B00989246F8
:1003500020B10023D2EB030A63EB0B0B0198594643
:10036000C0F14002504600F09CFA06460D46504649
:100370005946019A00F0B4FA10EB080061410024DC
:1003800087EA115284EAE7731A4340D0009A62B3B5
:10039000019A012A4FEA075215DC001B61EB0201AA
:1003A0004FF0004202EA0752CDE90042001C41F53D
:1003B000801132462B4600F0EBFA03B0BDE8F08F17
:1003C00040462146F9E7001B61EB0201001C41F5A4
:1003D000801300185B412018A2F5001747EB0301BA
:1003E00040EAD570B6196D4111E06D084FEA360646
:1003F00045EAC0754FEA0752001B61EB0201001C81
:1004000041F5801149084FEA300000195141324648
:100410002B4603B0BDE8F04F00F0ABBA00980122C4
:1004200040000023D0EB020263EBE073009821460A
:100430004FEAE074B8EB000061EB0401E9E783F0F8
:1004400000435BE781F0004158E72DE9FE4F81EA68
:10045000030404F0004421F0004100944FF0000B2D
:1004600023F0004350EA01045ED052EA03045BD05B
:10047000C3F30A54C1F30A552C44A4F2F334019493
:10048000A0FB0254C1F3130141F48011C3F3130321
:1004900043F4801301FB024400FB034E840A970AD5
:1004A00044EA815447EA8357A4FB076802958D0A02
:1004B00005FB07854FEA932C04FB0C542705029D8E
:1004C0004FEA065847EA1637B5EB08056EEB070CFE
:1004D000870E920E47EA811742EA8312A7FB0201B8
:1004E000B6EB0B0164EB00042B0D43EA0C335E18F2
:1004F00044EB1C50DA465146E7FB0201C5F31304F6
:100500004FEA0B3343EA14534FEA0432019C43EAA7
:100510000603A4F10C040294009CCDE900B400F0A1
:1005200037FA03B0BDE8F08F00200146F9E72DE966
:10053000F04D81EA030404F0004B21F0004514461D
:100540004FF0000A23F0004150EA050220D054EA9F
:1005500001021DD0C5F30A570246C5F31303C1F3C8
:100560001300C1F30A5640F4801543F48013A7EB3F
:100570000608101BD64608F2FD3873EB050002D3BF
:1005800008F1010801E092185B41B8F1000F03DAAD
:1005900000200146BDE8F08D00204FF48011064692
:1005A00084460EE0171B73EB050705D3121B63EBA4
:1005B000050306434CEA010C49084FEA3000921843
:1005C0005B4150EA0107EDD152EA030012D082EA02
:1005D000040083EA0501084305D0101BAB4106D295
:1005E0000122002306E000224FF0004302E06FF0FA
:1005F000010253101AEB06004CEB085110EB0A00F5
:1006000041EB0B01BDE8F04D00F0B3B9C10F80EA3A
:10061000E0700844CA079623002100F07CB99623B5
:100620000022114600F077B90EB5C10F80EAE070E4
:100630000844CA07002140F233438DE80E000A4601
:100640000B4600F0A5F903B000BD0EB540F23341F2
:1006500002910021CDE900110A460B4600F098F9FD
:1006600003B000BD00F0004220F00040C10DC0F317
:10067000160040F400007F2901DA00207047962917
:1006800003DCC1F19601C84001E096398840002A98
:10069000F4D04042704720F00040C10DC0F3160076
:1006A00040F400007F2901DA00207047962903DC1E
:1006B000C1F19601C840704796398840704770B5BF
:1006C000C1F30A5201F000450024C1F3130140F2C6
:1006D000FF3341F480119A4201DA002070BD40F2EC
:1006E00033439A42A2F2334203DC524200F0E8F86C
:1006F00000E090402C43F1D0404270BDC1F30A525B
:1007000010B5C1F3130140F2FF3341F480119A4256
:1007100001DA002010BD40F233439A42A2F2334284
:1007200003DC524200F0CCF810BD904010BD00F048
:10073000004230F000400AD0C10D01F56071C0F3F5
:10074000160042EA0151C2084007114370470020D9
:100750000146704730B5041E71F1000404DB4FF010
:100760000044404264EB0101141E73F1000405DBF8
:100770001C464FF00043524263EB04038B4208BF18
:10078000824230BD30B5041E71F1000404DB4FF02D
:100790000044404264EB0101141E73F1000405DBC8
:1007A0001C464FF00043524263EB0403994208BFDA
:1007B000904230BD01F0004330B421F0004150EAD6
:1007C000010206D00A0DA2F56072C1F31301002ADE
:1007D00002DC30BC00207047440F44EAC104C10071
:1007E000E01830BC00EBC25000F08CB8002801DBF0
:1007F000C0F10040002901DBC1F100418142704796
:10080000002801DBC0F10040002901DBC1F10041FB
:100810008842704730B50B46014600202022012453
:1008200009E021FA02F59D4205D303FA02F5491BBE
:1008300004FA02F52844151EA2F10102F1DC30BDD4
:100840002DE9F05F0546002092469B468846064605
:10085000814640241BE0284641464746224600F098
:100860002FF853465A46C01A914110D311461846E4
:10087000224600F016F82D1A67EB01084F46224673
:100880000120002100F00DF817EB00094E41201E59
:10089000A4F10104DFDC484631462A464346BDE860
:1008A000F09F202A04DB203A00FA02F10020704772
:1008B0009140C2F1200320FA03F31943904070479E
:1008C000202A04DB203A21FA02F00021704721FAA5
:1008D00002F3D040C2F1200291400843194670470C
:1008E000202A06DBCB17203A41FA02F043EAE073F4
:1008F00006E041FA02F3D040C2F1200291400843E1
:10090000194670470029A8BF7047401C490008BF1E
:1009100020F00100704710B4B0FA80FC00FA0CF02F
:1009200050EA010404BF10BC704749B1CCF1200467
:1009300021FA04F411FA0CF118BF012121430843F4
:10094000A3EB0C01CB1D4FEA00614FEA102042BF20
:10095000002010BC704700EBC35010440029A4BF16
:1009600010BC7047401C490008BF20F0010010BCBB
:10097000704710B5141E73F1000408DA401C41F1F1
:10098000000192185B411A4301D120F0010010BD13
:100990002DE9F04D92469B4611B1B1FA81F202E089
:1009A000B0FA80F220329046FFF77BFF04460F46F4
:1009B00040EA0A0041EA0B0153465A46084313D065
:1009C000114653EA010019D0C8F140025046FFF722
:1009D00077FF05460E46504659464246FFF761FFEF
:1009E000084305D0012004E020463946BDE8F08DDB
:1009F0000020054346EAE0762C4337430A98630516
:100A0000E40AA0EB08000022FD0A44EA47540A3039
:100A100002D500200146E9E7010510196941DDE929
:100A2000084500196941BDE8F04DA2E770B521F015
:100A3000004303430CD0C1F30A550024D5EB040551
:100A400064EB0403D617AD1AB34102DB0020014664
:100A500070BD201841EB025170BDC1F30A52C1F3C1
:100A6000130140F2FF3341F480119A4202DA002070
:100A70000146704740F233439A42A2F2334202DC0D
:100A80005242FFF71DBFFFF70CBF0000064C074D99
:100A900006E0E06840F0010394E80700984710344E
:100AA000AC42F6D3FFF748FB284D0008484D00083C
:100AB00010B50446204600F007F921464FF4807037
:100AC00000F0ECF810BD00002DE9FC4107460D4692
:100AD00090464BA001F0D1FB002000900190012036
:100AE0004A49086000204A49C1F8A8010120494943
:100AF000086000204849C1F88801B8F1000F03D010
:100B0000B8F1010F76D13BE0002405E0601C385CB1
:100B10000DF80400601CC4B2AC42F7DB002425E0F1
:100B200000261FE01DF8040000F0800038B101200D
:100B30003649091D086039A001F09FFB03E0002041
:100B40003249091D08600020304908601DF8040082
:100B50004006000E0DF8040001202D49C1F8AC013B
:100B6000701CC6B2082EDDDB601CC4B2AC42D7DB01
:100B700001202649091D08602549C1F8A8013AE06D
:100B8000002405E0601C385C0DF80400601CC4B251
:100B9000AC42F7DB002422E000261CE01DF8040034
:100BA00000F0800020B101201A49091D086003E00F
:100BB00000201849091D08600020164908601DF82A
:100BC00004004006000E0DF8040001201249C1F88F
:100BD0008C01701CC6B2082EE0DB601CC4B2AC42B3
:100BE000DADB01200B49091D08600B49C1F88801B7
:100BF00001E0FFE700BF00BF2046BDE8FC81000028
:100C0000535049205374617274000000AC012342B8
:100C1000000023428C01244200002442736461746A
:100C2000613100002DE9FF4704460F469046994682
:100C3000254626463846FFF77AFD104A104BCDE987
:100C40000001FFF702FCCDE90201FFF757FD8246E4
:100C5000CAF38D300543CAF30D00064348F4005033
:100C6000494600F01BF84946304600F017F849465F
:100C7000284600F013F8BDE8FF8700003A8C30E208
:100C80008E79254070B504460D46164633462A46F1
:100C900021464FF48040FFF7C5FF70BD7CB5044688
:100CA0000D46084903C9CDE90001200A8DF801006D
:100CB000E0B28DF802002A4602216846FFF704FFE1
:100CC0007CBD0000E04C000838B5044614B1012C8E
:100CD00025D112E00121402001F0ECF84FF4E05062
:100CE000ADF8000003208DF8020010208DF80300FD
:100CF00069460C4800F030FE12E00121080201F0C4
:100D0000D9F81C20ADF8000003208DF80200102057
:100D10008DF803006946044800F01EFE00E000BFA5
:100D200000BF38BD00180140002001402DE9F05FF0
:100D30000027B84600261AE000202F4921F81600A7
:100D400001212E4800F02AFB00BF02212B4800F0B1
:100D500015F90028F9D00221284800F06CF827483E
:100D600000F008F9244921F81600701CC6B2642E60
:100D7000E2DB00251EE0002416E01F4830F81410C6
:100D80000246601C32F8100081420BDD104630F83C
:100D900014800146601C31F8100021F81400601C1A
:100DA00021F81080601C84B2C5F16400A042E4DC2C
:100DB000681C85B2642DDEDB0A2505E00E4830F89C
:100DC00015000744681C85B25A2DF7DB5020B7FB8D
:100DD000F0F73846FFF723FC83460949FFF71EFA70
:100DE00082460849FFF74CFA8146FFF754FC064952
:100DF0008880BDE8F09F000020490020003C0140B1
:100E000000404E4500F07F452021002010B50446EB
:100E1000204600F00DFA00BF204600F0B8F8002888
:100E2000FAD1204600F0C5FA00BF204600F098F83D
:100E30000028FAD110BDCA430260704721B1826810
:100E400042F00102826003E0826822F001028260C7
:100E50007047000000B58DB00121084600F0FAFF90
:100E60001D4803901D4802900015099080200790AE
:100E700040000890002006904FF400500B90002096
:100E80000C904FF4806005900020049020200A9080
:100E900002A9134800F013FB0121114800F0E4FA05
:100EA000012202210E4800F001FB4FF4A06000F087
:100EB000E7FE0B208DF8040001208DF807000020CC
:100EC0008DF805008DF8060001A800F0A1FE0220B3
:100ED00000F0BCFA0DB000BD202900204C240140D8
:100EE0000800024021B1826842F48072826003E00F
:100EF000826822F480728260704721B1826842F475
:100F00008012826003E0826822F48012826070475F
:100F100008B50121042000F0CDFF0121102000F0D0
:100F2000C9FF0220ADF8000000208DF80300032067
:100F30008DF802006946084800F00EFD0C20ADF85F
:100F4000000000208DF8030003208DF802006946A0
:100F5000024800F001FD08BD0008014000100140FA
:100F6000014600208A6802F004020AB1012000E074
:100F7000002070470146C86C80B2704702460020CE
:100F800013680B400BB1012000E0002070470146C0
:100F900000208A6802F008020AB1012000E0002067
:100FA0007047000030B502460020002350680F4C07
:100FB00020400D790C6844EA052420435060906875
:100FC0000B4C2040D1E902542C434D7944EA4504AE
:100FD00020439060D06A20F470000C7C641EE4B260
:100FE000234340EA0350D06230BD0000FFFEF0FF13
:100FF000FDF7F1FF00B585B00121480200F05AFF6E
:101000004FF4004000F01AFF00208DF80500039017
:101010004FF400200290002000908DF80400012081
:101020008DF8100069461448FFF7BCFF0023012229
:101030001146114800F070F801210F48FFF752FFE8
:1010400001210D48FFF7FAFE0B4800F0F1F800BF50
:101050000948FFF79CFF0128FAD0074800F0A9F9DA
:1010600000BF0548FFF77CFF0128FAD001210248A4
:10107000FFF743FF05B000BD0024014010B586B066
:101080000446002001908DF808008DF809004FF407
:10109000602003900020049003208DF8140001A923
:1010A0002046FFF77FFF06B010BD00002DE9F0419C
:1010B0004FF6FF750026002411E0154830F81400A3
:1010C000B04202DD124830F81460114830F81400C4
:1010D000A84202DA0E4830F81450601C84B2B4F50D
:1010E000406FEADB701B87B240F6E44007FB00F874
:1010F0004FEAE87108EB11510813FFF787FA054929
:10110000086008460068FFF7C6FA80B2BDE8F081C3
:101110002029002018000020F0B504460D460020CC
:101120000021092D11DDE068A5F10A0606EB46074E
:10113000072606FA07F18843A5F10A0606EB4606DC
:1011400003FA06F10843E0600CE0206905EB45076F
:10115000072606FA07F1884305EB450603FA06F170
:1011600008432061072A0FDA606B561E06EB8607DC
:101170001F2606FA07F18843561E06EB860605FA77
:1011800006F10843606322E00D2A0FDA206BD61FB8
:1011900006EB86071F2606FA07F18843D61F06EBE3
:1011A000860605FA06F10843206310E0E06AA2F122
:1011B0000D0606EB86071F2606FA07F18843A2F103
:1011C0000D0606EB860605FA06F10843E062F0BD5F
:1011D00010B501214FF4044000F06CFE4FF40040C4
:1011E00000F02CFE1048FFF749FF002301220C21DC
:1011F0000D48FFF791FF0D48FFF740FF0023012244
:101200000D210A48FFF788FF01210848FFF716FE65
:101210000648FFF7FBFD01210348FFF70FFE0248D8
:10122000FFF7F4FD10BD000000280140003C014024
:10123000816841F008018160704700002DE9F84F96
:101240004FF48066002740F6FF780025002419E05F
:101250000020214921F814000121204800F09EF8C7
:1012600000BF02211D48FFF789FE0028F9D00221A6
:101270001A48FFF7E0FD1948FFF77CFE164921F8F0
:101280001400641C701EA042E2DC002409E0124835
:1012900030F81450BD4200DD2F46454500DAA8461F
:1012A000641C701EA042F2DCA7EB080080B2ADF80F
:1012B0000200BDF80200FFF7B2F983460849FEF7C5
:1012C000ADFF82460749FEF7DBFF8146FFF7E3F9F2
:1012D00005494880BDE8F88F2041002000280140E2
:1012E00000404E4500F07F45202100202DE9F84FB9
:1012F000002640F6FF770025002419E0002022494F
:1013000021F814000121214800F048F800BF022113
:101310001E48FFF733FE0028F9D002211B48FFF7D3
:101320008AFD1A48FFF726FE174921F81400641CAD
:1013300040F2FF308442E1DB002409E0124830F83B
:101340001450B54200DD2E46BD4200DA2F46641C23
:1013500040F2FF308442F1DBF01B80B2ADF80200B6
:10136000BDF80200FFF75BF982460949FEF756FF18
:1013700081460849FEF784FF8046FFF78CF906494D
:101380004880BDE8F88F000020410020002801407F
:1013900000404E4500F07F452021002021B18268A9
:1013A00042F4A002826003E0826822F4A00282601C
:1013B0007047816841F00401816070473EB5054681
:1013C0000C460121022000F055FD114801F0F4FA0D
:1013D000684601F053FB681E80B2ADF80400601E41
:1013E00080B2ADF8000000208DF80800ADF80600CE
:1013F000ADF802006946064801F0EEFA20210448E3
:1014000001F0E0FA0121024801F0CAFA3EBD0000F5
:101410000004004000BFFEE710B5022000F030F8E5
:1014200068B1022000F012F80021054800F01CF815
:1014300000210448FFF702FD01200349087010BD98
:1014400008000240002401401C00002000F08051F0
:1014500011B10349086001E002494860704700008B
:10146000040402400000024021B1026842F001027F
:10147000026004E002684FF6FE731A400260704793
:1014800001460020002201F0805313B1054B1A6879
:1014900001E0054B1A6802EA01030BB1012000E0EC
:1014A0000020704700040240000002401AB10368A7
:1014B0000B43036002E003688B430360704710B581
:1014C0000022026847F6F0739A430C6A8B68234344
:1014D0000C6923434C6923438C692343CC69234320
:1014E0004C6A23438C6A23431A430260CB684360EF
:1014F0000B6883604B68C36010BD704700B503463E
:1015000003E04FF47A7000F005F8181EA3F1010310
:10151000F7D100BD00EBC001C9004FF0E0225161DE
:10152000002191610521116100BF4FF0E02109699F
:1015300001F480310029F8D004214FF0E02211613C
:101540007047000070B500214748484AC2E90010C2
:1015500047484849484A03C200F09EFB4748006894
:10156000FFF7E5F805462A460B4645A001F0B0FA1C
:1015700046480068FFF7DBF805462A460B4644A0BC
:1015800001F0A6FA45480068643845490968884270
:101590003DD80021434A11605160434A11605160B7
:1015A0000A20FFF7ABFF414801684148006832302C
:1015B000814201D90B2421E03D48006832383B4983
:1015C0000968884201D90E2418E03A492B4800687E
:1015D000FEF7CCFD05462D4801682846FFF706F9C1
:1015E0000CD8354925480068FEF7C0FD0546274858
:1015F00001682846FFF704F900D80C242F48016839
:101600002F480068283081422CD90D242AE0234835
:101610000068643822490968884223D92949096841
:101620008808FEF7FCFF0546274801682846FFF7B3
:10163000DDF807D8254924480068FFF7D7F801D21C
:101640000A240FE01F4800680B21B0FBF1F630467A
:10165000FEF7E5FF05461C4801682846FFF7D0F86D
:1016600000D20924204670BD00C06240B8000020AE
:10167000E17A14AE47E1DA3FC00000209C00002070
:101680006E302E76616C3D252E336600A000002062
:101690006E352E76616C3D252E3366005800002095
:1016A000F8000020D0000020D800002064000020B6
:1016B000600000200000A0410000C8426800002037
:1016C0005C000020700000200C0100200000FA44A3
:1016D0002DE9FF5F54480068FFF729F804460D46DE
:1016E000514801685148FEF793FD51490190FEF7BA
:1016F00095FD8346FFF71BF8064600224D4BFEF78B
:10170000A4FE22462B46CDE90201FEF710FF8046DB
:10171000FEF7F4FF484908604FF48061474800F045
:10172000BAF947480068A0F5C8704349096888427B
:1017300002D94FF0020A73E03F4801684048006850
:1017400000F51670814242D93E480068FEF77DFFE1
:1017500080463D4A3D4BFEF7EAFE04460D463C48B6
:101760000068FEF77FFF8046FEF75EFF06462246D2
:101770002B46FEF7EFFF02D24FF0030A50E031484C
:101780000068FEF762FF0646324A334BFEF7CFFE93
:10179000804689462E480068FEF764FF0646FEF73D
:1017A00043FF044642464B46FEF7ECFF38D8254936
:1017B0000968A1F16400FEF732FF0446244801687D
:1017C0002046FFF71DF82BD84FF0080A28E04FF409
:1017D00080611A4800F05DF93220FFF78FFEFFF7B5
:1017E000A5FA1E4880881E49086008460068FEF772
:1017F0002CFF04461B4A1C4BFEF727FE0646FEF74D
:101800007DFF174908600846006842F6A1518842EA
:1018100001D34FF0050A1248016814A001F058F9ED
:10182000504604B0BDE8F09F100100200000404188
:101830000000FA440000F03F08010020000C0140C5
:101840007800002070000020A4703D0AD7A30A4051
:1018500014010020C3F5285C8FC20940202100201C
:101860000001002048E17A14AE4712406E362E7611
:10187000616C3D252E33660010B5012000F042F862
:1018800048B1012000F038F800F05EF9012002496B
:10189000087000F0EDFC10BD1D00002010B52020E8
:1018A00000F030F848B1202000F026F800F04CF9A4
:1018B00001201049087000F0DBFC402000F022F805
:1018C00048B1402000F018F800F03EF90120094925
:1018D000087000F0CDFC802000F014F848B18020A2
:1018E00000F00AF800F030F901200249087000F019
:1018F000BFFC10BD1D0000200149086070470000BA
:1019000014040140014600200022074B1B6803EA33
:101910000102054B14331B680B4013B10AB10120BF
:1019200000E00020704700000004014008B50121DC
:10193000082000F0BFFA4FF4E060ADF8000002208C
:101940008DF8020010208DF803006946014800F070
:1019500003F808BD000C01402DE9F04102460025C6
:101960000026002000230024002791F803C00CF07B
:101970000F0591F803C00CF0100CBCF1000F03D060
:1019800091F802C04CEA050591F800C0BCF1000FC7
:1019900031D0146800202BE04FF0010C0CFA00F35A
:1019A000B1F800C00CEA03069E4220D183004FF03C
:1019B0000F0C0CFA03F7BC4305FA03FC4CEA0404D1
:1019C00091F803C0BCF1280F06D14FF0010C0CFABE
:1019D00000FCC2F814C00AE091F803C0BCF1480F43
:1019E00005D14FF0010C0CFA00FCC2F810C0401CED
:1019F0000828D1D31460B1F800C0BCF1FF0F34DD6A
:101A0000546800202EE000F1080C4FF0010808FA9D
:101A10000CF3B1F800C00CEA03069E4221D183000A
:101A20004FF00F0C0CFA03F7BC4305FA03FC4CEA29
:101A3000040491F803C0BCF1280F05D100F1080C93
:101A400008FA0CF8C2F8148091F803C0BCF1480FF2
:101A500007D100F1080C4FF0010808FA0CF8C2F8A1
:101A60001080401C0828CED35460BDE8F0810246A7
:101A7000002093680B400BB1012000E0002070476C
:101A800002460020D3680B400BB1012000E000208B
:101A9000704741617047016170474FF6FF710180E7
:101AA000022181700421C1707047000010B5044606
:101AB000012C06D0022C13D0032C20D0042C3CD1B6
:101AC0002CE001211E48FFF7DBFF20B901211C4853
:101AD000FFF7E1FF03E001211948FFF7DAFF2DE0EE
:101AE00002211748FFF7CCFF20B902211448FFF765
:101AF000D2FF03E002211248FFF7CBFF1EE02021B6
:101B00000F48FFF7BDFF20B920210D48FFF7C3FFA5
:101B100003E020210A48FFF7BCFF0FE040210848FE
:101B2000FFF7AEFF20B940210548FFF7B4FF03E0FF
:101B300040210348FFF7ADFF00E000BF00BF10BD2C
:101B40000014014000BFFEE710B500F013F807498C
:101B500008700748007840B1002005490870034923
:101B600009783039C8B2FFF7A1FF10BD1E00002070
:101B70001D0000207CB520A0006801901FA0006817
:101B80000090002530E01E211D48FFF784FF01A8CA
:101B9000415D1B48FFF77DFF002421E01DF8041084
:101BA0001748FFF764FFC8B90A20FFF7A7FC1DF824
:101BB00004101348FFF75BFF80B900BF1DF8041045
:101BC0000F48FFF754FF0028F8D01E210C48FFF7FC
:101BD00060FF0C4800EB8500005D7CBD601CC4B25A
:101BE000042CDBDB681CC5B2042DCCDB1E210448B1
:101BF000FFF74FFF0020F0E70204081020408001AB
:101C0000001C0140D04C000800BFFEE770470000F8
:101C100070B5002100230F22C47804B3154C24684A
:101C200004F4E064C4F5E064210AC1F10403CA408D
:101C3000447804FA03F184781440214309010E4CDE
:101C40000678A155047804F01F050124AC400578FE
:101C50006D11AD0005F1E025C5F8004109E00478FB
:101C600004F01F050124AC40044D0678761145F8B8
:101C7000264070BD0CED00E000E400E080E100E0F3
:101C800002490143024A1160704700000000FA0552
:101C90000CED00E0704700002DE9FE4300200290AB
:101CA000019000900A20FFF729FC00231A465349AF
:101CB0004FF48040FEF7B6FF0020514908800290A3
:101CC0000DE0FFF713FB4F4840884D490988084451
:101CD0004B490880BDF80800401C80B20290BDF856
:101CE00008001428EDDB46480088142190FBF1F031
:101CF00043490880084600884349086000231A4683
:101D000042494FF48040FEF78DFF00203C49088097
:101D100002900DE0FFF7EAFA3A484088384909880E
:101D2000084437490880BDF80800401C80B2029082
:101D3000BDF808001428EDDB31480088142190FB21
:101D4000F1F02F49088008460088314908600023D7
:101D50001A464FF081414FF48040FEF763FF0020A8
:101D60002C490860072140F2EF20FFF727FB0020F5
:101D70002949086001212948FFF776FB01212848FD
:101D8000FFF75CF800BF274800780028FBD0002050
:101D90002449087001212148FFF766FB01212048F2
:101DA000FFF74CF800BF1F4800780028FBD0FFF772
:101DB0007DF90446FEF733FC1B49086008460068BD
:101DC000FEF7B5FC06460022184BFEF73EFB044624
:101DD0000022174BFEF7ABFB8046FEF7EBFC1549E4
:101DE0000860084601681448FEF718FA11490860AF
:101DF00000200C490870BDE8FE83000000401C482C
:101E00004A00002020210020640000200000C84378
:101E10006800002018000020900000200800024008
:101E2000002401401C000020A80000200000F03F1A
:101E300000F07E40A00000200080F7430146002013
:101E4000034A506820F44040084350607047000047
:101E50000010024029B1064A52690243044B5A61FC
:101E600004E0034A52698243014B5A617047000003
:101E70000010024029B1064AD2690243044BDA61DC
:101E800004E0034AD2698243014BDA6170470000E3
:101E90000010024029B1064A12690243044B1A613C
:101EA00004E0034A12698243014B1A617047000043
:101EB0000010024029B1064A92690243044B9A611C
:101EC00004E0034A92698243014B9A617047000023
:101ED0000010024029B1064AD2680243044BDA607E
:101EE00004E0034AD2688243014BDA607047000085
:101EF0000010024030B500210022002400232D4DA7
:101F00006D6805F00C0121B1042905D0082923D101
:101F100005E0294D056022E0274D05601FE0254DB5
:101F20006D6805F47012234D6D6805F48034022548
:101F300005EB92421CB9214D554305600BE01D4D48
:101F40006D6805F400351DB11C4D5543056002E078
:101F5000194D5543056002E0174D056000BF00BFF5
:101F6000144D6D6805F0F0010909154D6B5C0568AD
:101F7000DD4045600F4D6D6805F4E061090A104DC4
:101F80006B5C4568DD4085600A4D6D6805F4605105
:101F9000C90A0B4D6B5C4568DD40C560054D6D6839
:101FA00005F44041890B074D6B5CC568B5FBF3F543
:101FB000056130BD0010024000127A0000093D00AA
:101FC0001F0000202F0000202DE9F04F87B000F007
:101FD000DDFD9148007801287ED102F019F98F4982
:101FE0008F480068FEF70CFC2DD88E480068FEF77D
:101FF0009EFBCDE904018B4801688B48FEF708F988
:1020000081468A49FEF70AF98046FEF790FB0646AC
:102010000F4687480068FEF78AFB80460022854B02
:10202000FEF713FA32463B46CDE90201FEF70DFA00
:102030000446DDE90423FEF77AFA8246FEF75EFBEA
:102040007D4908602CE07D480068FEF770FB06467D
:102050000F467A4801687448FEF7DAF881467849F5
:10206000FEF7DCF88046FEF762FBCDE90201754819
:102070000068FEF75CFB804600226E4BFEF7E5F938
:102080008246DDE90223FEF7E0F932463B46CDE920
:102090000401FEF74CFA0446FEF730FB664908607F
:1020A0006948006840F6E441884203D34FF47A70EF
:1020B0006149086065480088FEF7C7FA82468B468A
:1020C00063480088FEF7C1FA00225A4BCDE90001AF
:1020D000FEF7BBF9804600E064E052465B46FEF73F
:1020E00026FA06460022534BFEF7A9F904460022C1
:1020F000584BFEF7AAF94FF06632574BCDE9020173
:10210000FEF7A3F9CDE90401FEF7F8FA5349086098
:10211000444801684448FEF77BF881464C480088F3
:10212000FEF77DFA82464946FEF7AAF80446FEF716
:10213000FEFA074600223F4BFEF787F90546FEF7F9
:10214000DDFA4749086008460068FEF77EFA064651
:1021500002F034FB80460022424BFEF776F904463B
:10216000FEF7CCFA3E49086001F092FC4FF4806122
:102170003D48FFF790FC02F0EFFB2F48008881B24A
:10218000032000F0EDFC3548008881B2042000F007
:10219000E7FC3348008881B2062000F0E1FC012012
:1021A0001D4908701C480078022814D1C1012E482E
:1021B000FFF76FFC4FF400712B48FFF76AFC0A2011
:1021C000FFF79CF900F064FC2849002000F0FAF8C1
:1021D00002201149087010480078032819D14FF4E3
:1021E00080712148FFF757FC4FF400711E48FFF73C
:1021F00050FC0A20FFF782F909E001F0E7FC0690A5
:10220000069801F085FE0448007800B900E0F4E784
:1022100000BF07B0BDE8F08F180100200000164491
:102220009000002094000020000040410000FA448B
:10223000AC0000200000F03F780000209800002053
:1022400000609F45B0000020700000204C0000207E
:102250004A00002000408F406666F23F7C0000206C
:102260008000002000003440000C014040420F007C
:1022700010B502F051FB10BD70470FB400B59BB014
:102280001DA8019002A8019A1C9900F06DFE002083
:10229000019002A800F014F81BB05DF814FB0000D8
:1022A00010B504462146054800F031FE00BF8021EC
:1022B000024800F05FFD0028F9D010BD0038014051
:1022C00070B50446002504E0605DFFF7E9FF681C77
:1022D00085B2605D0028F7D170BD10B500F002F83E
:1022E00010BD00000CB5002001900090334800683C
:1022F00040F480303149086000BF3048006800F485
:10230000003000900198401C0190009818B9019885
:10231000B0F5A06FF1D12948006800F4003010B189
:102320000120009001E0002000900098012843D196
:102330002348006840F01000214908600846006802
:1023400020F0030008600846006840F002000860C2
:102350001A4840681949486008464068486008467D
:10236000406840F4806048600846406820F47C1073
:1023700048600846406840F4E81048600846006835
:1023800040F08070086000BF0C48006800F00070EA
:102390000028F9D00948406820F003000749486048
:1023A0000846406840F00200486000BF03484068AB
:1023B00000F00C000828F9D10CBD0000001002400C
:1023C000002002402DE9F34F95B000BF00210C46DC
:1023D0000D460E460F468846894600200A90099011
:1023E000089040F24F200B9000200A90C8E0BDF802
:1023F0002800C82806DCBDF828101598322202FBF8
:1024000001000790BDF82800C82812DDBDF828009B
:10241000B0F5C37F0DDCBDF82800C83880B2099044
:10242000BDF8240042F210714FF47A7202FB0010E2
:102430000790BDF82800B0F5C37F13DDBDF8280074
:1024400040F24E2188420DDCBDF82800A0F5C37093
:1024500080B20990BDF82400FE494FF47A6202FB75
:10246000001007900798FEF7DAF800231A46014695
:1024700006904FF48040FEF7D5FBBDF828001428E5
:1024800002DC6420FFF73AF8BDF82800142806DDC6
:10249000BDF82800C82802DC3220FFF72FF8BDF86D
:1024A0002800C82807DDBDF82800B0F5C37F02DC8E
:1024B0003220FFF723F8BDF82800B0F5C37F08DD10
:1024C000BDF8280040F24E21884202DC1E20FFF7B2
:1024D00015F8FEF7B3FEE0484088E049BDF8282033
:1024E00021F81200BDF8282031F81200FEF7ADF8EF
:1024F0000022DB4BCDE90001FDF7A7FF0022D94BFD
:10250000CDE90201FEF713F8CDE90401FEF7D7F893
:1025100080B20F90D149BDF8282031F81200FEF7A3
:1025200094F842464B46CDE90401FEF72BF922D23E
:10253000CA49BDF8282031F81200FEF786F8424655
:102540004B46CDE90201FDF77AFF0022C64BCDE9EB
:102550000401FEF717F90ED2C049BDF8282031F862
:102560001200FEF772F880468946BDF82800FEF793
:102570006CF882468B46BDF82800401C80B20A9059
:10258000BDF82800BDF82C108842FFF630AF0023BC
:102590001A46B6494FF48040FEF744FB42464B468C
:1025A000B348B449FDF751FFCDE90C0150465946F7
:1025B000FEF7A4F880B20A9028E0BDF82810891E22
:1025C000A64A32F81100FEF740F8CDE90401DDE932
:1025D0000C23FEF7D7F814D2A049BDF8282031F813
:1025E0001200FEF732F8CDE90401DDE90C23FEF715
:1025F000B1F806D8BDF82800FEF727F804460D46C6
:102600000AE0BDF82800401C80B20A90BDF82800FE
:10261000BDF82C108842D0DB00BF00200A9019E0E2
:102620008E49BDF8282031F81200FEF70EF8CDE9EA
:102630000401DDE90C23FEF78DF806D8BDF828006B
:10264000FEF703F806460F460FE0BDF82800401CD1
:1026500080B20A90BDF82800FDF7F7FF52465B46AE
:10266000CDE90401FEF776F8DAD300BF0022824BF1
:1026700020462946FEF76EF80DD822462B4600204C
:102680007E49FDF7E2FE00221346CDE90401FDF785
:1026900035FE04460D460022774B20462946FEF7BC
:1026A00071F81AD20022764B20462946FEF752F8DE
:1026B00013D80022704B20462946FDF7C0FE0022A9
:1026C000704BCDE90201FDF7C0FE00226E4BCDE953
:1026D0000401FDF713FE04460D460022684B204618
:1026E0002946FEF74FF81AD20022684B20462946A9
:1026F000FEF730F813D80022614B20462946FDF73B
:102700009EFE0022624BCDE90201FDF79EFE0022F3
:10271000604BCDE90401FDF7F1FD04460D460022B2
:10272000554B30463946FEF715F80DD832463B4634
:1027300000205249FDF789FE00221346CDE904012D
:10274000FDF7DCFD06460F4600224B4B304639466E
:10275000FEF718F81AD20022494B30463946FDF7E9
:10276000F9FF13D80022444B30463946FDF767FE87
:102770000022444BCDE90201FDF767FE0022424BE7
:10278000CDE90401FDF7BAFD06460F4600223C4B99
:1027900030463946FDF7F6FF1AD200223B4B304651
:1027A0003946FDF7D7FF13D80022354B304639465E
:1027B000FDF745FE0022364BCDE90201FDF745FE4F
:1027C0000022344BCDE90401FDF798FD06460F4683
:1027D00042464B4600202249FDF737FE0022214B9E
:1027E000CDE90401FDF7A3FECDE9120100222A4B39
:1027F000DDE91201FDF782FDCDE90401FDF77EFF61
:102800002649087008460078FDF71FFFCDE9020150
:1028100001F0D4FF0022224BCDE90401FDF715FEA3
:10282000CDE91001DDE91001FDF749FF1D49086000
:1028300000231A460D494FF48040FEF7F3F90022B9
:10284000194B20462946FDF79DFF3DD222462B46D7
:102850002CE0000030E60200202100203E4900204C
:102860000000F03F000028400000144000007A44BF
:1028700039B4C876BE9FE63F000069400000494079
:102880000060784000408F400088C3400070824064
:102890000040AF40006A0841000024403900002099
:1028A000000034403C00002000BDFF404FF0663087
:1028B0001949FDF7CAFD0022184BCDE90401FDF7C7
:1028C00036FE04460D460DE022462B4600201449F4
:1028D000FDF7BBFD0022114BCDE90401FDF727FEFA
:1028E00004460D4622462B460EA000F0F1F8324673
:1028F0003B4600200E49FDF7A8FD0022074BCDE91D
:102900000401FDF714FE06460F460A4830C00A4A85
:10291000C0C217B0BDE8F08F6666F23F00408F403E
:102920000000F83F6E302E76616C3D252E33660038
:102930000000F03FB8000020C000002070470000F9
:1029400010B51348006840F00100114908600846BE
:102950004068104908400E494860084600680E4922
:1029600008400B4908600846006820F48020086091
:102970000846406820F4FE0048604FF41F0088605D
:10298000FFF7ABFC4FF000600449086010BD000089
:10299000001002400000FFF8FFFFF6FE08ED00E027
:1029A00021B1028842F00102028004E002884FF661
:1029B000FE731A400280704701894FF6F872114089
:1029C0000181704782884FF68F731A408280828817
:1029D0000A43828070470000002202881D4B984203
:1029E0000ED01D4B98420BD0B0F1804F08D01B4B3E
:1029F000984205D01A4B984202D01A4B984204D103
:102A00004FF68F731A404B881A43174B984207D0E2
:102A1000164B984204D04FF6FF431A40CB881A4316
:102A200002808B8883850B8803850A4B98420BD0E4
:102A3000094B984208D00E4B984205D00D4B984256
:102A400002D00D4B984201D10B7A03860123838279
:102A500070470000002C0140003401400004004099
:102A600000080040000C004000100040001400402E
:102A70000040014000440140004801404FF6FF7112
:102A8000818000210180C180418001727047000077
:102A900070B5002400BF0FE0094830F8140000EBC7
:102AA000801000EB4005E81705EB1050011305A05E
:102AB00000F00EF8601C84B2B4F5806FECDB70BDE2
:102AC0002021002061646420382C302C2564000013
:102AD0000FB470B59CB0FF2521A80190652102A814
:102AE000019B209A00F026FA06460020019000245F
:102AF0000CE002A8015D194800F009FA00BF80212E
:102B0000164800F037F90028F9D0641CB442F0DB15
:102B10002946124800F0FBF900BF80210F4800F061
:102B200029F90028F9D029460C4800F0F0F900BF37
:102B300080210A4800F01EF90028F9D029460748EC
:102B400000F0E5F900BF8021044800F013F90028E7
:102B5000F9D01CB070BC5DF814FB000000440040CC
:102B600038B504460D4622202B46024621460090E9
:102B700001A0FFF7ADFF38BD7425642E7478743D55
:102B80002563252E336625630000000000B543E071
:102B900001F038FB06283BDB002001F0CBFE5A2871
:102BA00036D1012001F0C6FE712831D1032001F099
:102BB000C1FEFF282CD1042001F0BCFEFF2827D144
:102BC000052001F0B7FEFF2822D1022001F0B2FE5D
:102BD00018B900201349087016E0022001F0AAFE7F
:102BE000012802D10F4908700EE0022001F0A2FE78
:102BF000022802D10B49087006E0022001F09AFE7B
:102C0000032801D107490870062001F059F903E0B3
:102C1000012001F055F903E001F0F4FA0628B7DAD3
:102C200000BF00BD1801002010B540F22551094831
:102C300000F0ADF801280CD1064800F063F9064910
:102C4000088001200549088040F22551014800F024
:102C500028F810BD003801400000002002000020CC
:102C600010B540F22551094800F091F801280BD128
:102C7000064800F047F9C4B2204602F00BF840F2D3
:102C80002551024800F00DF810BD0000004400403E
:102C900001F40072B2F5007F00D100BFCA43028088
:102CA000704710B50022002340F66A14A14200D1FB
:102CB00000BF0A1201249440A3B2DC43048010BD7B
:102CC00021B1828942F40052828104E082894DF66A
:102CD000FF731A408281704710B504462048844231
:102CE00009D101218803FFF7F5F800214FF4804056
:102CF000FFF7F0F832E01B48844209D10121480473
:102D0000FFF7C8F800214FF40030FFF7C3F825E0C3
:102D10001548844209D101218804FFF7BBF800213E
:102D20004FF48020FFF7B6F818E01048844209D12C
:102D30000121C804FFF7AEF800214FF40020FFF78F
:102D4000A9F80BE00A48844208D101210805FFF7E1
:102D5000A1F800214FF48010FFF79CF810BD00008F
:102D6000003801400044004000480040004C004052
:102D70000050004002460020B1F5007F00D100BFA6
:102D800013880B400BB1012000E00020704770B5A4
:102D90000246002400230025002040F66A16B142B6
:102DA00000D100BFC1F3421501F01F03012606FA4E
:102DB00003F3012D02D19689334006E0022D02D1A2
:102DC000168A334001E0968A33400C12012606FA37
:102DD00004F41688344013B10CB1012000E0002047
:102DE00070BDF0B50346002400260025002040F603
:102DF0006A17B94200D100BF1846C1F3421401F06E
:102E00001F06012707FA06F5012C01D10C3004E05A
:102E1000022C01D1103000E014301AB107682F43A2
:102E2000076002E00768AF430760F0BD2DE9F04797
:102E300086B005460E460024A24600BFA1460027E4
:102E4000B08900B100BF2F462C8A4CF6FF700440B9
:102E5000F08804432C82AC894EF6F3100440B0880D
:102E600031890843718908430443AC81AC8A4FF629
:102E7000FF400440B0890443AC8201A8FFF73AF850
:102E80001F48874202D1DDF810A001E0DDF80CA058
:102E9000A88900F4004040B10AEBCA0000EB0A1018
:102EA00031684900B0FBF1F807E00AEBCA0000EB1B
:102EB0000A1031688900B0FBF1F86420B8FBF0F02B
:102EC00004012009642101FB1089A88900F4004055
:102ED00040B1322000EBC900B0FBF1F000F0070078
:102EE000044308E0322000EB09106421B0FBF1F04C
:102EF00000F00F0004432C8106B0BDE8F08700000D
:102F00000038014001468888C0F308007047C1F3CB
:102F10000802828070474FF41651016000218180C1
:102F2000C18001810C21418100218181704700BF56
:102F3000FEE700007CB50C001D461646014601D098
:102F4000601E00E00020CDE90010064B6A462946CD
:102F5000304600F059F9002C02D0009A002111707F
:102F60007CBD00000F39000837B514460846064BF3
:102F70006A46214600F048F904466946002000F000
:102F8000D1FC20463EBD0000253900082DE9F04166
:102F90004F1E00EBC7010446D1E9000115461E464D
:102FA00037F006020DD02A463346FDF74EFA7F1E53
:102FB00004EBC703D3E90023FDF7A0F937F00602BD
:102FC000F1D1022F25D0042F13D0062F18BFBDE852
:102FD000F0812A463346FDF738FAD4E90A23FDF793
:102FE0008DF92A463346FDF730FAD4E90823FDF778
:102FF00085F92A463346FDF728FAD4E90623FDF77A
:103000007DF92A463346FDF720FAD4E90423FDF77B
:1030100075F92A463346FDF718FAD4E90223FDF77D
:103020006DF92A463346FDF710FAD4E90023BDE8CE
:10303000F041FDF763B90000002213461046014934
:10304000FDF775BA0000F03F0122FDF7EFBC00224A
:10305000134610461146FDF76ABA02E008C8121F6F
:1030600008C1002AFAD170477047002001E001C171
:10307000121F002AFBD17047014908607047000009
:103080001C0100202DE9FF5F82B00021DDE9043042
:10309000020DDDF840B0034318D044F61050A2F200
:1030A000FF3242431514119801281FD0A5EB0B00E5
:1030B000401C5FEA000A4FF000064E4FDFF83891DF
:1030C000B046504615D5CAF1000413E0119801240A
:1030D0004AA3012801D16FEA0B010298119AC0E9B5
:1030E0000031C0E9024206B0BDE8F09FCBF100001C
:1030F000DFE704460021404A491842EB0450CDE97D
:10310000001012E0E00707D032463B4640464946F1
:10311000FDF79BF98046894632463B4610461946E4
:10312000FDF793F906460F466410002CEAD1DDE95D
:103130000401DDE90023BAF1000F06DAFDF785F995
:1031400042464B46FDF781F905E0FDF7F0F94246AE
:103150004B46FDF7ECF904460E460022284BFDF7DE
:1031600011FB03D84FF0FF30014607E00022254B4A
:1031700020463146FDF7C2F8FDF76FFC102409E048
:10318000002C0ADB0A220023FDF75AFB039B303296
:103190001A55641E50EA0102F2D1641C039AC4F16C
:1031A00011031444119A012A03D0012208430DD1BE
:1031B0000AE0084304D000204FF0110B119072E791
:1031C000A3EB0B056D1E0DE05B4504DD4FF0000227
:1031D00005F1010504E003DA4FF00002A5F1010555
:1031E000002AECD002981199C0E90231C0E90045EB
:1031F00079E70000000014400000F03F30000000BC
:103200000000F0430000E03F2DE9FF4F95B09A46E3
:10321000884606460025EEE1252877D1002427467A
:10322000F94A0121039400E0044316F8013F203BD2
:1032300001FA03F01042F7D130782A2811D06FF04C
:103240002F033078A0F13002092A16D8039A44F0EF
:10325000020402EB820203EB42021044761C03904C
:10326000EFE758F8042B0392002A03DA504244F4A3
:103270000054039044F00204761C30782E2816D1B6
:1032800016F8010F44F004042A280DD06FF02F0225
:103290003078A0F13003092B09D807EB870302EB44
:1032A0004303C718761CF3E758F8047B761C307884
:1032B0006C280FD006DC4C2817D068280DD06A285F
:1032C00014D104E0742810D07A280FD10DE044F412
:1032D00000140AE044F4801401E044F440147278CD
:1032E000824202D104F58014761C761C3078662860
:1032F0000BD013DC582877D009DC002875D045287E
:10330000F6D04628F4D047281AD193E118E0632874
:1033100035D0642879D0652812D18BE1702873D01C
:1033200008DC6728F1D069286FD06E280DD06F288F
:1033300006D1ACE073282CD0752874D0782853D0EF
:103340005246179990476D1C54E1C4F3025002286D
:1033500009D003280DD0D8F8001004280DD00D6036
:1033600008F1040846E1D8F80010EA17C1E9005254
:10337000F6E7D8F800100D80F2E70D70F0E718F8C6
:10338000041B8DF8001000208DF80100EB46012091
:1033900003E058F804BB4FF0FF3061074FF0000125
:1033A00002D40DE009F101018946B9420FDA8145E5
:1033B000F8DB1BF809100029F4D108E009F101013C
:1033C00089468142FADB1BF809100029F6D10398DF
:1033D0005346A0EB090721463846179A00F080FAB9
:1033E000284400EB090507E044E008E10DE01BF884
:1033F000010B524617999047B9F10109F7D253468C
:1034000021463846179AF2E039E00A21C4F3025205
:103410004FF0000B0091022A06D058F8040BC11798
:10342000032A09D00AE023E008F1070020F0070290
:10343000F2E80201904605E000B2C117042A01D16A
:1034400040B2C117002906DA0A460021404261EB6A
:1034500002012D2202E0220504D52B228DF8042042
:10346000012203E0E20701D02022F7E7914657E06E
:103470000A2100E010214FF0000B00910BE0102119
:103480004FF0000B44F004040827009103E00820EB
:103490004FF0000B0090C4F30252022A05D058F8F6
:1034A000040B0021032A08D008E008F1070020F0EF
:1034B0000702F2E80201904603E080B2042A00D13C
:1034C000C0B24FF0000922072AD53278702A07D0FF
:1034D000DDF800C08CF0100C5CEA0B0C05D00EE09F
:1034E00040228DF80420012208E050EA010306D0B2
:1034F00030238DF804308DF8052002229146009B80
:1035000083F0080353EA0B030AD150EA010201D108
:10351000620705D530228DF804204FF001097F1E87
:103520003278582A04D039A20C920CAA02920BE0ED
:103530003BA2F9E75B46009AFDF782F90C9B9B5C86
:10354000029A521E0292137050EA0102F2D10298BE
:1035500004A9081A00F1200B600702D524F4803476
:1035600000E001275F4502DDA7EB0B0000E0002033
:1035700000EB0B01009003984944401A0390E003CC
:1035800006D453462146179A039800F0A9F905443A
:10359000002706E001A85246C05D179990476D1CB0
:1035A0007F1C4F45F6DBE0030CD553462146179AA6
:1035B000039800F095F9054404E03020524617992D
:1035C00090476D1C0099481E00900029F5DC08E02A
:1035D0000298029952460078491C02911799904727
:1035E0006D1CBBF10001ABF1010BF1DC5BE100F004
:1035F00065F90544761C307800287FF40DAE19B0CB
:103600002846BDE8F08F0000092801003031323330
:10361000343536373839616263646566000000000E
:1036200030313233343536373839414243444546F8
:1036300000000000600700D4062708F1070020F012
:103640000700F0E80223804603F0004C5FEA0C001C
:1036500001D097A009E0200501D596A005E0E0077C
:1036600001D095A001E0AFF24C001390307823F028
:10367000004365280CD006DC452809D046281DD01B
:1036800047287FD13BE0662818D067287AD136E0FA
:103690000021112F01DB112000E0781CCDE9000191
:1036A00004A90CA8FFF7EEFCDDE90D010C9A4FF020
:1036B000000B07F10109109200914EE04FF000401D
:1036C0000097CDE9011004A90CA8FFF7DBFCDDE9A8
:1036D0000D020C9B0F994FF0000B91461093009236
:1036E00011B9791C00EB0109B7EB090003D4C0F153
:1036F000FF3B07F10109A9EB0700019042E0012F10
:1037000000DA01270021112F01DD112000E03846E9
:10371000CDE9000104A90CA8FFF7B4FCDDE90D0117
:103720000C9A00914FF0000BB946109221070FD46C
:10373000009A4A4503DA914601E0A9F10109B9F17D
:10374000010F05DD109AA9F10101515C3029F4D077
:10375000B84202DA10F1040F03DA0121CDE90110B9
:1037600010E0002803DC8344A9EB000102E0411CC7
:10377000494500DD8946A0EB0B00401C01904FF04D
:1037800000400290200705D40198484502DB4FF025
:10379000FF30019000208DF84B0002980DF14B078F
:1037A000B0F1004F25D002200C902B200D900298F4
:1037B00000280CDA404202902D200D9007E00A21EB
:1037C0000298FDF727F83031029007F8011D0C9997
:1037D000481E0C900029F2DC02980028EFD1791ED7
:1037E0000D980870307800F0200040F0450007F890
:1037F000020D11A8C01BC01D02901398007800B1E3
:10380000012000EB0901019801EBE07102980144ED
:103810000398401A401E0390E00306D45346214605
:10382000179A039800F05CF805441398007818B1D3
:103830005246179990476D1CE00323D55346214605
:10384000179A039800F04CF805441BE0BBF1000FF9
:1038500007DB0098584504DD1098179910F80B0005
:1038600001E0179930205246904701980BF1010B67
:10387000401E05F10105019004D12E2052461799F2
:1038800090476D1CB9F10001A9F10109DEDC05E0EA
:1038900017F8010B5246179990476D1C0299481E64
:1038A00002900029F4DC53462146179A03989EE6BD
:1038B0002D0000002B000000200000002DE9F04149
:1038C000044600251E461746880404D405E0394600
:1038D0002020B0476D1C641EF9D52846BDE8F08154
:1038E0002DE9F041044600251E469046C80301D547
:1038F000302700E02027880404D505E041463846FB
:10390000B0476D1C641EF9D52846BDE8F0814A68B1
:10391000002A06D00A68531C0B6010704868401ECD
:10392000486070470A68531C0B60107070470000B5
:1039300010B5454945480068FCF762FF02D244488B
:1039400044490860444941480068FCF759FF08D8D9
:103950003D493E480068FCF749FF02D23F483D49D7
:1039600008603F4939480068FCF74AFF08D83A49DF
:1039700036480068FCF73AFF02D23A4835490860F9
:10398000394932480068FCF73BFF08D834492F48D2
:103990000068FCF72BFF02D234482E4908603449F6
:1039A0002A480068FCF72CFF08D82F4927480068F0
:1039B000FCF71CFF02D22F48264908602C492348F7
:1039C0000068FCF713FF3ED200202B4908604FF43B
:1039D00080712A48FEF75DF84FF400712748FEF722
:1039E0005AF8C820FDF78AFD01216420FDF7E6FCA6
:1039F00001212348FDF738FD01212248FDF71EFA79
:103A000000BF214800780028FBD000201E49087024
:103A100001211B48FDF728FD01211A48FDF70EFA88
:103A200000BF194800780028FBD0FDF73FFB044693
:103A3000FCF7F5FD104908600020134908704FF0AD
:103A40007E501249086010BD00404445900000209F
:103A50006666263FAC0000200000FA449A99593F60
:103A600000007A447B146E3F00003E443333733FC2
:103A700000001644C3F5883F8C000020000C014074
:103A800008000240002401401C000020B00000207B
:103A90002DE9F0474348008864287DDA4FF48071AF
:103AA0004148FDF7F8FF4FF400713F48FDF7F3FF81
:103AB0004FF480613C48FDF7EEFF4FF49670FDF740
:103AC0001DFD002039490880394908800DE0FDF7C7
:103AD0000DFC384840883549098808443349088036
:103AE00033480088401C3249088031480088142837
:103AF000EDDB2E480088142190FBF1F02B49088063
:103B0000084600882C49086008460068FCF79DFDBF
:103B100006460022294BFCF798FC04460022284B5D
:103B2000FCF705FD8046FCF7E9FD264908600846DC
:103B30000068FCF78AFD804600F040FE0646002241
:103B4000214BFCF782FC0446FCF7D8FD1D490860B8
:103B50004FF480711448FDF79EFF4FF40071124836
:103B6000FDF797FF1420FDF7C9FC164800680128EF
:103B700002D001201349086012480068FCF765FD77
:103B8000804600F01BFE064600220F4BFCF75DFC52
:103B90000446FCF7B3FD00E001E00A490860BDE817
:103BA000F08700004A000020000C01404E00002079
:103BB0004000002020210020840000200000F03F71
:103BC0000000F83F800000200000344010B500F0F5
:103BD00007F804460CB1204610BD0020FCE70000A9
:103BE0002DE9F84F4FF0000B00218F488F4AC2E9B2
:103BF00000108F488F49904A03C24FF480618F486C
:103C0000FDF749FF1E20FDF779FC00231A468C4979
:103C10004FF48040FDF706F80520FDF76FFC012109
:103C20006420FDF7CBFB0020009001218548FDF7C3
:103C30001BFC01218448FDF701F900BF834800788F
:103C40000028FBD0FDF732FA009000207F49087071
:103C50000098FCF7FAFC804600227D4BFCF7F5FB50
:103C6000064600227B4BFCF762FC0446FCF7A2FDF3
:103C700079490860084601687848FCF7CFFA784926
:103C800008600846006877490860002076490860A7
:103C900082460CE0FDF72AFB7448408872490968A7
:103CA0000844714908600AF1010000F0FF0ABAF106
:103CB000140FEFDB6C4800681421B0FBF1F06A4987
:103CC0000860084600680860634801686848FCF7B7
:103CD0009FFA054664480068FCF7A1FC06462946A1
:103CE000FCF7CEFA0446FCF7D6FC624908600020D7
:103CF0006149086082460CE0FDF718F85B4880884F
:103D00005D49096808445C4908600AF1010000F057
:103D1000FF0ABAF1140FEFDB574800681421B0FB1B
:103D2000F1F05549086008460068FCF78EFC06462D
:103D3000524A534BFCF789FB0446FCF7DFFC4E4923
:103D40000860084601684FA0FEF7C2FE46480168B9
:103D50004FA0FEF7BDFE4748016850A0FEF7B8FE31
:103D60003F480068FCF7E3FC044622460B464EA0A1
:103D7000FEF7AEFE40480068342802D84FF0070B2B
:103D80004FE04C48006864383B49096888420AD8CB
:103D900039480168474800686430814203D8FDF71C
:103DA000D1FB83463DE03448006840F6E531884267
:103DB00009D34048006864382F490968884202D90D
:103DC0004FF0040B2DE02C480068B0F52A5F08D9AD
:103DD0002948006842F6A151884202D24FF0010BF7
:103DE0001FE02548006834280CD923480068FCF7F8
:103DF0002CFC0446304A314BFCF7ACFC02D84FF0A7
:103E0000060B0EE01C48006843F28911884208D86E
:103E10001948006842F6A151884202D3FDF758FCC8
:103E200083465846BDE8F88F00C06240B8000020C5
:103E3000E17A14AE47E1DA3FC0000020000C0140F7
:103E400000007A4408000240002401401C000020C9
:103E50000000F03F00F07E40100100200080F7439A
:103E60000C01002014010020F80000202021002077
:103E70000000404104010020FC00002048E17A14C9
:103E8000AE4712406E312E76616C3D252E336600B2
:103E90006E332E76616C3D252E3366006E342E76A1
:103EA000616C3D252E3366006E322E76616C3D25A9
:103EB0002E33660050000020B3C9269B6CD69C4070
:103EC00010B5024611488088904202DC00F0C0FA2A
:103ED00010BD002315E00D48808810B900F0B8FA35
:103EE000F6E70A480088401C4FF4FA7190FBF1F4A1
:103EF00001FB14000549088008468088401E888020
:103F00005B1C9342E7DB00BFE2E70000745D00202A
:103F100010B504460F2C75D2DFE804F08B080F169D
:103F200021282F363D48535E6975800022231A46AA
:103F3000032147A0FEF7CCFD88E022231A46032187
:103F40004BA0FEF7C5FD81E022231A46032150A0B5
:103F5000FEF7BEFD4FF42F70FDF7D0FA76E0222376
:103F60001A46032151A0FEF7B3FD6FE022231A4643
:103F7000032155A0FEF7ACFD68E022231A46032179
:103F800059A0FEF7A5FD61E022231A4603215DA09A
:103F9000FEF79EFD5AE022231A46032161A0FEF798
:103FA00097FD4FF42F70FDF7A9FA4FE022231A4630
:103FB000032163A0FEF78CFD4FF47A70FDF79EFAA3
:103FC00044E022231A46032164A0FEF781FD4FF44A
:103FD0007A70FDF793FA39E022231A46032166A08E
:103FE000FEF776FD4FF47A70FDF788FA2EE0222373
:103FF0001A46042167A0FEF76BFD4FF4FA60FDF747
:104000007DFA23E015E022231A46042169A0FEF779
:104010005FFD4FF4FA60FDF771FA17E022231A46AC
:1040200004216CA0FEF754FD4FF4FA60FDF766FA28
:104030000CE022231A4603216EA0FEF749FD22233D
:104040001A4604216BA0FEF743FD00BF00BF10BD60
:104050007425642E7478743D25634552523A20527B
:10406000312069732073686F72742563000000004B
:104070007425642E7478743D25634552523A20525B
:10408000322069732073686F72742563000000002A
:104090007425642E7478743D25634552523A20523B
:1040A00031206973206F70656E2563007425642E5E
:1040B0007478743D25634552523A20523220697318
:1040C000206F70656E2563007425642E7478743DCE
:1040D00025634552523A2052332069732073686F2A
:1040E00072742563000000007425642E7478743D9A
:1040F00025634552523A205233206973206F706510
:104100006E2563007425642E7478743D25634552D2
:10411000523A2052342069732073686F7274256399
:10412000000000007425642E7478743D25634552A8
:10413000523A205234206973206F70656E256300F7
:104140007425642E7478743D25634552523A204399
:1041500031206973206F70656E2563007425642EAD
:104160007478743D25634552523A20433220697376
:10417000206F70656E2563007425642E7478743D1D
:1041800025634552523A204333206973206F70658E
:104190006E2563007425642E7478743D2563455242
:1041A000523A20433120697320646F75626C652533
:1041B000630000007425642E7478743D25634552B5
:1041C000523A20433220697320646F75626C652512
:1041D000630000007425642E7478743D2563455295
:1041E000523A20433320697320646F75626C6525F1
:1041F000630000007425642E7478743D25634F4B72
:10420000256300000148808870470000745D00202D
:104210002DE9F0474FF480717748FDF73CFC4FF4EF
:1042200000717548FDF735FC40F29E70FDF766F9A8
:1042300000231A4671494FF48040FCF7F3FC32200A
:10424000FDF75CF901216420FDF7B8F800206C4906
:10425000086001216B48FDF707F901216A48FCF766
:10426000EDFD00BF694800780028FBD000206749B9
:10427000087001216348FDF7F7F801216248FCF757
:10428000DDFD00BF614800780028FBD0FCF70EFF81
:104290000446FCF7C4F95A49086000205B490870DD
:1042A000FFF746FB5A480068FCF741FA80460022B7
:1042B000584BFCF7CAF806460022574BFCF737F973
:1042C0000446FCF777FA554908604D480068FCF74A
:1042D0002EFA064600224F4BFCF7B7F804460022A0
:1042E0004D4BFCF724F98046FCF764FA4C49086012
:1042F000084601684B48FBF791FF0446FCF7CBF9F1
:1043000049490860002049490880494908800DE072
:10431000FCF7ECFF47484088444909880844434972
:10432000088043480088401C414908804048008874
:104330001428EDDB3D480088142190FBF1F03B4947
:104340000880084600883C49086000203B49086016
:10435000374908800DE0FCF7E9FC3648808837498A
:10436000096808443549086031480088401C3049D4
:1043700008802F4800881428EDDB3048006814219D
:10438000B0FBF1F02D49086008460068FCF75DF9C4
:1043900006462B4A2B4BFCF758F80446FCF7AEF9BF
:1043A000294908604FF480611348FDF772FB14201F
:1043B000FDF7A4F80020254908801D4908800DE07C
:1043C000FCF794FF1B4840882049098808441F498E
:1043D000088017480088401C154908801448008848
:1043E0001428EDDB19480088142190FBF1F01749DF
:1043F0000880BDE8F0870000000C014000007A440E
:104400009000002008000240002401401C00002011
:104410008C0000200000F03F00F07E40980000205B
:10442000940000200080F743700000204A00002024
:1044300040000020202100205800002054000020CF
:1044400048E17A14AE471240500000204C00002092
:10445000002002490880488088807047745D0020F1
:104460002DE9F04DC84A002490B0914205DA21F0C0
:104470000043934201D805D120B110B0BDE8F04D02
:10448000FEF7E2BDB1F5801F1BDA53EA000209D046
:10449000002911DA0120FEF7EFFD10B0BDE8F04D64
:1044A000FEF7D5BD0220FEF7E7FDFEF7C5FD10B013
:1044B00081F00041BDE8F08D6FF035043622FCF745
:1044C000B5FA04EB2152C1F31308B049A2F2FF334D
:1044D000414401F4801282F07F6103EB225281F0AB
:1044E0004051009241EA08010022A94BFBF7A7FFC7
:1044F000044608F10200A74EC0F313000D467E44A7
:10450000032867D2D6E900232046FCF723F91ED101
:104510000098002802BFD6E9000110B0BDE8F08D78
:10452000FCF782F807460C469B4A9C4BFBF78DFF35
:1045300006460D469A4A9B4B38462146FBF785FFB7
:1045400010B032462B46BDE8F04DFBF7D7BE4FF01A
:104550005532954B20462946FBF777FF0022934BB7
:10456000FBF770FF06460F4622462B4610461946BB
:10457000FBF76BFF32463B46FBF767FF06460098AA
:104580000F46F0B1FCF750F880468A46824A834BCA
:10459000FBF75BFF32463B46FBF754FF22462B46B8
:1045A000FBF74DFF05460C467D4A7E4B4046514683
:1045B000FBF74BFF10B02A462346BDE8F04DFBF752
:1045C0003EBF0B4610B0324620462946BDE8F04DAE
:1045D000FBF735BF00224FF080432046FBF78EFEED
:1045E00002460B4620462946FBF7A1FF06460F462A
:1045F0000098FCF719F8CDE9040132463B46104615
:104600003946FBF722FF0C9069480C9A4044019010
:1046100009910B461046FBF718FF82460246654893
:104620008B46C8F151080B4608F5D728032178447A
:10463000FEF7ACFC52465B46FBF707FF0A905E486C
:104640000D9152465B4604217844FEF79FFC099B7E
:104650000C9AFBF7FAFE844601980D9B40EA080885
:1046600060460A9AFBF74AFE83460891B8F1000FAC
:104670004EDD4FF0FF3220462946FCF7D7F922469F
:104680002B46FBF7E2FE804600988A4660B3DDE9E0
:104690000401414A414BFBF7D8FE099100905A466C
:1046A00040465146089BFBF729FE32463B46FBF746
:1046B000CCFE099B009AFBF721FE42465346FBF7CE
:1046C000C1FE22462B46FBF7BAFE04460D46DDE945
:1046D0000401334A334BFBF7B8FE10B022462B4699
:1046E000BDE8F04DFBF7ABBE5A464046089BFBF7D2
:1046F00005FE32463B46FBF7A8FE42465346FBF713
:10470000A1FE10B022462B46BDE8F04DFBF79ABE45
:10471000009840B3DDE904011F4A204BFBF795FEEA
:1047200080468A465A4620462946089BFBF787FE64
:1047300032463B46FBF789FE42465346FBF77FFE77
:1047400022462B46FBF77BFE04460D46DDE90401BD
:10475000134A144BFBF779FE10B022462B46BDE8F6
:10476000F04DFBF76CBE0B465A4620462946FBF738
:1047700066FE32463B46FBF768FE10B022462B46EB
:10478000BDE8F04DFBF75EBE0000F07F645F0900FE
:104790000000F03F1E080000763C7935EF39EA3D15
:1047A0000000E0FE422EE63F5555D53F0000E03FB9
:1047B00086EBF9FFB6060000B40600002DE9F041D3
:1047C000044630480025814205DA21F00042824249
:1047D00001D805D124B12046BDE8F041FEF734BC34
:1047E000B1F5801F1BDA52EA040008D000290FDA65
:1047F0000120FEF741FCBDE8F041FEF728BC022095
:10480000FEF73AFCFEF718FC81F00041BDE8F081AC
:104810006FF0350536222046FCF708F9044605EB13
:104820002150A0F2FF32D00F40F2FF331B1A0D4689
:1048300063F31F551044FBF7F7FE06460F46294663
:104840002046FFF70DFE104A104BFBF7FEFD044615
:104850000D460F4A0F4B30463946FBF7F6FD224610
:104860002B46FBF74BFD05460C460B4A0B4B3046DF
:104870003946FBF7EAFD2A462346BDE8F041FBF73F
:104880003DBD00000000F07F0EE526157BCBDB3F31
:10489000362BF111F3FE593D00609F501344D33F76
:1048A0006420FCF72BFE0020FCF702F90120FCF746
:1048B000FFF84FF4E13000F01FF94FF4165000F00C
:1048C00083F9FCF725FBFCF783FCFDF72FF8FCF7D9
:1048D000C1FAFCF78FFB4FF480610D48FDF7DBF860
:1048E0004FF480710A48FDF7D6F84FF4007108487C
:1048F000FDF7CFF8002211460648FCF7C3F9012264
:1049000000210448FCF7BEF901E0FDF75DFBFCE780
:10491000000C014000007A4410B502214FF4B4703D
:10492000FCF74CFDFCF796FAFCF7F2FAFCF762FB99
:1049300010BD000010B501460648008808444FF439
:10494000FA7390FBF3F403FB140082B20148801D5C
:10495000805C10BD745D00202DE9F04700231A46ED
:1049600055494FF48040FCF75DF900205349088019
:10497000534908800DE0FCF7B9FC524840884F4984
:10498000098808444D4908804D480088401C4C491E
:1049900008804B4800881428EDDB48480088142123
:1049A00090FBF1F0454908800846008846490860B8
:1049B00000231A4645494FF48040FCF733F90020A4
:1049C0003E4908803E4908800DE0FCF78FFC3D48D9
:1049D00040883A490988084438490880384800889E
:1049E000401C37490880364800881428EDDB3348DE
:1049F0000088142190FBF1F03049088008460088B7
:104A00003349086000231A464FF081414FF480403B
:104A1000FCF708F900202F490860012142F21070CC
:104A2000FCF7CCFC4FF4FA70FCF768FD00202A4933
:104A3000086001212948FCF717FD01212848FCF7EF
:104A4000FDF900BF274800780028FBD00020254949
:104A5000087001212148FCF707FD01212048FCF7DF
:104A6000EDF900BF1F4800780028FBD0FCF71EFBC3
:104A70000446FBF7D4FD1849086008460068FBF7B8
:104A800056FE06460022184BFBF7DFFC04460022C8
:104A9000164BFBF74CFD8046FBF78CFE1449086073
:104AA000084601681348FBF7B9FB1149086000206C
:104AB0000C490870BDE8F0870000C8434A00002098
:104AC00040000020202100205C00002000401C4805
:104AD0006000002018000020A40000200800024010
:104AE000002401401C0000200000F03F00F07E4048
:104AF0009C0000200080F74310B586B004460121D9
:104B000044F20500FDF7D6F905A8FCF7C6FF4FF4FF
:104B10000070ADF8140018208DF8170003208DF8F0
:104B2000160005A92648FCF717FF05A8FCF7B5FFF6
:104B30004FF48060ADF8140004208DF8170005A92B
:104B40001F48FCF709FF01218803FDF7B3F91D4851
:104B5000FEF7C2F801A8FEF7DEF901940020ADF8D7
:104B60000800ADF80A00ADF80C000C20ADF80E00FE
:104B70000020ADF8100001A91248FEF757F92021D6
:104B80001048FEF785F810210E48FEF781F8012243
:104B900040F225510B48FEF724F901210948FEF7A0
:104BA0008FF825208DF8000001208DF801008DF888
:104BB00002008DF803006846FDF72AF806B010BD24
:104BC000000801400038014010B586B004460121BC
:104BD0000520FDF76FF905A8FCF75FFF0420ADF88D
:104BE000140018208DF8170003208DF8160005A971
:104BF0002648FCF7B1FE05A8FCF74FFF0820ADF8EA
:104C0000140004208DF8170005A92048FCF7A4FE25
:104C100001214804FDF72EF91D48FEF75DF801A8B3
:104C2000FEF779F901940020ADF80800ADF80A000C
:104C3000ADF80C000C20ADF80E000020ADF810000F
:104C400001A91348FEF7F2F820211148FEF720F8D9
:104C500010210F48FEF71CF8012240F225510C48A4
:104C6000FEF7BFF801210A48FEF72AF826208DF842
:104C7000000000208DF8010001208DF802008DF861
:104C800003006846FCF7C4FF06B010BD00080140F1
:104C9000004400400D498988B1F5FA7F00DB704778
:104CA0000A494A88891D8854891F4988491C4FF43C
:104CB000FA7291FBF2F302FB1311044A5180114680
:104CC0008988491C918000BFE9E70000745D0020DD
:104CD0003132333435363738393041424344454632
:104CE000030000000000000004FA97999999D93F49
:104CF000AF788E1DC571CC3F9FC678D0099AC33F4F
:104D0000935555555555E53F599322942449D23F23
:104D1000DE03CB966446C73F44523EDF12F1C23FEA
:104D20000000000000000000484D000800000020C6
:104D3000200100005A300008684E000820010020C1
:104D4000506200006A30000800000000000000000F
:104D50000000000000000000000000000000000053
:104D60000000000000000000000000010203040138
:104D700002030406070809020406080000000000F8
:104D80000000000000000000000000000000000023
:104D90000000000000000000000000000000000013
:104DA0000000000000000000000000000000000003
:104DB00000000000000000000000000000000000F3
:104DC00000000000000000000000000000000000E3
:104DD00000000000000000000000000000000000D3
:104DE00000000000000000000000000000000000C3
:104DF000000000000000803F0000803F0000000035
:104E000000000000000000000000000000000000A2
:104E10000000000000000000000000000000000092
:104E20000000000000000000000000000000000082
:104E30000000000000000000000000000000000072
:104E40000000000000000000000000000000000062
:104E50000000000000000000000000000000000052
:084E600000000000000000004A
:0400000508000131BD
:00000001FF
