:020000040800F2
:1000000030040020490100089F0B0008790B00080C
:100010009B0B000891090008CB11000800000000AC
:100020000000000000000000000000001D0D00089E
:100030009509000800000000250C0008210F0008A9
:100040006301000863010008630100086301000800
:1000500063010008630100086301000863010008F0
:100060006301000863010008DD090008630100085E
:1000700063010008630100086301000863010008D0
:1000800063010008630100086301000863010008C0
:1000900063010008630100086301000863010008B0
:1000A00063010008630100086301000863010008A0
:1000B0006301000863010008630100086301000890
:1000C0006301000863010008630100086301000880
:1000D00063010008850F0008630100086301000840
:1000E0006301000863010008630100086301000860
:1000F0006301000863010008630100086301000850
:10010000630100086301000863010008630100083F
:10011000630100086301000863010008630100082F
:10012000630100086301000863010008630100081F
:10013000DFF810D000F090FB00480047A91A000833
:10014000AFF300803004002006488047064800478F
:10015000FEE7FEE7FEE7FEE7FEE7FEE7FEE7FEE777
:10016000FEE7FEE7250F000831010008F0B480EA41
:100170000102D40F4200B2EB410F02D20246084600
:1001800011464A0042D0C30DDDB2C1F3C752AD1AC9
:10019000202D35DAC1F3160141F4000204B15242B8
:1001A000C5F1200602FA06F12A411044B3EBD05FF4
:1001B00023D0C4B1012DA0EBC35009DCF0BC4FF03B
:1001C000004202EAC352DBB200F5000000F0E1B9E0
:1001D000400000F1807000EBC350A0F1807040EA55
:1001E000D170490009E0490841EAC071A0EBC35051
:1001F00000F50000400800EBC350F0BC00F0C0B9AF
:100200006142012202EB4101001BF6E7F0BC70479E
:1002100081F00041AAE780F00040A7E780EA0102F0
:1002200010B502F00043400022D04A001FD0010E5A
:1002300001EB1261C0F35600C2F3560240F4000015
:1002400042F40002A0FB022000047F39140400D015
:10025000401C50EA124001D44000491EC2B20C06B4
:1002600004EBD010401C4008802A02D003E000209C
:1002700010BD20F00100002900DA0020184310BD55
:100280002DE9FE4F81EA030404F0004421F000410F
:1002900000944FF0000B23F0004350EA01045ED0BD
:1002A00052EA03045BD0C3F30A54C1F30A552C4449
:1002B000A4F2F3340194A0FB0254C1F3130141F4FE
:1002C0008011C3F3130343F4801301FB024400FBCA
:1002D000034E840A970A44EA815447EA8357A4FBF1
:1002E000076802958D0A05FB07854FEA932C04FBEE
:1002F0000C542705029D4FEA065847EA1637B5EB1E
:1003000008056EEB070C870E920E47EA811742EA4A
:100310008312A7FB0201B6EB0B0164EB00042B0D6B
:1003200043EA0C335E1844EB1C50DA465146E7FBB7
:100330000201C5F313044FEA0B3343EA14534FEAA7
:100340000432019C43EA0603A4F10C040294009CCD
:10035000CDE900B400F05AF903B0BDE8F08F0020F9
:100360000146F9E72DE9F04D81EA030404F0004B62
:1003700021F0004514464FF0000A23F0004150EAF6
:10038000050220D054EA01021DD0C5F30A570246E7
:10039000C5F31303C1F31300C1F30A5640F48015EB
:1003A00043F48013A7EB0608101BD64608F2FD386D
:1003B00073EB050002D308F1010801E092185B41DC
:1003C000B8F1000F03DA00200146BDE8F08D0020EF
:1003D0004FF48011064684460EE0171B73EB0507A9
:1003E00005D3121B63EB050306434CEA010C4908D5
:1003F0004FEA300092185B4150EA0107EDD152EA12
:10040000030012D082EA040083EA0501084305D004
:10041000101BAB4106D20122002306E000224FF060
:10042000004302E06FF0010253101AEB06004CEBA0
:10043000085110EB0A0041EB0B01BDE8F04D00F054
:10044000D6B8002801DBC0F10040002901DBC1F172
:100450000041814201D20120704700207047C10F46
:1004600080EAE0700844CA079623002100F091B8A2
:1004700096230022114600F08CB800F0004220F0D4
:100480000040C10DC0F3160040F400007F2901DADE
:1004900000207047962903DCC1F19601C84001E0B5
:1004A00096398840002AF4D04042704700F000425C
:1004B00030F000400AD0C10D01F56071C0F31600A4
:1004C00042EA0151C208400711437047002001462B
:1004D000704730B50B46014600202022012409E078
:1004E00021FA02F59D4205D303FA02F5491B04FAED
:1004F00002F52844151EA2F10102F1DC30BD2DE900
:10050000F05F0546002092469B4688460646814697
:1005100040241BE0284641464746224600F020F88A
:1005200053465A46C01A914110D3114618462246E6
:1005300000F0A4F92D1A67EB01084F46224601206E
:10054000002100F09BF917EB00094E41201EA4F199
:100550000104DFDC484631462A464346BDE8F09FA9
:10056000202A04DB203A21FA02F00021704721FA08
:1005700002F3D040C2F1200291400843194670476F
:100580000029A8BF7047401C490008BF20F00100A7
:10059000704710B4B0FA80FC00FA0CF050EA010485
:1005A00004BF10BC704749B1CCF1200421FA04F417
:1005B00011FA0CF118BF012121430843A3EB0C01F0
:1005C000CB1D4FEA00614FEA102042BF002010BC53
:1005D000704700EBC35010440029A4BF10BC704703
:1005E000401C490008BF20F0010010BC704710B546
:1005F000141E73F1000408DA401C41F10001921846
:100600005B411A4301D120F0010010BD2DE9F04DEE
:1006100092469B4611B1B1FA81F202E0B0FA80F243
:100620002032904600F02AF904460F4640EA0A00BC
:1006300041EA0B0153465A46084313D0114653EA88
:10064000010019D0C8F140025046FFF789FF054666
:100650000E4650465946424600F010F9084305D070
:10066000012004E020463946BDE8F08D0020054316
:1006700046EAE0762C4337430A986305E40AA0EB88
:1006800008000022FD0A44EA47540A3002D500203F
:100690000146E9E7010510196941DDE9084500193E
:1006A0006941BDE8F04DA2E72DE9FE4F804681EAA1
:1006B0000300C00F0C46009021F0004123F00045DC
:1006C000B8EB0200A94105D24046214690461C469F
:1006D0000B46024623F00040104347D0270DC7F3D6
:1006E0000A00C3F30A510290401A019040286BDAC5
:1006F000C3F3130040F4801B0098924620B10023FE
:10070000D2EB030A63EB0B0B01985946C0F1400290
:10071000504600F0B3F806460D4650465946019A39
:1007200000F0BBF810EB08006141002487EA115289
:1007300084EAE7731A4340D0009A62B3019A012A0F
:100740004FEA075215DC001B61EB02014FF000423B
:1007500002EA0752CDE90042001C41F58011324601
:100760002B46FFF753FF03B0BDE8F08F404621460C
:10077000F9E7001B61EB0201001C41F58013001832
:100780005B412018A2F5001747EB030140EAD57042
:10079000B6196D4111E06D084FEA360645EAC0759D
:1007A0004FEA0752001B61EB0201001C41F580116A
:1007B00049084FEA30000019514132462B4603B038
:1007C000BDE8F04FFFF713BF00980122400000235F
:1007D000D0EB020263EBE073009821464FEAE0742D
:1007E000B8EB000061EB0401E9E783F000435BE74D
:1007F00081F0004158E7C1F30A52C1F3130140F2FE
:10080000FF3341F480119A4202DA0020014670471A
:1008100040F233439A42A2F2334202DC5242FFF7E3
:100820009FBE00F02BB8000030B5041E71F100042B
:1008300004DB4FF00044404264EB0101141E73F1ED
:10084000000405DB1C464FF00043524263EB0403F7
:10085000994208BF904230BD064C074D06E0E06863
:1008600040F0010394E8070098471034AC42F6D3F7
:10087000FFF762FCEC2200080C230008202A04DBAE
:10088000203A00FA02F1002070479140C2F12003A3
:1008900020FA03F3194390407047202A06DBCB1758
:1008A000203A41FA02F043EAE07306E041FA02F32B
:1008B000D040C2F120029140084319467047F0B57C
:1008C00081B04FF68311C3F62261FFF7A7FC0446FF
:1008D000FFF7D3FD0546204600210027FFF7B1FDB5
:1008E000002818BF013D2846FFF7B9FD0146204604
:1008F000FFF78EFC4FF08841FFF790FC0446FFF7AE
:10090000BCFD054620464FF04441FFF72FFC06464C
:10091000B7EB552F14BF002526462846FFF7A8FD44
:1009200001463046FFF774FC41F6E821C0F60001AD
:1009300001EB8502064651F8254055684FF07E5080
:100940003146FFF765FC2146FFF768FC0446304658
:100950002946FFF763FC01462046FFF707FC01B07C
:10096000F0BD000010B54FF48071084800F0F7F8B2
:1009700028B94FF48071054800F0FCF804E04FF40A
:100980008071024800F0F4F810BD0000000C014036
:1009900000BFFEE7704700B5034603E04FF47A70EE
:1009A00000F005F8181EA3F10103F7D100BD00EB1C
:1009B000C001C9004FF0E022516100219161052181
:1009C000116100BF4FF0E021096901F48031002975
:1009D000F8D004214FF0E0221161704710B51020CB
:1009E00000F01EF8012811D11E2000F0C7F81020D9
:1009F00000F016F8012809D105480088401C044978
:100A00000880FFF7AFFF102000F004F810BD0000D1
:100A100000000020014908607047000014040140F4
:100A2000014600200022074B1B6803EA0102054B28
:100A300014331B680B4013B10AB1012000E0002001
:100A400070470000000401402DE9F04102460025F6
:100A50000026002000230024002791F803C00CF09A
:100A60000F0591F803C00CF0100CBCF1000F03D07F
:100A700091F802C04CEA050591F800C0BCF1000FE6
:100A800031D0146800202BE04FF0010C0CFA00F379
:100A9000B1F800C00CEA03069E4220D183004FF05B
:100AA0000F0C0CFA03F7BC4305FA03FC4CEA0404F0
:100AB00091F803C0BCF1280F06D14FF0010C0CFADD
:100AC00000FCC2F814C00AE091F803C0BCF1480F62
:100AD00005D14FF0010C0CFA00FCC2F810C0401C0C
:100AE0000828D1D31460B1F800C0BCF1FF0F34DD89
:100AF000546800202EE000F1080C4FF0010808FABD
:100B00000CF3B1F800C00CEA03069E4221D1830029
:100B10004FF00F0C0CFA03F7BC4305FA03FC4CEA48
:100B2000040491F803C0BCF1280F05D100F1080CB2
:100B300008FA0CF8C2F8148091F803C0BCF1480F11
:100B400007D100F1080C4FF0010808FA0CF8C2F8C0
:100B50001080401C0828CED35460BDE8F0810246C6
:100B60000020D3680B400BB1012000E0002070474B
:100B7000416170470161704700BFFEE7002106E058
:100B800042F6E06100BF0A1EA1F10101FBD1021E85
:100B9000A0F1010398B2F3D1704700BFFEE77047A0
:100BA00070B5002100230F22C47804B3154C2468CB
:100BB00004F4E064C4F5E064210AC1F10403CA400E
:100BC000447804FA03F184781440214309010E4C5F
:100BD0000678A155047804F01F050124AC4005787F
:100BE0006D11AD0005F1E025C5F8004109E004787C
:100BF00004F01F050124AC40044D0678761145F839
:100C0000264070BD0CED00E000E400E080E100E073
:100C100002490143024A1160704700000000FA05D2
:100C20000CED00E07047000029B1064A92690243CA
:100C3000044B9A6104E0034A92698243014B9A6132
:100C4000704700000010024030B50021002200244F
:100C500000232D4D6D6805F00C0121B1042905D04C
:100C6000082923D105E0294D056022E0274D0560C4
:100C70001FE0254D6D6805F47012234D6D6805F475
:100C80008034022505EB92421CB9214D5543056085
:100C90000BE01D4D6D6805F400351DB11C4D55432D
:100CA000056002E0194D5543056002E0174D0560EF
:100CB00000BF00BF144D6D6805F0F0010909154D26
:100CC0006B5C0568DD4045600F4D6D6805F4E061C3
:100CD000090A104D6B5C4568DD4085600A4D6D6802
:100CE00005F46051C90A0B4D6B5C4568DD40C56079
:100CF000054D6D6805F44041890B074D6B5CC56877
:100D0000B5FBF3F5056130BD0010024000127A001A
:100D100000093D001A0000202A0000207047000052
:100D200000B587B001218803FFF77EFF0121042071
:100D3000FFF77AFF18208DF81B004FF40070ADF814
:100D4000180003208DF81A0006A92148FFF77CFE41
:100D500048208DF81B004FF48060ADF81800032088
:100D60008DF81A0006A91A48FFF76EFE4FF41650C8
:100D700002900020ADF814000C20ADF81200002005
:100D8000ADF81000ADF80E00ADF80C0002A9114846
:100D900000F0A6F9012240F225510E4800F07BF93F
:100DA0004FF4A060FFF734FF25208DF804000120E8
:100DB0008DF807008DF805008DF8060001A8FFF7F3
:100DC000EFFE0121034800F023F907B000BD000049
:100DD00000080140003801400FB400B59BB01DA8C9
:100DE000019002A8019A1C9900F0F2F900200190EC
:100DF00002A800F013F81BB05DF814FB10B5044610
:100E00002146054800F0DDF900BF8021024800F0CE
:100E10000BF90028F9D010BD0038014070B5044628
:100E2000002504E0605DFFF7E9FF681C85B2605DA6
:100E30000028F7D170BD10B500F002F810BD000019
:100E40000CB50020019000903348006840F48030D9
:100E50003149086000BF3048006800F4003000905D
:100E60000198401C0190009818B90198B0F5A06F46
:100E7000F1D12948006800F4003010B10120009041
:100E800001E0002000900098012843D12348006829
:100E900040F01000214908600846006820F0030077
:100EA00008600846006840F0020008601A48406880
:100EB000194948600846406848600846406840F460
:100EC000806048600846406820F47C10486008460E
:100ED000406840F4E81048600846006840F08070C0
:100EE000086000BF0C48006800F000700028F9D0CE
:100EF0000948406820F003000749486008464068F8
:100F000040F00200486000BF0348406800F00C0059
:100F10000828F9D10CBD000000100240002002405A
:100F20007047000010B51348006840F001001149F7
:100F3000086008464068104908400E494860084665
:100F400000680E4908400B4908600846006820F414
:100F5000802008600846406820F4FE0048604FF496
:100F60001F008860FFF767FF4FF0006004490860CA
:100F700010BD0000001002400000FFF8FFFFF6FE69
:100F800008ED00E010B540F225511C4800F059F87A
:100F9000012832D1194800F00FF90446184800889A
:100FA00040B9FF2C28D1012015490880002015499F
:100FB000088021E012480088012811D11248114907
:100FC000098820F811400F480088401C0D4908800E
:100FD0000846008804280FDB0220094908800BE03E
:100FE00007480088022807D1FE2C05D100200449BB
:100FF000088001200549088000BF10BD003801406D
:1010000016000020180000200E0000200400002020
:1010100021B1828942F40052828104E082894DF636
:10102000FF731A408281704702460020B1F5007FAD
:1010300000D100BF13880B400BB1012000E000205D
:10104000704770B50246002400230025002040F6BA
:101050006A16B14200D100BFC1F3421501F01F036F
:10106000012606FA03F3012D02D19689334006E0EA
:10107000022D02D1168A334001E0968A33400C12C9
:10108000012606FA04F41688344013B10CB101208D
:1010900000E0002070BDF0B50346002400260025C6
:1010A000002040F66A17B94200D100BF1846C1F3CC
:1010B000421401F01F06012707FA06F5012C01D1A1
:1010C0000C3004E0022C01D1103000E014301AB1D1
:1010D00007682F43076002E00768AF430760F0BD71
:1010E0002DE9F04786B005460E460024A24600BF13
:1010F000A1460027B08900B100BF2F462C8A4CF6CC
:10110000FF700440F08804432C82AC894EF6F31043
:101110000440B08831890843718908430443AC8195
:10112000AC8A4FF6FF400440B0890443AC8201A86A
:10113000FFF78AFD1F48874202D1DDF810A001E0C9
:10114000DDF80CA0A88900F4004040B10AEBCA0009
:1011500000EB0A1031684900B0FBF1F807E00AEB38
:10116000CA0000EB0A1031688900B0FBF1F8642076
:10117000B8FBF0F004012009642101FB1089A88963
:1011800000F4004040B1322000EBC900B0FBF1F0A8
:1011900000F00700044308E0322000EB091064214E
:1011A000B0FBF1F000F00F0004432C8106B0BDE865
:1011B000F08700000038014001468888C0F308002D
:1011C0007047C1F308028280704700BFFEE700004D
:1011D00037B514460846064B6A46214600F0DCF84F
:1011E00004466946002000F05AFC20463EBD00003F
:1011F0009F1A000802E008C8121F08C1002AFAD18D
:1012000070477047002001E001C1121F002AFBD186
:10121000704700002DE9FF5F82B00021DDE9043056
:10122000020DDDF840B0034318D044F61050A2F28E
:10123000FF3242431514119801281FD0A5EB0B0073
:10124000401C5FEA000A4FF000064E4FDFF838916D
:10125000B046504615D5CAF1000413E01198012498
:101260004AA3012801D16FEA0B010298119AC0E943
:101270000031C0E9024206B0BDE8F09FCBF10000AA
:10128000DFE704460021404A491842EB0450CDE90B
:10129000001012E0E00707D032463B464046494680
:1012A000FEF7EEFF8046894632463B461046194619
:1012B000FEF7E6FF06460F466410002CEAD1DDE992
:1012C0000401DDE90023BAF1000F06DAFEF7D8FFCA
:1012D00042464B46FEF7D4FF05E0FFF743F842468F
:1012E0004B46FFF73FF804460E460022284BFFF717
:1012F0009BFA03D84FF0FF30014607E00022254B50
:1013000020463146FFF7D0F9FFF775FA102409E0BF
:10131000002C0ADB0A220023FFF7F1F8039B30328E
:101320001A55641E50EA0102F2D1641C039AC4F1FA
:1013300011031444119A012A03D0012208430DD14C
:101340000AE0084304D000204FF0110B119072E71F
:10135000A3EB0B056D1E0DE05B4504DD4FF00002B5
:1013600005F1010504E003DA4FF00002A5F10105E3
:10137000002AECD002981199C0E90231C0E9004579
:1013800079E70000000014400000F03F300000004A
:101390000000F0430000E03F2DE9FF4F95B09A4672
:1013A000884606460025EEE1252877D10024274609
:1013B000F94A0121039400E0044316F8013F203B61
:1013C00001FA03F01042F7D130782A2811D06FF0DB
:1013D0002F033078A0F13002092A16D8039A44F07E
:1013E000020402EB820203EB42021044761C0390DB
:1013F000EFE758F8042B0392002A03DA504244F432
:101400000054039044F00204761C30782E2816D144
:1014100016F8010F44F004042A280DD06FF02F02B3
:101420003078A0F13003092B09D807EB870302EBD2
:101430004303C718761CF3E758F8047B761C307812
:101440006C280FD006DC4C2817D068280DD06A28ED
:1014500014D104E0742810D07A280FD10DE044F4A0
:1014600000140AE044F4801401E044F4401472785B
:10147000824202D104F58014761C761C30786628EE
:101480000BD013DC582877D009DC002875D045280C
:10149000F6D04628F4D047281AD193E118E0632803
:1014A00035D0642879D0652812D18BE1702873D0AB
:1014B00008DC6728F1D069286FD06E280DD06F281E
:1014C00006D1ACE073282CD0752874D0782853D07E
:1014D0005246179990476D1C54E1C4F302500228FC
:1014E00009D003280DD0D8F8001004280DD00D60C5
:1014F00008F1040846E1D8F80010EA17C1E90052E3
:10150000F6E7D8F800100D80F2E70D70F0E718F854
:10151000041B8DF8001000208DF80100EB4601201F
:1015200003E058F804BB4FF0FF3061074FF00001B3
:1015300002D40DE009F101018946B9420FDA814573
:10154000F8DB1BF809100029F4D108E009F10101CA
:1015500089468142FADB1BF809100029F6D103986D
:101560005346A0EB090721463846179A00F080FA47
:10157000284400EB090507E044E008E10DE01BF812
:10158000010B524617999047B9F10109F7D253461A
:1015900021463846179AF2E039E00A21C4F3025294
:1015A0004FF0000B0091022A06D058F8040BC11727
:1015B000032A09D00AE023E008F1070020F007021F
:1015C000F2E80201904605E000B2C117042A01D1F9
:1015D00040B2C117002906DA0A460021404261EBF9
:1015E00002012D2202E0220504D52B228DF80420D1
:1015F000012203E0E20701D02022F7E7914657E0FD
:101600000A2100E010214FF0000B00910BE01021A7
:101610004FF0000B44F004040827009103E0082079
:101620004FF0000B0090C4F30252022A05D058F884
:10163000040B0021032A08D008E008F1070020F07D
:101640000702F2E80201904603E080B2042A00D1CA
:10165000C0B24FF0000922072AD53278702A07D08D
:10166000DDF800C08CF0100C5CEA0B0C05D00EE02D
:1016700040228DF80420012208E050EA010306D040
:1016800030238DF804308DF8052002229146009B0E
:1016900083F0080353EA0B030AD150EA010201D197
:1016A000620705D530228DF804204FF001097F1E16
:1016B0003278582A04D039A20C920CAA02920BE07C
:1016C0003BA2F9E75B46009AFEF719FF0C9B9B5C77
:1016D000029A521E0292137050EA0102F2D102984D
:1016E00004A9081A00F1200B600702D524F4803405
:1016F00000E001275F4502DDA7EB0B0000E00020C2
:1017000000EB0B01009003984944401A0390E0035A
:1017100006D453462146179A039800F0A9F90544C8
:10172000002706E001A85246C05D179990476D1C3E
:101730007F1C4F45F6DBE0030CD553462146179A34
:10174000039800F095F9054404E0302052461799BB
:1017500090476D1C0099481E00900029F5DC08E0B8
:101760000298029952460078491C029117999047B5
:101770006D1CBBF10001ABF1010BF1DC5BE100F092
:1017800065F90544761C307800287FF40DAE19B059
:101790002846BDE8F08F00000928010030313233BF
:1017A000343536373839616263646566000000009D
:1017B0003031323334353637383941424344454687
:1017C00000000000600700D4062708F1070020F0A1
:1017D0000700F0E80223804603F0004C5FEA0C00AB
:1017E00001D097A009E0200501D596A005E0E0070B
:1017F00001D095A001E0AFF24C001390307823F0B7
:10180000004365280CD006DC452809D046281DD0A9
:1018100047287FD13BE0662818D067287AD136E088
:101820000021112F01DB112000E0781CCDE900011F
:1018300004A90CA8FFF7EEFCDDE90D010C9A4FF0AE
:10184000000B07F10109109200914EE04FF00040AB
:101850000097CDE9011004A90CA8FFF7DBFCDDE936
:101860000D020C9B0F994FF0000B914610930092C4
:1018700011B9791C00EB0109B7EB090003D4C0F1E1
:10188000FF3B07F10109A9EB0700019042E0012F9E
:1018900000DA01270021112F01DD112000E0384678
:1018A000CDE9000104A90CA8FFF7B4FCDDE90D01A6
:1018B0000C9A00914FF0000BB946109221070FD4FB
:1018C000009A4A4503DA914601E0A9F10109B9F10C
:1018D000010F05DD109AA9F10101515C3029F4D006
:1018E000B84202DA10F1040F03DA0121CDE9011048
:1018F00010E0002803DC8344A9EB000102E0411C56
:10190000494500DD8946A0EB0B00401C01904FF0DB
:1019100000400290200705D40198484502DB4FF0B3
:10192000FF30019000208DF84B0002980DF14B071D
:10193000B0F1004F25D002200C902B200D90029882
:1019400000280CDA404202902D200D9007E00A2179
:101950000298FEF7BEFD3031029007F8011D0C9988
:10196000481E0C900029F2DC02980028EFD1791E65
:101970000D980870307800F0200040F0450007F81E
:10198000020D11A8C01BC01D02901398007800B171
:10199000012000EB0901019801EBE071029801447C
:1019A0000398401A401E0390E00306D45346214694
:1019B000179A039800F05CF805441398007818B162
:1019C0005246179990476D1CE00323D55346214694
:1019D000179A039800F04CF805441BE0BBF1000F88
:1019E00007DB0098584504DD1098179910F80B0094
:1019F00001E0179930205246904701980BF1010BF6
:101A0000401E05F10105019004D12E205246179980
:101A100090476D1CB9F10001A9F10109DEDC05E078
:101A200017F8010B5246179990476D1C0299481EF2
:101A300002900029F4DC53462146179A03989EE64B
:101A40002D0000002B000000200000002DE9F041D7
:101A5000044600251E461746880404D405E039468E
:101A60002020B0476D1C641EF9D52846BDE8F081E2
:101A70002DE9F041044600251E469046C80301D5D5
:101A8000302700E02027880404D505E04146384689
:101A9000B0476D1C641EF9D52846BDE8F0810A6880
:101AA000531C0B6010707047FFF73AF913E00A48B7
:101AB000FEF705FF06463046FEF7F8FC04462246D0
:101AC0000B4606A0FFF788F94FF47A70FEF763FF24
:101AD00003A0FFF781F9EAE7920A063F25660000B6
:101AE00068680D0A0000000000000000920E493CEA
:101AF000B10AC93C2BC3163D2EFB483D752B7B3DDF
:101B000004A9963D80B6AF3D36BDC83D2FBCE13D32
:101B100073B2FA3D87CF093E8340163EB5AB223EF5
:101B2000A2102F3ECF6E3B3EC2C5473E0115543E2C
:101B3000135C603E7F9A6C3ECCCF783EC07D823E87
:101B4000938E883E229A8E3E32A0943E86A09A3E84
:101B5000E59AA03E128FA63ED47CAC3EEF63B23E27
:101B60002A44B83E491DBE3E15EFC33E53B9C93E97
:101B7000CA7BCF3E4136D53E80E8DA3E4F92E03E0A
:101B80007533E63EBBCBEB3EEA5AF13ECBE0F63E88
:101B9000275DFC3EE4E7003F3D9C033F824B063F50
:101BA0009BF5083F6B9A0B3FDA390E3FCDD3103FC0
:101BB0002A68133FD9F6153FC07F183FC6021B3F66
:101BC000D17F1D3FCBF61F3F9967223F25D2243F8F
:101BD0005636273F1594293F4AEB2B3FDE3B2E3FDD
:101BE000BB85303FC9C8323FF304353F233A373F06
:101BF0004268393F3B8F3B3FF9AE3D3F67C73F3FB0
:101C000070D8413F01E2433F03E4453F65DE473F73
:101C100012D1493FF8BB4B3F029F4D3F207A4F3FC7
:101C20003D4D513F4918533F31DB543FE595563FF9
:101C30005348583F6AF2593F1A945B3F532D5D3F1A
:101C400005BE5E3F2146603F97C5613F5A3C633FFA
:101C500059AA643F880F663FD86B673F3CBF683F17
:101C6000A7096A3F0C4B6B3F5E836C3F93B26D3F9D
:101C70009ED86E3F73F56F3F0809713F5213723F54
:101C80004714733FDD0B743F0BFA743FC6DE753F9C
:101C900007BA763FC58B773FF853783F9812793F64
:101CA0009DC7793F02737A3FBE147B3FCDAC7B3F2B
:101CB000283B7C3FC9BF7C3FAC3A7D3FCCAB7D3FEE
:101CC00023137E3FB0707E3F6DC47E3F580E7F3F32
:101CD0006D4E7F3FAB847F3F0FB17F3F97D37F3FF8
:101CE00043EC7F3F11FB7F3F0000803F11FB7F3FB4
:101CF00043EC7F3F97D37F3F0FB17F3FAB847F3F64
:101D00006D4E7F3F580E7F3F6DC47E3FB0707E3F6B
:101D100023137E3FCCAB7D3FAC3A7D3FC9BF7C3FB8
:101D2000283B7C3FCDAC7B3FBE147B3F02737A3FA8
:101D30009DC7793F9812793FF853783FC58B773F1D
:101D400007BA763FC6DE753F0BFA743FDD0B743F72
:101D50004714733F5213723F0809713F73F56F3F89
:101D60009ED86E3F93B26D3F5E836C3F0C4B6B3FD2
:101D7000A7096A3F3CBF683FD86B673F880F663F43
:101D800059AA643F5A3C633F97C5613F2146603F73
:101D900005BE5E3F532D5D3F1A945B3F6AF2593F8B
:101DA0005348583FE595563F31DB543F4918533F60
:101DB0003D4D513F207A4F3F029F4D3FF8BB4B3F77
:101DC00012D1493F65DE473F03E4453F01E2433F0F
:101DD00070D8413F67C73F3FF9AE3D3F3B8F3B3F28
:101DE0004268393F233A373FF304353FC9C8323F91
:101DF000BB85303FDE3B2E3F4AEB2B3F1594293FFE
:101E00005636273F25D2243F9967223FCBF61F3F06
:101E1000D17F1D3FC6021B3FC07F183FD9F6153F3B
:101E20002A68133FCDD3103FDA390E3F6B9A0B3F30
:101E30009BF5083F824B063F3D9C033FE4E7003F94
:101E4000275DFC3ECBE0F63EEA5AF13EBBCBEB3ED3
:101E50007533E63E4F92E03E80E8DA3E4136D53EAD
:101E6000CA7BCF3E53B9C93E15EFC33E491DBE3EA6
:101E70002A44B83EEF63B23ED47CAC3E128FA63EFD
:101E8000E59AA03E86A09A3E32A0943E229A8E3ECB
:101E9000938E883EC07D823ECCCF783E7F9A6C3E4A
:101EA000135C603E0115543EC2C5473ECF6E3B3EBB
:101EB000A2102F3EB5AB223E8340163E87CF093E8F
:101EC00073B2FA3D2FBCE13D36BDC83D80B6AF3D93
:101ED00004A9963D752B7B3D2EFB483D2BC3163D3B
:101EE000B10AC93C920E493C00000000920E49BC68
:101EF000B10AC9BC2BC316BD2EFB48BD752B7BBDDB
:101F000004A996BD80B6AFBD36BDC8BD2FBCE1BD2E
:101F100073B2FABD87CF09BE834016BEB5AB22BEF1
:101F2000A2102FBECF6E3BBEC2C547BE011554BE28
:101F3000135C60BE7F9A6CBECCCF78BEC07D82BE83
:101F4000938E88BE229A8EBE32A094BE86A09ABE80
:101F5000E59AA0BE128FA6BED47CACBEEF63B2BE23
:101F60002A44B8BE491DBEBE15EFC3BE53B9C9BE93
:101F7000CA7BCFBE4136D5BE80E8DABE4F92E0BE06
:101F80007533E6BEBBCBEBBEEA5AF1BECBE0F6BE84
:101F9000275DFCBEE4E700BF3D9C03BF824B06BF4C
:101FA0009BF508BF6B9A0BBFDA390EBFCDD310BFBC
:101FB0002A6813BFD9F615BFC07F18BFC6021BBF62
:101FC000D17F1DBFCBF61FBF996722BF25D224BF8B
:101FD000563627BF159429BF4AEB2BBFDE3B2EBFD9
:101FE000BB8530BFC9C832BFF30435BF233A37BF02
:101FF000426839BF3B8F3BBFF9AE3DBF67C73FBFAC
:1020000070D841BF01E243BF03E445BF65DE47BF6F
:1020100012D149BFF8BB4BBF029F4DBF207A4FBFC3
:102020003D4D51BF491853BF31DB54BFE59556BFF5
:10203000534858BF6AF259BF1A945BBF532D5DBF16
:1020400005BE5EBF214660BF97C561BF5A3C63BFF6
:1020500059AA64BF880F66BFD86B67BF3CBF68BF13
:10206000A7096ABF0C4B6BBF5E836CBF93B26DBF99
:102070009ED86EBF73F56FBF080971BF521372BF50
:10208000471473BFDD0B74BF0BFA74BFC6DE75BF98
:1020900007BA76BFC58B77BFF85378BF981279BF60
:1020A0009DC779BF02737ABFBE147BBFCDAC7BBF27
:1020B000283B7CBFC9BF7CBFAC3A7DBFCCAB7DBFEA
:1020C00023137EBFB0707EBF6DC47EBF580E7FBF2E
:1020D0006D4E7FBFAB847FBF0FB17FBF97D37FBFF4
:1020E00043EC7FBF11FB7FBF000080BF11FB7FBFB0
:1020F00043EC7FBF97D37FBF0FB17FBFAB847FBF60
:102100006D4E7FBF580E7FBF6DC47EBFB0707EBF67
:1021100023137EBFCCAB7DBFAC3A7DBFC9BF7CBFB4
:10212000283B7CBFCDAC7BBFBE147BBF02737ABFA4
:102130009DC779BF981279BFF85378BFC58B77BF19
:1021400007BA76BFC6DE75BF0BFA74BFDD0B74BF6E
:10215000471473BF521372BF080971BF73F56FBF85
:102160009ED86EBF93B26DBF5E836CBF0C4B6BBFCE
:10217000A7096ABF3CBF68BFD86B67BF880F66BF3F
:1021800059AA64BF5A3C63BF97C561BF214660BF6F
:1021900005BE5EBF532D5DBF1A945BBF6AF259BF87
:1021A000534858BFE59556BF31DB54BF491853BF5C
:1021B0003D4D51BF207A4FBF029F4DBFF8BB4BBF73
:1021C00012D149BF65DE47BF03E445BF01E243BF0B
:1021D00070D841BF67C73FBFF9AE3DBF3B8F3BBF24
:1021E000426839BF233A37BFF30435BFC9C832BF8D
:1021F000BB8530BFDE3B2EBF4AEB2BBF159429BFFA
:10220000563627BF25D224BF996722BFCBF61FBF02
:10221000D17F1DBFC6021BBFC07F18BFD9F615BF37
:102220002A6813BFCDD310BFDA390EBF6B9A0BBF2C
:102230009BF508BF824B06BF3D9C03BFE4E700BF90
:10224000275DFCBECBE0F6BEEA5AF1BEBBCBEBBECF
:102250007533E6BE4F92E0BE80E8DABE4136D5BEA9
:10226000CA7BCFBE53B9C9BE15EFC3BE491DBEBEA2
:102270002A44B8BEEF63B2BED47CACBE128FA6BEF9
:10228000E59AA0BE86A09ABE32A094BE229A8EBEC7
:10229000938E88BEC07D82BECCCF78BE7F9A6CBE46
:1022A000135C60BE011554BEC2C547BECF6E3BBEB7
:1022B000A2102FBEB5AB22BE834016BE87CF09BE8B
:1022C00073B2FABD2FBCE1BD36BDC8BD80B6AFBD8F
:1022D00004A996BD752B7BBD2EFB48BD2BC316BD37
:1022E000B10AC9BC920E49BC000000800C23000852
:1022F0000000002030000000F41100083C2300081A
:10230000300000200004000004120008000000005B
:1023100000000000000000000000000000000000BD
:1023200000000000000000000000010203040102A0
:0C23300003040607080902040608000068
:0400000508000131BD
:00000001FF
