:020000040800F2
:10000000504E0020490100086111000899100008B5
:100010005D110008C90C0008271900080000000045
:100020000000000000000000000000008113000834
:10003000AF0D000800000000E9110008CD14000811
:100040006301000863010008630100086301000800
:100050006301000863010008F90D0008630100084E
:10006000630100086301000863010008CD0C00086B
:1000700063010008630100086301000863010008D0
:1000800063010008630100086301000863010008C0
:100090006301000863010008630100081D0E0008E9
:1000A00063010008630100086301000863010008A0
:1000B0006301000863010008630100086301000890
:1000C0006301000863010008630100086301000880
:1000D0006301000821160008591600086301000892
:1000E0006301000863010008630100086301000860
:1000F0006301000863010008630100086301000850
:10010000630100086301000863010008630100083F
:10011000630100086301000863010008630100082F
:10012000630100086301000863010008630100081F
:10013000DFF810D000F0D4FA00480047052200088C
:10014000AFF30080504E0020064880470648004725
:10015000FEE7FEE7FEE7FEE7FEE7FEE7FEE7FEE777
:10016000FEE7FEE7D1140008310100082DE9FE4F3B
:10017000804681EA0300C00F0C46009021F0004148
:1001800023F00045B8EB0200A94105D240462146C4
:1001900090461C460B46024623F00040104347D0D1
:1001A000270DC7F30A00C3F30A510290401A0190C9
:1001B00040286BDAC3F3130040F4801B009892468A
:1001C00020B10023D2EB030A63EB0B0B01985946D5
:1001D000C0F14002504600F0DCF906460D4650469C
:1001E0005946019A00F0F4F910EB0800614100242F
:1001F00087EA115284EAE7731A4340D0009A62B347
:10020000019A012A4FEA075215DC001B61EB02013B
:100210004FF0004202EA0752CDE90042001C41F5CE
:10022000801132462B4600F0F4F903B0BDE8F08FA0
:1002300040462146F9E7001B61EB0201001C41F535
:10024000801300185B412018A2F5001747EB03014B
:1002500040EAD570B6196D4111E06D084FEA3606D7
:1002600045EAC0754FEA0752001B61EB0201001C12
:1002700041F5801149084FEA3000001951413246DA
:100280002B4603B0BDE8F04F00F0B4B9009801224E
:1002900040000023D0EB020263EBE073009821469C
:1002A0004FEAE074B8EB000061EB0401E9E783F08A
:1002B00000435BE781F0004158E72DE9FE4F81EAFA
:1002C000030404F0004421F0004100944FF0000BBF
:1002D00023F0004350EA01045ED052EA03045BD0ED
:1002E000C3F30A54C1F30A552C44A4F2F334019425
:1002F000A0FB0254C1F3130141F48011C3F31303B3
:1003000043F4801301FB024400FB034E840A970A66
:1003100044EA815447EA8357A4FB076802958D0A93
:1003200005FB07854FEA932C04FB0C542705029D1F
:100330004FEA065847EA1637B5EB08056EEB070C8F
:10034000870E920E47EA811742EA8312A7FB020149
:10035000B6EB0B0164EB00042B0D43EA0C335E1883
:1003600044EB1C50DA465146E7FB0201C5F3130487
:100370004FEA0B3343EA14534FEA0432019C43EA39
:100380000603A4F10C040294009CCDE900B400F033
:1003900040F903B0BDE8F08F00200146F9E72DE9F0
:1003A000F04D81EA030404F0004B21F000451446AF
:1003B0004FF0000A23F0004150EA050220D054EA31
:1003C00001021DD0C5F30A570246C5F31303C1F35A
:1003D0001300C1F30A5640F4801543F48013A7EBD1
:1003E0000608101BD64608F2FD3873EB050002D351
:1003F00008F1010801E092185B41B8F1000F03DA3F
:1004000000200146BDE8F08D00204FF48011064623
:1004100084460EE0171B73EB050705D3121B63EB35
:10042000050306434CEA010C49084FEA30009218D4
:100430005B4150EA0107EDD152EA030012D082EA93
:10044000040083EA0501084305D0101BAB4106D226
:100450000122002306E000224FF0004302E06FF08B
:10046000010253101AEB06004CEB085110EB0A0086
:1004700041EB0B01BDE8F04D00F0BCB8C1F30A52EE
:1004800010B5C1F3130140F2FF3341F480119A42D9
:1004900001DA002010BD40F233439A42A2F2334207
:1004A00003DC524200F084F810BD904010BD00F013
:1004B000004230F000400AD0C10D01F56071C0F378
:1004C000160042EA0151C20840071143704700205C
:1004D0000146704730B5041E71F1000404DB4FF093
:1004E0000044404264EB0101141E73F1000405DB7B
:1004F0001C464FF00043524263EB0403994208BF8D
:10050000904230BD30B50B46014600202022012428
:1005100009E021FA02F59D4205D303FA02F5491BD1
:1005200004FA02F52844151EA2F10102F1DC30BDE7
:100530002DE9F05F0546002092469B468846064618
:10054000814640241BE0284641464746224600F0AB
:100550002FF853465A46C01A914110D311461846F7
:10056000224600F016F82D1A67EB01084F46224686
:100570000120002100F00DF817EB00094E41201E6C
:10058000A4F10104DFDC484631462A464346BDE873
:10059000F09F202A04DB203A00FA02F10020704785
:1005A0009140C2F1200320FA03F3194390407047B1
:1005B000202A04DB203A21FA02F00021704721FAB8
:1005C00002F3D040C2F1200291400843194670471F
:1005D000202A06DBCB17203A41FA02F043EAE07307
:1005E00006E041FA02F3D040C2F1200291400843F4
:1005F0001946704710B5141E73F1000408DA401C48
:1006000041F1000192185B411A4301D120F0010031
:1006100010BD2DE9F04D92469B4611B1B1FA81F221
:1006200002E0B0FA80F220329046FFF7B2FF0446B3
:100630000F4640EA0A0041EA0B0153465A46084376
:1006400013D0114653EA010019D0C8F140025046B8
:10065000FFF7AEFF05460E46504659464246FFF7A5
:1006600098FF084305D0012004E020463946BDE844
:10067000F08D0020054346EAE0762C4337430A9884
:100680006305E40AA0EB08000022FD0A44EA47548F
:100690000A3002D500200146E9E701051019694139
:1006A000DDE9084500196941BDE8F04DA2E7C1F355
:1006B0000A52C1F3130140F2FF3341F480119A4210
:1006C00002DA00200146704740F233439A42A2F218
:1006D000334202DC5242FFF76BBFFFF75ABF000004
:1006E000064C074D06E0E06840F0010394E807007F
:1006F00098471034AC42F6D3FFF71EFD7023000874
:100700009023000810B50446204600F007F9214662
:100710004FF4807000F0ECF810BD00002DE9FC41B2
:1007200007460D4690464BA000F02BFE002000909F
:10073000019001204A49086000204A49C1F8A801F7
:1007400001204949086000204849C1F88801B8F1F2
:10075000000F03D0B8F1010F76D13BE0002405E093
:10076000601C385C0DF80400601CC4B2AC42F7DBBE
:10077000002425E000261FE01DF8040000F08000A2
:1007800038B101203649091D086039A000F0F9FD93
:1007900003E000203249091D08600020304908604C
:1007A0001DF804004006000E0DF8040001202D493C
:1007B000C1F8AC01701CC6B2082EDDDB601CC4B2EF
:1007C000AC42D7DB01202649091D08602549C1F844
:1007D000A8013AE0002405E0601C385C0DF8040034
:1007E000601CC4B2AC42F7DB002422E000261CE00F
:1007F0001DF8040000F0800020B101201A49091DF5
:10080000086003E000201849091D0860002016490F
:1008100008601DF804004006000E0DF804000120D9
:100820001249C1F88C01701CC6B2082EE0DB601CB6
:10083000C4B2AC42DADB01200B49091D08600B4948
:10084000C1F8880101E0FFE700BF00BF2046BDE816
:10085000FC81000053504920537461727400000001
:10086000AC012342000023428C01244200002442B8
:1008700073646174613100002DE9FF4704460F463F
:1008800090469946254626463846FFF710FE104A00
:10089000104BCDE90001FFF710FDCDE90201FFF794
:1008A000EDFD8246CAF38D300543CAF30D000643C1
:1008B00048F40050494600F01BF84946304600F025
:1008C00017F84946284600F013F8BDE8FF870000F6
:1008D0003A8C30E28E79254070B504460D461646B6
:1008E00033462A4621464FF48040FFF7C5FF70BDCE
:1008F0007CB504460D46084903C9CDE90001200A2C
:100900008DF80100E0B28DF802002A460221684607
:10091000FFF704FF7CBD00006823000838B50446DB
:1009200014B1012C25D112E00121402000F09AFCE5
:100930004FF4E050ADF8000003208DF802001020C5
:100940008DF8030069460C4800F0B0FA12E001216E
:10095000080200F087FC1C20ADF8000003208DF891
:10096000020010208DF803006946044800F09EFA4A
:1009700000E000BF00BF38BD00180140002001406A
:1009800021B1826842F00102826003E0826822F0B5
:10099000010282607047000000B58DB00121084659
:1009A00000F030FC1D4803901D480290001509908E
:1009B0008020079040000890002006904FF40050DF
:1009C0000B9000200C904FF4806005900020049064
:1009D00020200A9002A9134800F0CBF90121114808
:1009E00000F09CF9012202210E4800F0B9F94FF401
:1009F000A06000F0EFFB0B208DF8040001208DF8C3
:100A0000070000208DF805008DF8060001A800F011
:100A1000A9FB022000F074F90DB000BD34280020BD
:100A20004C2401400800024021B1826842F48072E7
:100A3000826003E0826822F480728260704721B194
:100A4000826842F48012826003E0826822F480129D
:100A50008260704708B50121042000F003FC0121E9
:100A6000102000F0FFFB0220ADF8000000208DF800
:100A7000030003208DF802006946084800F016FACA
:100A80000C20ADF8000000208DF8030003208DF845
:100A900002006946024800F009FA08BD000801405A
:100AA00000100140014600208A6802F004020AB1E9
:100AB000012000E000207047014600208A6802F013
:100AC00008020AB1012000E00020704730B502465C
:100AD0000020002350680F4C20400D790C6844EA38
:100AE00005242043506090680B4C2040D1E902540B
:100AF0002C434D7944EA450420439060D06A20F4A9
:100B000070000C7C641EE4B2234340EA0350D062C0
:100B100030BD0000FFFEF0FFFDF7F1FF00B585B02E
:100B20000121480200F09EFB4FF4004000F05EFB04
:100B300000208DF8050003904FF400200290002063
:100B400000908DF8040001208DF8100069461448CB
:100B5000FFF7BCFF002301221146114800F022F8E4
:100B600001210F48FFF760FF01210D48FFF708FF43
:100B70000B4800F073F800BF0948FFF79DFF0128FC
:100B8000FAD0074800F06FF800BF0548FFF78AFF6A
:100B90000128FAD001210248FFF751FF05B000BD3E
:100BA00000240140F0B504460D4600200021092D27
:100BB00011DDE068A5F10A0606EB4607072606FAEE
:100BC00007F18843A5F10A0606EB460603FA06F18B
:100BD0000843E0600CE0206905EB4507072606FAAC
:100BE00007F1884305EB450603FA06F10843206147
:100BF000072A0FDA606B561E06EB86071F2606FAD9
:100C000007F18843561E06EB860605FA06F10843EF
:100C1000606322E00D2A0FDA206BD61F06EB8607F1
:100C20001F2606FA07F18843D61F06EB860605FA4B
:100C300006F10843206310E0E06AA2F10D0606EB1E
:100C400086071F2606FA07F18843A2F10D0606EB78
:100C5000860605FA06F10843E062F0BD816841F0BE
:100C6000080181607047816841F00401816070472C
:100C70003EB505460C460121022000F0D3FA11488A
:100C800000F062FC684600F0C1FC681E80B2ADF85E
:100C90000400601E80B2ADF8000000208DF808004E
:100CA000ADF80600ADF802006946064800F05CFCAD
:100CB0002021044800F04EFC0121024800F038FCDD
:100CC0003EBD00000004004000BFFEE710B502205A
:100CD00000F030F868B1022000F012F80021054859
:100CE00000F01CF800210448FFF74AFE01200349E8
:100CF000087010BD08000240002401401C000020C4
:100D000000F0805111B10349086001E002494860D8
:100D100070470000040402400000024021B1026854
:100D200042F00102026004E002684FF6FE731A40CE
:100D30000260704701460020002201F0805313B189
:100D4000054B1A6801E0054B1A6802EA01030BB172
:100D5000012000E000207047000402400000024033
:100D60001AB103680B43036002E003688B4303601E
:100D7000704710B50022026847F6F0739A430C6A78
:100D80008B6823430C6923434C6923438C692343B9
:100D9000CC6923434C6A23438C6A23431A43026081
:100DA000CB6843600B6883604B68C36010BD7047BD
:100DB00000B5034603E04FF47A7000F005F8181E02
:100DC000A3F10103F7D100BD00EBC001C9004FF052
:100DD000E0225161002191610521116100BF4FF0B6
:100DE000E021096901F480310029F8D004214FF095
:100DF000E02211617047000010B5012000F042F8B8
:100E000048B1012000F038F800F048F9012002490B
:100E1000087000F0B1FA10BD1D00002010B52020B0
:100E200000F030F848B1202000F026F800F036F944
:100E300001201049087000F09FFA402000F022F8CD
:100E400048B1402000F018F800F028F901200949C5
:100E5000087000F091FA802000F014F848B180206A
:100E600000F00AF800F01AF901200249087000F0B9
:100E700083FA10BD1D000020014908607047000082
:100E800014040140014600200022074B1B6803EABE
:100E90000102054B14331B680B4013B10AB101204A
:100EA00000E0002070470000000401402DE9F041FF
:100EB000024600250026002000230024002791F888
:100EC00003C00CF00F0591F803C00CF0100CBCF13E
:100ED000000F03D091F802C04CEA050591F800C05C
:100EE000BCF1000F31D0146800202BE04FF0010C52
:100EF0000CFA00F3B1F800C00CEA03069E4220D1C0
:100F000083004FF00F0C0CFA03F7BC4305FA03FC07
:100F10004CEA040491F803C0BCF1280F06D14FF04D
:100F2000010C0CFA00FCC2F814C00AE091F803C0EE
:100F3000BCF1480F05D14FF0010C0CFA00FCC2F8CF
:100F400010C0401C0828D1D31460B1F800C0BCF117
:100F5000FF0F34DD546800202EE000F1080C4FF044
:100F6000010808FA0CF3B1F800C00CEA03069E422F
:100F700021D183004FF00F0C0CFA03F7BC4305FAA4
:100F800003FC4CEA040491F803C0BCF1280F05D11E
:100F900000F1080C08FA0CF8C2F8148091F803C0AC
:100FA000BCF1480F07D100F1080C4FF0010808FA16
:100FB0000CF8C2F81080401C0828CED35460BDE85D
:100FC000F0810246002093680B400BB1012000E045
:100FD0000020704702460020D3680B400BB101206F
:100FE00000E00020704741617047016170474FF693
:100FF000FF710180022181700421C17070470000DF
:1010000010B50446012C06D0022C13D0032C20D09E
:10101000042C3CD12CE001211E48FFF7DBFF20B956
:1010200001211C48FFF7E1FF03E001211948FFF708
:10103000DAFF2DE002211748FFF7CCFF20B902218B
:101040001448FFF7D2FF03E002211248FFF7CBFF5D
:101050001EE020210F48FFF7BDFF20B920210D48D9
:10106000FFF7C3FF03E020210A48FFF7BCFF0FE0B2
:1010700040210848FFF7AEFF20B940210548FFF79F
:10108000B4FF03E040210348FFF7ADFF00E000BFDD
:1010900000BF10BD0014014000BFFEE710B500F016
:1010A00013F8074908700748007840B10020054947
:1010B0000870034909783039C8B2FFF7A1FF10BDA5
:1010C0001E0000201D0000207CB520A000680190BB
:1010D0001FA000680090002530E01E211D48FFF78A
:1010E00084FF01A8415D1B48FFF77DFF002421E03C
:1010F0001DF804101748FFF764FFC8B90A20FFF76E
:1011000057FE1DF804101348FFF75BFF80B900BFBE
:101110001DF804100F48FFF754FF0028F8D01E21D7
:101120000C48FFF760FF0C4800EB8500005D7CBDBC
:10113000601CC4B2042CDBDB681CC5B2042DCCDB04
:101140001E210448FFF74FFF0020F0E702040810BB
:1011500020408001001C01405823000800BFFEE72A
:101160007047000070B5002100230F22C47804B33B
:10117000154C246804F4E064C4F5E064210AC1F16C
:101180000403CA40447804FA03F1847814402143EC
:1011900009010E4C0678A155047804F01F050124BE
:1011A000AC4005786D11AD0005F1E025C5F80041B2
:1011B00009E0047804F01F050124AC40044D0678D2
:1011C000761145F8264070BD0CED00E000E400E02B
:1011D00080E100E002490143024A116070470000CB
:1011E0000000FA050CED00E0704700000146002009
:1011F000034A506820F440400843506070470000A4
:101200000010024029B1064A52690243044B5A6158
:1012100004E0034A52698243014B5A61704700005F
:101220000010024029B1064AD2690243044BDA6138
:1012300004E0034AD2698243014BDA61704700003F
:101240000010024029B1064A12690243044B1A6198
:1012500004E0034A12698243014B1A61704700009F
:101260000010024029B1064A92690243044B9A6178
:1012700004E0034A92698243014B9A61704700007F
:101280000010024029B1064AD2680243044BDA60DA
:1012900004E0034AD2688243014BDA6070470000E1
:1012A0000010024030B500210022002400232D4D03
:1012B0006D6805F00C0121B1042905D0082923D15E
:1012C00005E0294D056022E0274D05601FE0254D12
:1012D0006D6805F47012234D6D6805F480340225A5
:1012E00005EB92421CB9214D554305600BE01D4DA5
:1012F0006D6805F400351DB11C4D5543056002E0D5
:10130000194D5543056002E0174D056000BF00BF51
:10131000144D6D6805F0F0010909154D6B5C056809
:10132000DD4045600F4D6D6805F4E061090A104D20
:101330006B5C4568DD4085600A4D6D6805F4605161
:10134000C90A0B4D6B5C4568DD40C560054D6D6895
:1013500005F44041890B074D6B5CC568B5FBF3F59F
:10136000056130BD0010024000127A0000093D0006
:101370001F0000202F00002010B500F059FF10BD05
:1013800070470FB400B59BB01DA8019002A8019A48
:101390001C9900F0CBFA0020019002A800F014F88C
:1013A0001BB05DF814FB000010B50446214605484B
:1013B00000F0A9FA00BF8021024800F0D7F9002808
:1013C000F9D010BD0038014070B50446002504E096
:1013D000605DFFF7E9FF681C85B2605D0028F7D10A
:1013E00070BD10B500F002F810BD00000CB5002073
:1013F000019000903348006840F480303149086023
:1014000000BF3048006800F4003000900198401C94
:101410000190009818B90198B0F5A06FF1D1294852
:10142000006800F4003010B10120009001E00020BD
:1014300000900098012843D12348006840F0100034
:10144000214908600846006820F00300086008464B
:10145000006840F0020008601A4840681949486076
:101460000846406848600846406840F4806048602C
:101470000846406820F47C1048600846406840F404
:10148000E81048600846006840F08070086000BFBF
:101490000C48006800F000700028F9D00948406846
:1014A00020F00300074948600846406840F0020009
:1014B000486000BF0348406800F00C000828F9D1DC
:1014C0000CBD0000001002400020024070470000E8
:1014D00010B51348006840F0010011490860084643
:1014E0004068104908400E494860084600680E49A7
:1014F00008400B4908600846006820F48020086016
:101500000846406820F4FE0048604FF41F008860E1
:10151000FFF767FF4FF000600449086010BD00004E
:10152000001002400000FFF8FFFFF6FE08ED00E0AB
:1015300021B1028842F00102028004E002884FF6E5
:10154000FE731A400280704701894FF6F87211400D
:101550000181704782884FF68F731A40828082889B
:101560000A43828070470000002202881D4B984287
:101570000ED01D4B98420BD0B0F1804F08D01B4BC2
:10158000984205D01A4B984202D01A4B984204D187
:101590004FF68F731A404B881A43174B984207D067
:1015A000164B984204D04FF6FF431A40CB881A439B
:1015B00002808B8883850B8803850A4B98420BD069
:1015C000094B984208D00E4B984205D00D4B9842DB
:1015D00002D00D4B984201D10B7A038601238382FE
:1015E00070470000002C014000340140000400401E
:1015F00000080040000C00400010004000140040B3
:101600000040014000440140004801404FF6FF7196
:10161000818000210180C1804180017270470000FB
:1016200010B540F22551094800F0ADF801280CD161
:10163000064800F063F90649088001200549088042
:1016400040F22551014800F028F810BD0038014053
:10165000000000200200002010B540F2255109488A
:1016600000F091F801280BD1064800F047F9C4B208
:10167000204600F053FE40F22551024800F00DF8DC
:1016800010BD00000044004001F40072B2F5007F7C
:1016900000D100BFCA430280704710B5002200236A
:1016A00040F66A14A14200D100BF0A1201249440FE
:1016B000A3B2DC43048010BD21B1828942F4005200
:1016C000828104E082894DF6FF731A40828170475F
:1016D00010B504462048844209D101218803FFF750
:1016E000D1FD00214FF48040FFF7CCFD32E01B48D4
:1016F000844209D101214804FFF7A4FD00214FF4E1
:101700000030FFF79FFD25E01548844209D10121F3
:101710008804FFF797FD00214FF48020FFF792FD2A
:1017200018E01048844209D10121C804FFF78AFD5E
:1017300000214FF40020FFF785FD0BE00A488442AA
:1017400008D101210805FFF77DFD00214FF480102D
:10175000FFF778FD10BD0000003801400044004054
:1017600000480040004C004000500040024600206D
:10177000B1F5007F00D100BF13880B400BB10120F1
:1017800000E00020704770B50246002400230025C9
:10179000002040F66A16B14200D100BFC1F34215E5
:1017A00001F01F03012606FA03F3012D02D19689E9
:1017B000334006E0022D02D1168A334001E0968ABA
:1017C00033400C12012606FA04F41688344013B193
:1017D0000CB1012000E0002070BDF0B503460024EC
:1017E00000260025002040F66A17B94200D100BF4C
:1017F0001846C1F3421401F01F06012707FA06F547
:10180000012C01D10C3004E0022C01D1103000E099
:1018100014301AB107682F43076002E00768AF432E
:101820000760F0BD2DE9F04786B005460E4600245E
:10183000A24600BFA1460027B08900B100BF2F46D5
:101840002C8A4CF6FF700440F08804432C82AC894B
:101850004EF6F3100440B08831890843718908437B
:101860000443AC81AC8A4FF6FF400440B089044386
:10187000AC8201A8FFF716FD1F48874202D1DDF8B0
:1018800010A001E0DDF80CA0A88900F4004040B1F0
:101890000AEBCA0000EB0A1031684900B0FBF1F80E
:1018A00007E00AEBCA0000EB0A1031688900B0FBC0
:1018B000F1F86420B8FBF0F004012009642101FB79
:1018C0001089A88900F4004040B1322000EBC90023
:1018D000B0FBF1F000F00700044308E0322000EB19
:1018E00009106421B0FBF1F000F00F0004432C81DB
:1018F00006B0BDE8F0870000003801400146888846
:10190000C0F308007047C1F30802828070474FF4AB
:101910001651016000218180C18001810C2141812B
:1019200000218181704700BFFEE7000037B51446F3
:101930000846064B6A46214600F0DCF80446694634
:10194000002000F05AFC20463EBD0000FB210008AC
:1019500002E008C8121F08C1002AFAD17047704778
:10196000002001E001C1121F002AFBD170470000D6
:101970002DE9FF5F82B00021DDE90430020DDDF8C2
:1019800040B0034318D044F61050A2F2FF32424355
:101990001514119801281FD0A5EB0B00401C5FEA1D
:1019A000000A4FF000064E4FDFF83891B04650461F
:1019B00015D5CAF1000413E0119801244AA30128A7
:1019C00001D16FEA0B010298119AC0E90031C0E918
:1019D000024206B0BDE8F09FCBF10000DFE704460D
:1019E0000021404A491842EB0450CDE9001012E0B2
:1019F000E00707D032463B4640464946FEF75DFCCD
:101A00008046894632463B4610461946FEF755FC4D
:101A100006460F466410002CEAD1DDE90401DDE939
:101A20000023BAF1000F06DAFEF747FC42464B46A8
:101A3000FEF743FC05E0FEF7B2FC42464B46FEF7DC
:101A4000AEFC04460E460022284BFEF743FD03D8A9
:101A50004FF0FF30014607E00022254B204631467B
:101A6000FEF784FBFEF723FE102409E0002C0ADBBE
:101A70000A220023FEF75CFD039B30321A55641ED8
:101A800050EA0102F2D1641C039AC4F11103144418
:101A9000119A012A03D0012208430DD10AE008431C
:101AA00004D000204FF0110B119072E7A3EB0B054F
:101AB0006D1E0DE05B4504DD4FF0000205F10105F0
:101AC00004E003DA4FF00002A5F10105002AECD092
:101AD00002981199C0E90231C0E9004579E7000098
:101AE000000014400000F03F300000000000F04310
:101AF0000000E03F2DE9FF4F95B09A468846064624
:101B00000025EEE1252877D100242746F94A012156
:101B1000039400E0044316F8013F203B01FA03F070
:101B20001042F7D130782A2811D06FF02F03307887
:101B3000A0F13002092A16D8039A44F0020402EBFD
:101B4000820203EB42021044761C0390EFE758F840
:101B5000042B0392002A03DA504244F40054039009
:101B600044F00204761C30782E2816D116F8010FA6
:101B700044F004042A280DD06FF02F023078A0F131
:101B80003003092B09D807EB870302EB4303C7187F
:101B9000761CF3E758F8047B761C30786C280FD05D
:101BA00006DC4C2817D068280DD06A2814D104E030
:101BB000742810D07A280FD10DE044F400140AE004
:101BC00044F4801401E044F440147278824202D15B
:101BD00004F58014761C761C307866280BD013DC54
:101BE000582877D009DC002875D04528F6D046283B
:101BF000F4D047281AD193E118E0632835D064283F
:101C000079D0652812D18BE1702873D008DC672861
:101C1000F1D069286FD06E280DD06F2806D1ACE0C6
:101C200073282CD0752874D0782853D05246179931
:101C300090476D1C54E1C4F30250022809D00328D8
:101C40000DD0D8F8001004280DD00D6008F104085C
:101C500046E1D8F80010EA17C1E90052F6E7D8F8D3
:101C600000100D80F2E70D70F0E718F8041B8DF8F6
:101C7000001000208DF80100EB46012003E058F829
:101C800004BB4FF0FF3061074FF0000102D40DE0BC
:101C900009F101018946B9420FDA8145F8DB1BF8E9
:101CA00009100029F4D108E009F1010189468142B7
:101CB000FADB1BF809100029F6D103985346A0EB74
:101CC000090721463846179A00F080FA284400EBAD
:101CD000090507E044E008E10DE01BF8010B52465E
:101CE00017999047B9F10109F7D253462146384672
:101CF000179AF2E039E00A21C4F302524FF0000BC8
:101D00000091022A06D058F8040BC117032A09D003
:101D10000AE023E008F1070020F00702F2E80201E0
:101D2000904605E000B2C117042A01D140B2C117A4
:101D3000002906DA0A460021404261EB02012D2209
:101D400002E0220504D52B228DF80420012203E0B5
:101D5000E20701D02022F7E7914657E00A2100E090
:101D600010214FF0000B00910BE010214FF0000B01
:101D700044F004040827009103E008204FF0000B12
:101D80000090C4F30252022A05D058F8040B002137
:101D9000032A08D008E008F1070020F00702F2E863
:101DA0000201904603E080B2042A00D1C0B24FF095
:101DB000000922072AD53278702A07D0DDF800C042
:101DC0008CF0100C5CEA0B0C05D00EE040228DF874
:101DD0000420012208E050EA010306D030238DF8E8
:101DE00004308DF8052002229146009B83F0080301
:101DF00053EA0B030AD150EA010201D1620705D56B
:101E000030228DF804204FF001097F1E3278582AC5
:101E100004D039A20C920CAA02920BE03BA2F9E783
:101E20005B46009AFEF784FB0C9B9B5C029A521E59
:101E30000292137050EA0102F2D1029804A9081A22
:101E400000F1200B600702D524F4803400E0012764
:101E50005F4502DDA7EB0B0000E0002000EB0B016B
:101E6000009003984944401A0390E00306D4534677
:101E70002146179A039800F0A9F90544002706E0C7
:101E800001A85246C05D179990476D1C7F1C4F45B5
:101E9000F6DBE0030CD553462146179A039800F071
:101EA00095F9054404E030205246179990476D1C7F
:101EB0000099481E00900029F5DC08E0029802997C
:101EC00052460078491C0291179990476D1CBBF14E
:101ED0000001ABF1010BF1DC5BE100F065F90544B9
:101EE000761C307800287FF40DAE19B02846BDE886
:101EF000F08F000009280100303132333435363795
:101F00003839616263646566000000003031323345
:101F100034353637383941424344454600000000E5
:101F2000600700D4062708F1070020F00700F0E85A
:101F30000223804603F0004C5FEA0C0001D097A01A
:101F400009E0200501D596A005E0E00701D095A0A5
:101F500001E0AFF24C001390307823F00043652885
:101F60000CD006DC452809D046281DD047287FD153
:101F70003BE0662818D067287AD136E00021112F7F
:101F800001DB112000E0781CCDE9000104A90CA8B8
:101F9000FFF7EEFCDDE90D010C9A4FF0000B07F1A5
:101FA0000109109200914EE04FF000400097CDE9FA
:101FB000011004A90CA8FFF7DBFCDDE90D020C9B66
:101FC0000F994FF0000B91461093009211B9791CB4
:101FD00000EB0109B7EB090003D4C0F1FF3B07F1A7
:101FE0000109A9EB0700019042E0012F00DA012767
:101FF0000021112F01DD112000E03846CDE900015C
:1020000004A90CA8FFF7B4FCDDE90D010C9A0091BE
:102010004FF0000BB946109221070FD4009A4A45A1
:1020200003DA914601E0A9F10109B9F1010F05DDDB
:10203000109AA9F10101515C3029F4D0B84202DABA
:1020400010F1040F03DA0121CDE9011010E000289E
:1020500003DC8344A9EB000102E0411C494500DD9B
:102060008946A0EB0B00401C01904FF0004002900D
:10207000200705D40198484502DB4FF0FF3001905E
:1020800000208DF84B0002980DF14B07B0F1004F86
:1020900025D002200C902B200D90029800280CDAFD
:1020A000404202902D200D9007E00A210298FEF791
:1020B00029FA3031029007F8011D0C99481E0C9046
:1020C0000029F2DC02980028EFD1791E0D980870E3
:1020D000307800F0200040F0450007F8020D11A80C
:1020E000C01BC01D02901398007800B1012000EBC6
:1020F0000901019801EBE071029801440398401A2C
:10210000401E0390E00306D453462146179A0398D5
:1021100000F05CF805441398007818B152461799FE
:1021200090476D1CE00323D553462146179A039828
:1021300000F04CF805441BE0BBF1000F07DB0098F2
:10214000584504DD1098179910F80B0001E0179915
:1021500030205246904701980BF1010B401E05F1CB
:102160000105019004D12E205246179990476D1C0D
:10217000B9F10001A9F10109DEDC05E017F8010B56
:102180005246179990476D1C0299481E02900029EB
:10219000F4DC53462146179A03989EE62D00000072
:1021A0002B000000200000002DE9F041044600252E
:1021B0001E461746880404D405E039462020B0475F
:1021C0006D1C641EF9D52846BDE8F0812DE9F0416B
:1021D000044600251E469046C80301D5302700E07E
:1021E0002027880404D505E041463846B0476D1CD9
:1021F000641EF9D52846BDE8F0810A68531C0B60BF
:10220000107070470020FEF77DFA0120FEF77AFA81
:102210004FF4E13000F01AF80120FFF7C5F8002272
:1022200011460248FEF758FB00BFFEE700007A4463
:1022300010B502214FF4B470FEF71AFDFEF7ACFBA7
:10224000FEF708FCFEF76AFC10BD000010B586B072
:102250000446012144F20500FFF704F805A8FEF743
:10226000C6FE4FF40070ADF8140018208DF817006A
:1022700003208DF8160005A92648FEF717FE05A8CD
:10228000FEF7B5FE4FF48060ADF8140004208DF821
:10229000170005A91F48FEF709FE01218803FEF774
:1022A000E1FF1D48FFF714FA01A8FFF730FB019486
:1022B0000020ADF80800ADF80A00ADF80C000C20C5
:1022C000ADF80E000020ADF8100001A91248FFF78C
:1022D000A9FA20211048FFF7D7F910210E48FFF77F
:1022E000D3F9012240F225510B48FFF776FA01217C
:1022F0000948FFF7E1F925208DF8000001208DF84D
:1023000001008DF802008DF803006846FEF72AFFF1
:1023100006B010BD00080140003801400D49898811
:10232000B1F5FA7F00DB70470A494A88891D885455
:10233000891F4988491C4FF4FA7291FBF2F302FBA2
:102340001311044A518011468988491C918000BFAD
:10235000E9E700005248002031323334353637384F
:10236000393041424344454603000000000000006C
:1023700090230008000000203400000050190008DD
:10238000C4230008340000201C4E0000601900081F
:10239000000000000000000000000000000000003D
:1023A000000000000000000000000000000000002D
:1023B00000000001020304010203040607080902E9
:0423C0000406080007
:0400000508000131BD
:00000001FF
